:0400000039EF00F0E4
:100008005582FACF06F0FBCF07F0D9CF08F0DACF48
:1000180009F0F2AC12EF00F014EF00F02FEF00F04F
:100028009DAA19EF00F01BEF00F02FEF00F09EAA39
:1000380020EF00F022EF00F02FEF00F002D82FEFB2
:1000480000F00500FA6E0001FC51FD6EFD51FE6ED8
:10005800FF6AFA50120009C0DAFF08C0D9FF07C0CA
:10006800FBFF06C0FAFF55921100BFEF08F029C048
:100078003FF02AC040F02BC041F02CC042F02DC008
:1000880043F02EC044F02FC045F030C046F046BEC5
:1000980050EF00F053EF00F0010E54EF00F0000EA7
:1000A800476E4750D8B45BEF00F05DEF00F06DEF9E
:1000B80000F0461E451E441E431E421E411E401EA1
:1000C8003F6C000E40224122422243224422452214
:1000D80046220001DABF7BEF00F0DA5106E1D905CC
:1000E800D8B079EF00F07BEF00F081EF00F0000E60
:1000F8003C6E010E3B6E85EF00F0D9C03BF0DAC0D4
:100108003CF0D7C03DF0D8C03EF04750D8B48FEF90
:1001180000F091EF00F0A8EF00F03D06D8A03E06F1
:100128004750D8A49AEF00F09CEF00F0A2EF00F03F
:10013800000E3A6E2B0E396EA6EF00F0000E3A6EE6
:100148002D0E396E39C047F0000E496E1F0E486EED
:10015800000E0101336F2DEF01F04806D8A04906C3
:10016800140E4824D96E010E4920DA6E3FC00AF0F9
:1001780040C00BF041C00CF042C00DF043C00EF07F
:1001880044C00FF045C010F046C011F00A0E126EC0
:10019800000E136E000E146E000E156E000E166E15
:1001A800000E176E000E186E000E196E1BEC04F090
:1001B8000AC031F00BC032F00CC033F00DC034F07F
:1001C8000EC035F00FC036F010C037F011C038F04F
:1001D80031C01CF032C01DF06CEC09F01C50300F1F
:1001E800DF6E3B06D8A03C063D06D8A03E063FC0C1
:1001F8000AF040C00BF041C00CF042C00DF043C003
:100208000EF044C00FF045C010F046C011F00A0EC1
:10021800126E000E136E000E146E000E156E000E98
:10022800166E000E176E000E186E000E196EA0ECFA
:1002380002F00AC03FF00BC040F00CC041F00DC006
:1002480042F00EC043F00FC044F010C045F011C09A
:1002580046F049BE38EF01F0495008E14804D8A0FB
:1002680038EF01F03AEF01F056EF01F03F5040103F
:10027800411042104310441045104610D8A447EFCF
:1002880001F049EF01F0B1EF00F03CBE56EF01F08C
:100298003C5006E13B04D8B054EF01F056EF01F0B2
:1002A800B1EF00F04750D8B45CEF01F05EEF01F019
:1002B80069EF01F04806D8A04906140E4824D96E03
:1002C800010E4920DA6E47C0DFFF27C01CF028C0A6
:1002D8001DF0140E48241E6E010E49201F6E3DC0ED
:1002E80020F03EC021F06CEC07F01200D10E0E6E2B
:1002F800FF0E0F6EF0EC06F0000E0001C26FA40EA8
:10030800C225D96EDA6A000EDA22000EDF6EC22B21
:100318001D0EC26592EF01F094EF01F083EF01F03A
:10032800000EC46F000EC46FA9EF01F0000EC425C3
:10033800D96EDA6A010EDA22A40EC425E16EE26AE9
:10034800000EE222DFCFE7FFC42B4C508B6F8C6B83
:10035800010E8B27000E8C23C4518D6F8E6B8B5131
:100368008D5D8E51800A8F6F8C51800A8F59D8A06D
:10037800C0EF01F0C2EF01F09AEF01F0E651D8B4F6
:10038800C8EF01F0CAEF01F0F3EF01F04F50D8A425
:10039800D0EF01F0D2EF01F0D4EF01F09DEF02F0C1
:1003A800A40EC425D96EDA6A000EDA226F0EDF6E4B
:1003B800C42BA40EC425D96EDA6A000EDA226B0E9D
:1003C800DF6EC42BA40EC425D96EDA6A000EDA22B9
:1003D8002A0EDF6EC42B000EE66F87EF02F0E551A0
:1003E800D8B4F9EF01F0FBEF01F058EF02F04F50ED
:1003F800D8A401EF02F003EF02F005EF02F09DEF41
:1004080002F0900E786F000E796FFB0E7A6FFF0E78
:100418007B6F040E7D6F570E7C6F6EEC08F0000E3C
:100428000001C36F2FEF02F0900EC325D96EDA6A70
:10043800000EDA22A40E8B6F000E8C6FC4518B272E
:10044800000E8C23C3518B25E16E000E8C21E26EC9
:10045800DFCFE7FFC32B900E0A6E000E0B6E97ECF2
:1004680008F00001C3518B6F8C6B0A508B5D0B50E9
:100478008C59D8A042EF02F044EF02F018EF02F0D6
:10048800A40E8B6F000E8C6FC4518B27000E8C232B
:10049800C3518B25D96E000E8C21DA6E2A0EDF6EC1
:1004A800000EE56F87EF02F0E451D8B45EEF02F07A
:1004B80060EF02F087EF02F0F551D8A466EF02F082
:1004C80068EF02F073EF02F0A40EC425D96EDA6A61
:1004D800000EDA22790EDF6EC42B7DEF02F0A40E37
:1004E800C425D96EDA6A000EDA226E0EDF6E70EF5E
:1004F80002F0A40EC425D96EDA6A000EDA222A0E9A
:10050800DF6E000EE46F660E0E6EFF0E0F6EF0ECDF
:1005180006F0A40E0E6E000E0F6EF0EC06F07C0EC8
:100528000E6EFF0E0F6EF0EC06F0000E4D6E4FC013
:10053800F5F0010E4E6E1200000E1B6E19BEA9EFEB
:1005480002F0A7EF02F0BBEF02F0191E181E171EEB
:10055800161E151E141E131E126C000E13221422D2
:1005680015221622172218221922010E1B6E11BEFF
:10057800C2EF02F0C0EF02F0D4EF02F0111E101E1D
:100588000F1E0E1E0D1E0C1E0B1E0A6C000E0B22DB
:100598000C220D220E220F2210221122010E1B1AEC
:1005A80020EE1CF0070EDE6AE806FDE2125013107A
:1005B800141015101610171018101910D8B4E7EFEA
:1005C80002F0E9EF02F03BEF03F0010E1A6EF7EFCD
:1005D80002F0D890123613361436153616361736FA
:1005E800183619361A2A19AEFCEF02F0FEEF02F09F
:1005F800EDEF02F0D8901C361D361E361F36203619
:1006080021362236233612500A5C13500B581450E8
:100618000C5815500D5816500E5817500F581850A2
:10062800105819501158D8A01CEF03F01EEF03F012
:100638002FEF03F012500A5E13500B5A14500C5A45
:1006480015500D5A16500E5A17500F5A1850105A66
:100658001950115A1C80D890193218321732163294
:1006680015321432133212321A2EFEEF02F01B50DA
:10067800D8B441EF03F043EF03F053EF03F0231E28
:10068800221E211E201E1F1E1E1E1D1E1C6C000E5B
:100698001D221E221F2220222122222223221CC0A8
:1006A8000AF01DC00BF01EC00CF01FC00DF020C0DA
:1006B8000EF021C00FF022C010F023C011F012007C
:1006C800DCEC09F0105000018D6F78EC05F00A5051
:1006D80000018E6F7E0E0E6EFF0E0F6EF0EC06F0B0
:1006E800A90E0E6EFF0E0F6EF0EC06F0E90E00017B
:1006F800786F000E796FFB0E7A6FFF0E7B6F8DC0DF
:100708007CF07D6B6EEC08F0E90E0E6E000E0F6E3D
:10071800F0EC06F07C0E0E6EFF0E0F6EF0EC06F09D
:10072800010E0E6EFF0E0F6EF0EC06F0E70E0001E4
:10073800786F000E796FFB0E7A6FFF0E7B6F8EC09D
:100748007CF07D6B6EEC08F07C0E0E6EFF0E0F6E6B
:10075800F0EC06F0E70E0E6E000E0F6EF0EC06F0F1
:100768004F50D8B4BAEF03F0BCEF03F0F6EF03F044
:100778004F04D8A4C2EF03F0C4EF03F014EF04F061
:1007880000018E518D19D8A4CCEF03F0CEEF03F001
:1007980014EF04F0F6EF03F0010EE66F1B0E0E6E79
:1007A800FF0E0F6EF0EC06F010EF04F04F04D8A423
:1007B800E0EF03F0E2EF03F010EF04F0010EE56F55
:1007C800340E0E6EFF0E0F6EF0EC06F010EF04F014
:1007D800010EE46F4D0E0E6EFF0E0F6EF0EC06F07C
:1007E80010EF04F00001E2518B6F8C6B8C51000A02
:1007F800D8B401EF04F0EEEF03F08B51670AD8B4D8
:10080800DAEF03F0150AD8B4D0EF03F0060AD8B42B
:10081800ECEF03F0EEEF03F0040E4E6E1AEF04F067
:10082800000E4D6E08EC09F0000E4E6E1200000E20
:100838001B6E11BE24EF04F022EF04F036EF04F033
:10084800111E101E0F1E0E1E0D1E0C1E0B1E0A6CF6
:10085800000E0B220C220D220E220F221022112232
:10086800010E1B6E19BE3DEF04F03BEF04F04DEF97
:1008780004F0191E181E171E161E151E141E131E10
:10088800126C000E13221422152216221722182287
:1008980019221250131014101510161017101810D2
:1008A8001910D8B45AEF04F05CEF04F0A4EF04F088
:1008B800010E1A6E6AEF04F0D89012361336143609
:1008C800153616361736183619361A2A19AE6FEF36
:1008D80004F071EF04F060EF04F012500A5C13505A
:1008E8000B5814500C5815500D5816500E581750D8
:1008F8000F581850105819501158D8A086EF04F006
:1009080088EF04F098EF04F012500A5E13500B5A67
:1009180014500C5A15500D5A16500E5A17500F5A9B
:100928001850105A1950115AD890193218321732D3
:10093800163215321432133212321A2E71EF04F0B5
:100948001B50D8B4AAEF04F0ACEF04F0BCEF04F0ED
:10095800111E101E0F1E0E1E0D1E0C1E0B1E0A6CE5
:10096800000E0B220C220D220E220F221022112221
:100978000AC00AF00BC00BF00CC00CF00DC00DF053
:100988000EC00EF00FC00FF010C010F011C011F023
:10099800120062C0D9FF63C0DAFFDECFF6FFDDCFF9
:1009A800F7FFF86A0800F550250AD8A4DEEF04F02E
:1009B800E0EF04F062EF05F062C0D9FF63C0DAFF30
:1009C800DE2A000EDD22000E0001D86F000ED76F60
:1009D800D7C0E1F0D969DA6962C0D9FF63C0DAFF2C
:1009E800DECF6EF0DDCF6FF06EC0F6FF6FC0F7FFA1
:1009F800F86A0800F550640AD8B405EF05F007EF67
:100A080005F016EF05F06EC0F6FF6FC0F7FFF86A45
:100A18000800F550690AD8A414EF05F016EF05F0A0
:100A280059EF05F064C0D9FF65C0DAFFDFCF4AF09F
:100A3800020EDE26DFCF4BF0000EDD224AC0D9FFC2
:100A48004BC0DAFFDECF66F0DDCF67F0000E67BF80
:100A5800FF0E686F696F6A6F6B6F6C6F6D6F010E59
:100A68006E254A6E000E6F214B6E62C0D9FF63C0BF
:100A7800DAFF4AC0DEFF4BC0DDFF60C027F061C06F
:100A880028F066C029F067C02AF068C02BF069C05A
:100A98002CF06AC02DF06BC02EF06CC02FF06DC02A
:100AA80030F03BEC00F077EF05F062C0D9FF63C08F
:100AB800DAFFDE2A000EDD2277EF05F062C0D9FFEB
:100AC80063C0DAFFDECFF6FFDDCFF7FFF86A080074
:100AD800F5500C6E0D6A60C00EF061C00FF0E3ECCB
:100AE80005F059EF05F0120083B27DEF05F080EFB5
:100AF80005F0010E81EF05F0000E0C6E0D6A0C3A40
:100B08000D3AF00E0D160C500F0B0D12F00E0C16C0
:100B180083B091EF05F094EF05F0010E95EF05F025
:100B2800000E0E6E0F6AD8900E360F36D8900E361D
:100B38000F36D8900E360F3680B4A5EF05F0A8EF23
:100B480005F0010EA9EF05F0000E106E116AD8909D
:100B580010361136D8901036113680B2B6EF05F03F
:100B6800B9EF05F0010EBAEF05F0000E126E136A28
:100B7800D8901236133680B0C4EF05F0C7EF05F0F1
:100B8800010EC8EF05F0000E146E156A125014100D
:100B9800166E13501510176E10501610186E11504F
:100BA8001710196E0E5018101A6E0F5019101B6E70
:100BB8000C501A100A6E0D501B100B6E12000E50BE
:100BC8000F10D8B4EAEF05F0ECEF05F0F5EF05F0FB
:100BD8000E500F10D8A4F3EF05F0F5EF05F0FAEF7B
:100BE80005F00C503BEC0AF047EF06F020EE09F058
:100BF8000E50D9260F50DA22DE50DE10D8B407EF97
:100C080006F009EF06F024EF06F020EE09F00E508A
:100C1800D9260F50DA2210EE03F00E50E1260F50BD
:100C2800E222DE50E65CE650800A146EDE50800A4E
:100C38001458D8B022EF06F024EF06F047EF06F07C
:100C480020EE03F00E50D9260F50DA22DECF10F036
:100C5800DDCF11F00EC0D9FF0FC0DAFFDECF12F0E2
:100C6800DDCF13F010501224D96E11501320DA6E14
:100C78000CC0DFFF20EE03F00E50D9260F50DA2209
:100C8800DE2A000EDD221200C70E5424D96EDA6A5D
:100C9800000EDA22000EDF6EABA455EF06F057EF18
:100CA80006F06BEF06F0C70E5424D96EDA6A000E10
:100CB800DA220001DF8202D86BEF06F00500FA6E37
:100CC800FA51FD6EFB51FE6EFF6AFA501200ABA29C
:100CD80070EF06F072EF06F086EF06F0C70E5424A8
:100CE800D96EDA6A000EDA220001DF8402D886EFB4
:100CF80006F00500FA6EF851FD6EF951FE6EFF6AB6
:100D0800FA501200C70E5424D96EDA6A000EDA229D
:100D1800DF50D8B492EF06F094EF06F0A3EF06F098
:100D280002D8A1EF06F00500FA6E0001F651FD6E3B
:100D3800F751FE6EFF6AFA501200A5EF06F08CEC30
:100D480009F01200B5EC09F0056ED6EF06F02AECB2
:100D580009F0010E506E730E0518D8A4B6EF06F010
:100D6800B8EF06F0EFEF06F00550EEEC09F0020ED2
:100D7800506EEFEF06F00550EEEC09F02A0E05185C
:100D8800D8A4C9EF06F0CBEF06F0EFEF06F0010E9E
:100D98004D6E2A0EEEEC09F0010E4E6E000E506EEE
:100DA800EFEF06F05050036E046A0450000AD8B4FE
:100DB800E0EF06F0EFEF06F00350000AD8B4ABEF0F
:100DC80006F0010AD8B4AFEF06F0030AD8B4BFEFB3
:100DD80006F0EFEF06F012008D80000E136E000E85
:100DE800126E1CEF07F0A1EC09F00009D8B4FFEF70
:100DF80006F001EF07F0F7EF06F012500E24106E20
:100E080013500F20116E10C0F6FF11C0F7FF000E2F
:100E1800F86E0F0EF76403D00800F55005D0F6CF32
:100E2800E1FFF7CFE2FFE75006EC0AF0124A132A77
:100E38000EC00AF00FC00BF097EC08F00A50125CD5
:100E48000B501358D8A02BEF07F02DEF07F0F7EF52
:100E580006F08D901200C30E0E6EFE0E0F6EF0ECB3
:100E680006F053EF07F0000E4F6EBE0E0E6EFF0E2B
:100E78000F6EF0EC06F069EF07F0010E4F6EE20E10
:100E88000E6EFF0E0F6EF0EC06F069EF07F0E40E41
:100E98000E6EFE0E0F6EF0EC06F069EF07F0010122
:100EA8000151146E156A1550000AD8B45EEF07F0A8
:100EB8004BEF07F01450620AD8B437EF07F0170A5F
:100EC800D8B441EF07F04BEF07F0020E4E6E120058
:100ED80021BE71EF07F073EF07F079EF07F020C03C
:100EE80025F021C026F07DEF07F0000E266E000EDB
:100EF800256E000E246E000E236E8FEF07F0000E95
:100F08000D6E200E0C6E1CC00EF01DC00FF0E3EC31
:100F180005F0234A242A2550235C2450800A226E97
:100F28002650800A2258D8A09CEF07F09EEF07F0C1
:100F380083EF07F01EC015F01FC016F01CC017F095
:100F48001DC018F0E6EC08F0120011EC0AF04C0E87
:100F58000A6E0D0E0B6E27EC0AF0F28EF28C40EC46
:100F68000AF0F30E0E6EFF0E0F6EF0EC06F04D5009
:100F7800D8B4C1EF07F0C3EF07F0BBEF07F04E504E
:100F8800020DEB0EF324D96E000EF420DA6EDECFDC
:100F9800C5F0DDCFC6F002D8DCEF07F00500FA6E29
:100FA8000001C551FD6EC651FE6EFF6AFA5012006F
:100FB800BBEF07F039EF00F0940E0E6EFF0E0F6EC8
:100FC800F0EC06F0000E156E4F04D8A4EEEF07F013
:100FD800F0EF07F008EF08F0D00E0101022500013C
:100FE800DF6FE06BFF0EE023152A020E1524D96E81
:100FF800DA6A010EDA22DF50146ED00E1424DD6F87
:10100800DE6BFF0EDE23152A1550020F4C6E000E04
:101018004C24D96EDA6A010EDA22DF500001E26F41
:10102800030E4E6E12009D9A900E0A6E0C0E0B6EF9
:1010380027EC0AF0080EB86E900EAB6E240EAC6E5C
:10104800670EAF6E000EB06E960E0A6E140E0B6E23
:1010580031EC0AF0860E0A6E140E0B6E2CEC0AF0B8
:101068008C0E0A6E140E0B6E36EC0AF0000E516EE2
:10107800000E546E000E536E000E526E9D8A1200C2
:1010880072C076F073C077F059EF08F070C060F066
:1010980071C061F0760E0001626F000E636F74C05C
:1010A80064F075C065F0CDEC04F076C0F6FF77C04B
:1010B800F7FFF86A0800F5500009D8A466EF08F0B1
:1010C80068EF08F04AEF08F0000E0001716F000E9B
:1010D800706F12007C0E00017E6F000E7F6F78C06B
:1010E80080F079C081F0000E846F000E836F000ECF
:1010F8008A6F000E896F800E706F000E716F7AC054
:1011080072F07BC073F07E0E746F000E756F44EC46
:1011180008F0000183517825D96E84517921DA6E5F
:10112800000EDF6E12000AC00CF00BC00DF09FEF2E
:1011380008F00A4A0B2A0AC0F6FF0BC0F7FF000E98
:10114800F86E0F0EF76403D00800F55005D0F6CFFF
:10115800E1FFF7CFE2FFE7500009D8A4B6EF08F0A7
:10116800B8EF08F09DEF08F00C500A5C0A6E0D50BD
:101178000B580B6E1200420EF66E140EF76E000E30
:10118800F86E00EEEBF010EE0BF00900F5CFEEFF75
:10119800E550E150FAE101EE00F0340EEE6AE8069F
:1011A800FDE100EEC7F0240EEE6AE806FDE100EE70
:1011B8004CF0090EEE6AE806FDE1559055920001E3
:1011C800A9EF07F0000E1B6E000E1A6EF7EF08F07D
:1011D80019C00CF00D6A17C00EF018C00FF0E3EC40
:1011E80005F01A4A1B2A1A501524D96E1B501620CE
:1011F800DA6EDF50196E1950D8A405EF09F007EF21
:1012080009F0ECEF08F01200000E0001DC6F000E90
:10121800DB6F000E0B6E000E0A6E000E0A24D96EEC
:10122800010E0B20DA6E000EDF6E0A4A0B2A0BBE87
:1012380027EF09F00B5009E1140E0A5CD8A027EF3C
:1012480009F029EF09F011EF09F01200000E000172
:10125800DC6F000EDB6F000E026E000E016E000EDA
:101268000124D96E010E0220DA6E000EDF6E014AEB
:10127800022A02BE49EF09F0025009E1140E015C8E
:10128800D8A049EF09F04BEF09F033EF09F012004D
:10129800000E8D6E000E8C6E000E896E000E8A6E2A
:1012A800000E8B6E060E966E92689368BF0E946E53
:1012B8009568F80E0F013B6F3C0E3A6F3F0E396F81
:1012C800060E3C6F280E386F000E616EF18E12000C
:1012D8001DBE79EF09F01D5006E11C04D8B077EF68
:1012E80009F079EF09F087EF09F01CC01EF01DC066
:1012F8001FF01E1E1F1E1E4A1F2A1EC01CF01FC0E4
:101308001DF08BEF09F01CC01CF01DC01DF0120071
:10131800CF0E5424D96EDA6A000EDA22AECFDFFF80
:10132800542A070E54649BEF09F09DEF09F09FEFD4
:1013380009F0000E546E522A1200000E0A6E9EA882
:10134800A8EF09F0AAEF09F0B3EF09F0ACAAAFEFE4
:1013580009F0B1EF09F0B3EF09F0010E0A6E0A5077
:1013680012009EAABAEF09F0BCEF09F0B5EF09F038
:10137800000E516EABA2C3EF09F0C5EF09F0C7EF3D
:1013880009F0AB98AB88AE5012000A500C02F3CFAC
:101398000EF0F4CF0FF00A500D02F3500F260B5049
:1013A8000C02F3500F260EC00AF00FC00BF012000B
:1013B800DFC00AF0E0C00BF0000E0D6E0A0E0C6ED6
:1013C800C9EC09F00001DD510A24106EDE510B2032
:1013D800116E1200016E000E0001DB25D96E010EA0
:1013E800DC21DA6E01C0DFFFDB4BDC2B12004D5035
:1013F800D8B401EF0AF003EF0AF0FBEF09F0010E91
:101408004E6E12000A6E0AC0ADFFACA20EEF0AF0D3
:1014180010EF0AF009EF0AF0120049EC0AF04CEC60
:1014280009F01AEC0AF017EC08F01200600ED36EFF
:10143800040ED26E000E9B6E1200F6135E0EC00FE5
:05144800C806F40201DA
:10144E000AC0FCF00BC0FDF012000AC0F8F00BC091
:10145E00F9F012000AC0FAF00BC0FBF012000AC03D
:10146E00F6F00BC0F7F012000B6E0B5006EC0AF004
:10147E001200000E4E6E1200AB98AB8812008CEC70
:0A148E0009F01200D09E12001200B7
:10FEC200004920616D20696E2044657374696E611A
:10FED20074696F6E20636865636B20737461746507
:10FEE2000A0044657374696E6174696F6E20636899
:10FEF20061726163746572206572726F720A006169
:10FF02006464726573732066726F6D2068617264D7
:10FF1200776172652069733A004920616D20696ECC
:10FF22002072656164696E6720636F6D6D616E64D6
:10FF32000A004920616D20696E2073656E64696EE6
:10FF42006720636F6D6D616E640A00436F6D6D6152
:10FF52006E64206368617261637465722065727297
:10FF62006F720A004920616D207468652066696EAF
:10FF7200616C206672616D653A200A004920616DEC
:10FF820020696E204465636F6465207374617465D3
:10FF92000A004920616D20696E20506172736520EC
:10FFA20073746174650A00616464726573732066B8
:10FFB200726F6D206672616D653A20006920616D15
:10FFC20020696E2062726F6164636173740A004912
:10FFD20020616D20696E20657865637574650A001D
:10FFE2006920616D20696E20756E69636173740AA0
:0DFFF2000048656C6C6F210A00256400005A
:020000040020DA
:08000000FFFFFFFFFFFFFFFF00
:020000040030CA
:0E000000FF381F3CFFBF81FF0FC00FE00F4015
:00000001FF
