:0400000051EF00F0CC
:100008004A82FACF0CF0FBCF0DF0E1CF0EF0E2CF31
:100018000FF0D9CF10F0DACF11F0F6CF12F0F7CFFA
:1000280013F0F8CF14F0F5CF15F0F2AC1EEF00F096
:1000380020EF00F03BEF00F09DAA25EF00F027EF3E
:1000480000F03BEF00F09EAA2CEF00F02EEF00F03E
:100058003BEF00F002D83BEF00F00500FA6E01011B
:10006800EF51FD6EF051FE6EFF6AFA50120015C096
:10007800F5FF14C0F8FF13C0F7FF12C0F6FF11C058
:10008800DAFF10C0D9FF0FC0E2FF0EC0E1FF0DC0BC
:10009800FBFF0CC0FAFF4A9211001AEF13F085C05B
:1000A800D9FF86C0DAFFDECFF6FFDDCFF7FFF86AAB
:1000B8000800F550250AD8A464EF00F066EF00F0B8
:1000C800B8EF02F085C0D9FF86C0DAFFDE2A000E3D
:1000D800DD22000E366E000E356E35C03BF03768F7
:1000E8003868000E00018F6F000E8E6FA7EF00F0CA
:1000F8003B8285C0D9FF86C0DAFFDE2A000EDD22EA
:10010800A7EF00F0000E8F6F010E8E6FA7EF00F0C3
:1001180085C0D9FF86C0DAFFDECFF6FFDDCFF7FF57
:10012800F86A0800F550896F8A6B8A51000AD8B4BA
:10013800A0EF00F086EF00F08951300AD8B47CEFC8
:1001480000F086EF00F08E518F11D8B4AEEF00F0BA
:10015800B0EF00F08CEF00F085C0D9FF86C0DAFF61
:10016800DECFF6FFDDCFF7FFF86A0800F5502E0A5C
:10017800D8A4C1EF00F0C3EF00F033EF01F0000E98
:10018800386E000E376E85C0D9FF86C0DAFFDE2ACA
:10019800000EDD2285C0D9FF86C0DAFFDECFF6FF6C
:1001A800DDCFF7FFF86A0800F5502A0AD8A4DFEF78
:1001B80000F0E1EF00F0FEEF00F085C0D9FF86C047
:1001C800DAFFDE2A000EDD2287C0D9FF88C0DAFFF9
:1001D800DFCF89F0020EDE26DFCF8AF0000EDD22A7
:1001E80089C0D9FF8AC0DAFFDECF37F0DDCF38F01B
:1001F80033EF01F085C0D9FF86C0DAFFDECF1CF0EF
:10020800DDCF1DF0EEEC0AF01CC037F01DC038F051
:1002180015EF01F085C0D9FF86C0DAFFDE2A000E8F
:10022800DD2285C0D9FF86C0DAFFDECFF6FFDDCF3D
:10023800F7FFF86A0800F5CF89F0D00E000189258C
:100248008A6F8B6BFF0E8B238B5109E10A0E8A5D37
:10025800D8A031EF01F033EF01F00EEF01F085C0C7
:10026800D9FF86C0DAFFDECFF6FFDDCFF7FFF86AE9
:100278000800F550630AD8A444EF01F046EF01F0F6
:1002880069EF01F085C0D9FF86C0DAFFDE2A000ECB
:10029800DD2287C0D9FF88C0DAFFDFCF89F0020EE0
:1002A800DE26DFCF8AF0000EDD2289C0D9FF8AC0A2
:1002B800DAFFDF508D6F83C021F084C022F08DC03B
:1002C80023F092EC10F0CDEF02F085C0D9FF86C084
:1002D800DAFFDECF9AF0DDCF9BF09AC0F6FF9BC025
:1002E800F7FFF86A0800F550640AD8B47EEF01F009
:1002F80080EF01F08FEF01F09AC0F6FF9BC0F7FF87
:10030800F86A0800F550690AD8A48DEF01F08FEF5C
:1003180001F0D2EF01F087C0D9FF88C0DAFFDFCF44
:1003280089F0020EDE26DFCF8AF0000EDD2289C0BA
:10033800D9FF8AC0DAFFDECF92F0DDCF93F0000E4E
:1003480093BFFF0E946F956F966F976F986F996F25
:10035800010E9A25896F000E9B218A6F85C0D9FFEF
:1003680086C0DAFF89C0DEFF8AC0DDFF83C060F087
:1003780084C061F092C062F093C063F094C064F0EE
:1003880095C065F096C066F097C067F098C068F0B1
:1003980099C069F032EC07F0CDEF02F09AC0F6FF91
:1003A8009BC0F7FFF86A0800F550780AD8A4DFEF79
:1003B80001F0E1EF01F03EEF02F087C0D9FF88C0FD
:1003C800DAFFDFCF89F0020EDE26DFCF8AF0000EDB
:1003D800DD2289C0D9FF8AC0DAFFDECF8BF0DDCFFE
:1003E8008CF08BC092F08CC093F0946B956B966BED
:1003F800976B986B996B010E9A25896F000E9B215C
:100408008A6F85C0D9FF86C0DAFF89C0DEFF8AC03F
:10041800DDFF27EF02F083C060F084C061F092C076
:1004280062F093C063F094C064F095C065F096C024
:1004380066F097C067F098C068F099C069F08FECD3
:1004480008F0CDEF02F09AC0F6FF9BC0F7FFF86AFC
:100458000800F550896F8A6B8A51000AD8B437EFC3
:1004680002F03EEF02F08951780AD8B40FEF02F09B
:100478003EEF02F085C0D9FF86C0DAFFDECFF6FF77
:10048800DDCFF7FFF86A0800F550730AD8B44FEFCC
:1004980002F051EF02F06CEF02F085C0D9FF86C080
:1004A800DAFFDECF16F0DDCF17F0F70E186EFF0E6D
:1004B800196E000E1B6E030E1A6ED5EC0CF016505A
:1004C8001710D8A46AEF02F06CEF02F0AFEF02F059
:1004D80085C0D9FF86C0DAFFDECFF6FFDDCFF7FF94
:1004E800F86A0800F550730AD8B47DEF02F07FEF80
:1004F80002F086EF02F0000E0001916F030E906F7C
:100508008BEF02F0000E0001916F010E906F85C015
:10051800D9FF86C0DAFF9051DE269151DD2283C0D3
:1005280021F084C022F087C0D9FF88C0DAFFDFCF6E
:1005380089F0020EDE26DFCF8AF0000EDD2289C0A8
:10054800D9FF8AC0DAFFDECF23F0DDCF24F03FECFD
:100558000CF0CDEF02F085C0D9FF86C0DAFFDE2AA5
:10056800000EDD22CDEF02F085C0D9FF86C0DAFF8C
:10057800DECFF6FFDDCFF7FFF86A0800F550186EFA
:10058800196A83C01AF084C01BF0B5EC0DF0AFEF08
:1005980002F01200000E0001646F000E6B6F000E77
:1005A8006C6F000E6D6F000E6E6F23C06FF024C06D
:1005B80070F028BEEBEF02F0285007E1250E275C0B
:1005C800D8B0E9EF02F0EBEF02F0F4EF02F0270405
:1005D8002810D8A4F2EF02F0F4EF02F0FBEF02F0DB
:1005E800000E0101646F160E636FF9EF04F06F518E
:1005F8007011D8B402EF03F004EF03F0F9EF04F040
:100608006FC0D9FF70C0DAFFDF50D8A40EEF03F037
:1006180010EF03F012EF03F0F9EF04F06FC0D9FF09
:1006280070C0DAFFDF50716F22EF03F06F4B702B51
:100638006FC0D9FF70C0DAFFDF50716F200E7119DB
:10064800D8B429EF03F02BEF03F01AEF03F0F70EFD
:1006580071252A6E2B6AFF0E2B222B5009E1050EFD
:100668002A5CD8A03AEF03F03CEF03F01AEF03F04E
:10067800000E696F000E6A6F2D0E7119D8A447EF2E
:1006880003F049EF03F055EF03F0010E696F6F4B6C
:10069800702B6FC0D9FF70C0DAFFDF50716F60EF49
:1006A80003F02B0E7119D8A45CEF03F05EEF03F092
:1006B80060EF03F04BEF03F0300E7119D8A467EF29
:1006C80003F069EF03F0EEEF03F06F4B702B6FC090
:1006D800D9FF70C0DAFFDF50716F27502810D8B4E7
:1006E80078EF03F07AEF03F084EF03F0100E271889
:1006F8002810D8A482EF03F084EF03F0DFEF03F0B3
:10070800780E7119D8B48BEF03F08DEF03F096EFE4
:1007180003F0580E7119D8A494EF03F096EF03F084
:10072800DFEF03F0000E286E100E276E6F4B702B54
:100738006FC0D9FF70C0DAFFDF50716F71512A6E38
:100748002B6A200E2A12000E2B129F0E2A242C6EC2
:10075800FF0E2B202D6E2D5007E11A0E2C5CD8B001
:10076800B8EF03F0BAEF03F0C9EF03F071C01AF065
:100778001B6A5CEC15F0C90E1A26100E1A60C7EF3A
:1007880003F0C9EF03F0D7EF03F071C01CF01D6A46
:10079800BBEC12F01C501D10D8A4D5EF03F0D7EF16
:1007A80003F0EEEF03F0010E0001646F6F07D8A0AD
:1007B8007007F9EF04F0010E646F27502810D8A4D1
:1007C800E8EF03F0EAEF03F0EEEF03F0000E286E17
:1007D800080E276E27502810D8A4F5EF03F0F7EF7E
:1007E80003F0FBEF03F0000E286E0A0E276E295067
:1007F800D8B401EF04F003EF04F020EF04F0000197
:100808006951D8A40AEF04F00CEF04F016EF04F0D5
:10081800FF0E656FFF0E666FFF0E676F7F0E686FC6
:1008280025EF04F0000E656F000E666F000E676F0F
:10083800800E686F25EF04F00001656966696769D5
:1008480068696BC060F06CC061F06DC062F06EC02A
:1008580063F071512A6E2B6A200E2A12000E2B1299
:100868009F0E2A242C6EFF0E2B202D6E2D5007E193
:100878001A0E2C5CD8B043EF04F045EF04F050EFAB
:1008880004F071C01AF01B6A5CEC15F01A50C90F1D
:100898000001716F63EF04F0D00E71252A6E2B6A88
:1008A800FF0E2B222B5007E10A0E2A5CD8B05FEF0F
:1008B80004F061EF04F0E1EF04F0300E715F715164
:1008C8002A6E2B6A27502A5C2B50800A2C6E2850DF
:1008D800800A2C58D8A073EF04F075EF04F077EF76
:1008E80004F0E1EF04F06A51D8A47DEF04F07FEF43
:1008F80004F0D5EF04F027C016F028C017F0000E5A
:1009080017BEFF0E186E196E6BC01AF06CC01BF084
:100918006DC01CF06EC01DF053EC12F00001715157
:1009280016246B6F000E17206C6F000E18206D6F69
:10093800000E19206E6F60516B5D61516C596251E8
:100948006D5963516E59D8A0ACEF04F0AEEF04F0C6
:10095800C5EF04F02950D8B4B4EF04F0B6EF04F0B2
:10096800D5EF04F06B51655D6C5166596D5167594F
:100978006E516859D8B0C3EF04F0C5EF04F0D5EF55
:1009880004F065C06BF066C06CF067C06DF068C0BD
:100998006EF0000E0101646F220E636F010E0001FC
:1009A8006A6F6F4B702B6FC0D9FF70C0DAFFDF50D2
:1009B800716F010E646F25EF04F06A51D8A4E7EF58
:1009C80004F0E9EF04F0F9EF04F06951D8B4EFEF5F
:1009D80004F0F1EF04F0F9EF04F06E1F6D1F6C1FC7
:1009E8006B6D000E6C236D236E2325502610D8B432
:1009F80000EF05F002EF05F017EF05F00001645174
:100A0800D8A409EF05F00BEF05F00FEF05F023C0B0
:100A18006FF024C070F025C0D9FF26C0DAFF6FC080
:100A2800DEFF70C0DDFF6BC023F06CC024F06DC02A
:100A380025F06EC026F01200000E0201466F000E6F
:100A48004625D96EDA6A020EDA22000EDF6E462BD0
:100A58001D0E466532EF05F034EF05F023EF05F083
:100A6800A30E1A6EFF0E1B6E29EC11F0B10E1A6E52
:100A7800010E1B6E29EC11F0C00E1A6EFF0E1B6ED4
:100A880029EC11F0610E1A6EFE0E1B6E29EC11F0A6
:100A9800000E1A6E020E1B6E29EC11F0C00E1A6EB3
:100AA800FF0E1B6E29EC11F0000E0201476F6DEF6F
:100AB80005F0B10E02014725D96EDA6A010EDA2275
:100AC800000E4725E16EE26A020EE222DFCFE7FF61
:100AD800472B3C500001C26FC36B010EC227000EAA
:100AE800C323020147510001C46FC56BC251C45DE5
:100AF800C551800AC66FC351800AC659D8A087EF6E
:100B080005F089EF05F05DEF05F0810E1A6EFE0E17
:100B18001B6E29EC11F0000E1A6E020E1B6E29ECEA
:100B280011F0C00E1A6EFF0E1B6E29EC11F00001B9
:100B3800CA51D8B4A2EF05F0A4EF05F0CFEF05F045
:100B4800DFEC10F04250D8A4ACEF05F0AEEF05F0A2
:100B5800B7EF05F0000E3F6E000E0001CA6F42C0ED
:100B6800CBF02FEF07F0000E02014725D96EDA6AA5
:100B7800020EDA224F0EDF6E472B000E4725D96E84
:100B8800DA6A020EDA224B0EDF6E472B000E0001E6
:100B9800CA6F12EF07F0C951D8B4D5EF05F0D7EFF7
:100BA80005F0E9EF06F04250D8A4DDEF05F0DFEFDD
:100BB80005F0E5EF05F0000E3F6E000EC96FB3EFCC
:100BC80005F01E0EA26F020EA36FEC0EA46FFF0EAF
:100BD800A56FC5C1A6F0C6C1A7F0F2EC13F0000ED0
:100BE8000201226F280E0001A26F020EA36FEC0E05
:100BF800A46FFF0EA56FC7C1A6F0C8C1A7F0F2EC9D
:100C080013F0000E02012C6F320E0001A26F020ECB
:100C1800A36FEC0EA46FFF0EA56FC9C1A6F0CAC1E1
:100C2800A7F0F2EC13F0000E0201366F3C0E000143
:100C3800A26F020EA36FEC0EA46FFF0EA56FCBC1BF
:100C4800A6F0CCC1A7F0F2EC13F0000E0201406F41
:100C58004A0E1A6EFF0E1B6E29EC11F01E0E1A6E4C
:100C6800020E1B6E29EC11F0C00E1A6EFF0E1B6EE1
:100C780029EC11F05C0E1A6EFF0E1B6E29EC11F0B8
:100C8800280E1A6E020E1B6E29EC11F0C00E1A6E99
:100C9800FF0E1B6E29EC11F06E0E1A6EFF0E1B6E06
:100CA80029EC11F0320E1A6E020E1B6E29EC11F0AF
:100CB800C00E1A6EFF0E1B6E29EC11F0800E1A6E14
:100CC800FF0E1B6E29EC11F03C0E1A6E020E1B6E05
:100CD80029EC11F0C00E1A6EFF0E1B6E29EC11F0F4
:100CE800000E166E020E176E43EC14F0000E16245A
:100CF8001A6E020E17201B6E1E0E1C6E020E1D6E43
:100D08001E0E166E020E176E43EC14F016C01EF07F
:100D180017C01FF01BEC14F0000E166E020E176EB3
:100D280043EC14F0000E16241A6E020E17201B6EE8
:100D3800280E1C6E020E1D6E280E166E020E176E01
:100D480043EC14F016C01EF017C01FF01BEC14F093
:100D5800000E166E020E176E43EC14F0000E1624E9
:100D68001A6E020E17201B6E320E1C6E020E1D6EBE
:100D7800320E166E020E176E43EC14F016C01EF0FB
:100D880017C01FF01BEC14F0000E166E020E176E43
:100D980043EC14F0000E16241A6E020E17201B6E78
:100DA8003C0E1C6E020E1D6E3C0E166E020E176E69
:100DB80043EC14F016C01EF017C01FF01BEC14F023
:100DC800000E0001C96F12EF07F04050D8B4EFEFE2
:100DD80006F0F1EF06F012EF07F0CB51D8A4F7EFC9
:100DE80006F0F9EF06F005EF07F0000E02014725BF
:100DF800D96EDA6A020EDA22590EDF6E472B10EF2F
:100E080007F0000E02014725D96EDA6A020EDA22CF
:100E18004E0EDF6E02EF07F0000E406E000E00016E
:100E2800C06F020EC16F3DEC0FF0070E1A6EFF0E79
:100E38001B6E29EC11F09D0E1A6E010E1B6E29EC2B
:100E480011F0C00E1A6EFF0E1B6E29EC11F0000E89
:100E58003F6EB3EF05F0000E416E120062C078F0ED
:100E680063C079F064C07AF065C07BF066C07CF03E
:100E780067C07DF068C07EF069C07FF000017FBF69
:100E880048EF07F04BEF07F0010E4CEF07F0000EAC
:100E9800806F8051D8B453EF07F055EF07F065EF36
:100EA80007F07F1F7E1F7D1F7C1F7B1F7A1F791F06
:100EB800786D000E79237A237B237C237D237E2380
:100EC8007F2338BE6AEF07F06CEF07F06DEF07F08D
:100ED8003B9238BE7AEF07F0385006E13704D8B0B5
:100EE80078EF07F07AEF07F080EF07F0000E756FE4
:100EF800010E746F84EF07F037C074F038C075F0D6
:100F080035C076F036C077F08051D8B48EEF07F050
:100F180090EF07F0A7EF07F07607D8A07707805182
:100F2800D8A499EF07F09BEF07F0A1EF07F0000EA8
:100F3800736F2B0E726FA5EF07F0000E736F2D0EF7
:100F4800726F72C080F0000E826F1F0E816F000EEC
:100F58000101886F2DEF08F08107D8A08207690E7C
:100F68008125D96E010E8221DA6E78C016F079C01B
:100F780017F07AC018F07BC019F07CC01AF07DC059
:100F88001BF07EC01CF07FC01DF00A0E1E6E000E06
:100F98001F6E000E206E000E216E000E226E000ED7
:100FA800236E000E246E000E256E3CEC0AF016C06F
:100FB8006AF017C06BF018C06CF019C06DF01AC059
:100FC8006EF01BC06FF01CC070F01DC071F06AC0DD
:100FD80028F06BC029F03CEC15F02850300FDF6E7C
:100FE80000017407D8A075077607D8A0770778C0DE
:100FF80016F079C017F07AC018F07BC019F07CC0E1
:101008001AF07DC01BF07EC01CF07FC01DF00A0ED8
:101018001E6E000E1F6E000E206E000E216E000E5A
:10102800226E000E236E000E246E000E256E78ECE4
:1010380009F016C078F017C079F018C07AF019C016
:101048007BF01AC07CF01BC07DF01CC07EF01DC078
:101058007FF0000182BF39EF08F0825108E1810575
:10106800D8A039EF08F03BEF08F06BEF08F07851A3
:1010780079117A117B117C117D117E117F11D8A411
:1010880048EF08F04AEF08F0B0EF07F075BF57EFE8
:1010980008F0755106E17405D8B055EF08F057EF20
:1010A80008F0B0EF07F077BF62EF08F0775108E17A
:1010B8007605D8A062EF08F064EF08F06BEF08F04F
:1010C8003BB269EF08F06BEF08F0B0EF07F0805122
:1010D800D8B471EF08F073EF08F07EEF08F08107DD
:1010E800D8A08207690E8125D96E010E8221DA6E99
:1010F80080C0DFFF60C028F061C029F0690E81253B
:101108002A6E010E82212B6E76C02CF077C02DF04E
:10111800A6EC11F0120038BE94EF08F096EF08F034
:1011280097EF08F03B9238BEA4EF08F0385006E17C
:101138003704D8B0A2EF08F0A4EF08F0ABEF08F03E
:10114800000E0001756F010E746FAFEF08F037C025
:1011580074F038C075F035C076F036C077F062C0EC
:1011680078F063C079F064C07AF065C07BF066C03F
:101178007CF067C07DF068C07EF069C07FF0000E2B
:101188000001816F1F0E806F000E0101886F28EF2C
:1011980009F08007D8A0810778510F0B826F090EDC
:1011A8008265D9EF08F0DBEF08F0E3EF08F0570E9F
:1011B8008225726F736B000E7323E9EF08F0300E0F
:1011C8008225726F736B000E732372C082F0690EF2
:1011D8008025D96E010E8121DA6E82C0DFFF740787
:1011E800D8A075077607D8A0770778C06AF079C0C5
:1011F8006BF07AC06CF07BC06DF07CC06EF07DC087
:101208006FF07EC070F07FC071F0050E15EF09F029
:10121800D890713370336F336E336D336C336B33F7
:101228006A33E82E0CEF09F06AC078F06BC079F0E9
:101238006CC07AF06DC07BF06EC07CF06FC07DF042
:1012480070C07EF071C07FF0000181BF35EF09F0FA
:10125800815109E1020E805DD8A035EF09F037EF22
:1012680009F067EF09F0785179117A117B117C1137
:101278007D117E117F11D8A444EF09F046EF09F0E3
:10128800CDEF08F075BF53EF09F0755106E174050D
:10129800D8B051EF09F053EF09F0CDEF08F077BF60
:1012A8005EEF09F0775108E17605D8A05EEF09F006
:1012B80060EF09F067EF09F03BB265EF09F067EFFF
:1012C80009F0CDEF08F060C028F061C029F0690E80
:1012D80080252A6E010E81212B6E76C02CF077C0F6
:1012E8002DF0A6EC11F01200000E276E25BE81EF3E
:1012F80009F07FEF09F093EF09F0251E241E231E45
:10130800221E211E201E1F1E1E6C000E1F222022C0
:1013180021222222232224222522010E276E1DBEED
:101328009AEF09F098EF09F0ACEF09F01D1E1C1EAA
:101338001B1E1A1E191E181E171E166C000E1722C9
:10134800182219221A221B221C221D22010E271ADA
:1013580020EE28F0070EDE6AE806FDE21E501F1098
:10136800201021102210231024102510D8B4BFEF0C
:1013780009F0C1EF09F013EF0AF0010E266ECFEF66
:1013880009F0D8901E361F362036213622362336ED
:1013980024362536262A25AED4EF09F0D6EF09F0F3
:1013A800C5EF09F0D890283629362A362B362C3640
:1013B8002D362E362F361E50165C1F5017582050CB
:1013C80018582150195822501A5823501B58245085
:1013D8001C5825501D58D8A0F4EF09F0F6EF09F075
:1013E80007EF0AF01E50165E1F50175A2050185A61
:1013F8002150195A22501A5A23501B5A24501C5A49
:1014080025501D5A2880D890253224322332223282
:10141800213220321F321E32262ED6EF09F02750F5
:10142800D8B419EF0AF01BEF0AF02BEF0AF02F1EC1
:101438002E1E2D1E2C1E2B1E2A1E291E286C000E49
:1014480029222A222B222C222D222E222F2228C08A
:1014580016F029C017F02AC018F02BC019F02CC0BC
:101468001AF02DC01BF02EC01CF02FC01DF012006A
:10147800000E276E1DBE45EF0AF043EF0AF057EF46
:101488000AF01D1E1C1E1B1E1A1E191E181E171ED2
:10149800166C000E1722182219221A221B221C224F
:1014A8001D22010E276E25BE5EEF0AF05CEF0AF0E2
:1014B8006EEF0AF0251E241E231E221E211E201E4A
:1014C8001F1E1E6C000E1F222022212222222322F0
:1014D800242225221E501F10201021102210231014
:1014E80024102510D8B47BEF0AF07DEF0AF0C5EF81
:1014F8000AF0010E266E8BEF0AF0D8901E361F36C2
:10150800203621362236233624362536262A25AE9D
:1015180090EF0AF092EF0AF081EF0AF01E50165C85
:101528001F501758205018582150195822501A582F
:1015380023501B5824501C5825501D58D8A0A7EFDD
:101548000AF0A9EF0AF0B9EF0AF01E50165E1F5014
:10155800175A2050185A2150195A22501A5A2350F3
:101568001B5A24501C5A25501D5AD8902532243213
:1015780023322232213220321F321E32262E92EF9F
:101588000AF02750D8B4CBEF0AF0CDEF0AF0DDEF20
:101598000AF01D1E1C1E1B1E1A1E191E181E171EC1
:1015A800166C000E1722182219221A221B221C223E
:1015B8001D2216C016F017C017F018C018F019C071
:1015C80019F01AC01AF01BC01BF01CC01CF01DC07B
:1015D8001DF01200000E246E000E236E000E226E07
:1015E800000E216EFAEF0AF01C4A1D2A1CC0F6FFF5
:1015F8001DC0F7FFF86A0800F550200AD8B407EFB5
:101608000BF009EF0BF0F8EF0AF01CC0F6FF1DC055
:10161800F7FFF86A0800F5CF1EF0F70E1E241F6EBC
:10162800206AFF0E2022205009E1050E1F5CD8A079
:1016380020EF0BF022EF0BF0F8EF0AF02CEF0BF095
:10164800000E226E010E216E1C4A1D2A63EF0BF05C
:101658001CC0F6FF1DC0F7FFF86A0800F5501E6EA3
:101668001F6A1F50000AD8B43CEF0BF063EF0BF071
:101678001E502B0AD8B428EF0BF0060AD8B424EF72
:101688000BF063EF0BF023C016F024C017F0000E28
:10169800196E0A0E186E2EEC16F01CC0F6FF1DC04F
:1016A800F7FFF86A0800F550165E000E175A300E5C
:1016B8001624236E000E1720246E28EF0BF01CC092
:1016C800F6FF1DC0F7FFF86A0800F5CF1EF0D00E30
:1016D8001E241F6E206AFF0E2022205009E10A0EE8
:1016E8001F5CD8A07AEF0BF07CEF0BF047EF0BF004
:1016F80021502210D8A483EF0BF085EF0BF093EF65
:101708000BF023C01EF024C01FF01E1E1F1E1E4A11
:101718001F2A1EC01CF01FC01DF097EF0BF023C03E
:101728001CF024C01DF0120041EC16F01C50000102
:10173800BD6F4AEC0DF016500001BE6F350E1A6EE3
:10174800FF0E1B6E29EC11F0D20E0001A26F010EE4
:10175800A36FFB0EA46FFF0EA56FBDC0A6F0A76B0D
:10176800F2EC13F0D20E1A6E010E1B6E29EC11F07A
:10177800C00E1A6EFF0E1B6E29EC11F0BB0E1A6E0E
:10178800FE0E1B6E29EC11F0D00E0001A26F010EA7
:10179800A36FFB0EA46FFF0EA56FBEC0A6F0A76BCC
:1017A800F2EC13F0D00E1A6E010E1B6E29EC11F03C
:1017B800C00E1A6EFF0E1B6E29EC11F04250D8B401
:1017C800E8EF0BF0EAEF0BF012EF0CF04204D8A4AC
:1017D800F0EF0BF0F2EF0BF030EF0CF00001BE5120
:1017E800BD19D8A4FAEF0BF0FCEF0BF030EF0CF0BA
:1017F80012EF0CF0010ECA6F2CEF0CF0010EC96F3E
:101808002CEF0CF0010E406E2CEF0CF0D50E1A6E7A
:10181800FE0E1B6E29EC11F030EF0CF03D5000016C
:10182800BB6FBC6BBC51000AD8B41DEF0CF00AEFBB
:101838000CF0BB51430AD8B406EF0CF0040AD8B434
:1018480002EF0CF0150AD8B4FEEF0BF00AEF0CF01B
:10185800050E416E3EEF0CF0000E3F6E000E3A6E24
:10186800000E396EB10E1A6E010E1B6ED8EC14F014
:10187800000E416E120021EEE0F010EE60F0060E50
:10188800DBCFE3FFE806FCE223C06BF024C06CF07A
:1018980000016B516C11D8A454EF0CF056EF0CF00A
:1018A8005AEF0CF0600E6B6F000E6C6F6BC016F089
:1018B8006CC017F043EC14F016C06DF017C06EF052
:1018C80037C06FF038C070F0000170BF6EEF0CF0D9
:1018D80070EF0CF085EF0CF06D516F5D7051800A60
:1018E800256E6E51800A2558D8A07DEF0CF07FEF49
:1018F8000CF081EF0CF085EF0CF06FC06DF070C04C
:101908006EF06DC06FF06EC070F035C067F036C015
:1019180068F09CEF0CF0000E196E200E186E21C0B6
:101928001AF022C01BF0B5EC0DF000016D4B6E2BC8
:1019380067516D5D6E51800A256E6851800A255881
:10194800D8A0A9EF0CF0ABEF0CF08FEF0CF0000E65
:101958006A6F000E696FC5EF0CF06BC0D9FF6CC0E1
:10196800DAFFDF50256E2550186E196A21C01AF06B
:1019780022C01BF0B5EC0DF000016B4B6C2B694BD2
:101988006A2B6F51695D6A51800A256E7051800A11
:101998002558D8A0D2EF0CF0D4EF0CF0B1EF0CF032
:1019A800120016C01DF017C01EF018C01FF019C095
:1019B80020F01A06D8A01B061A2806E11B28D8A46E
:1019C800E8EF0CF0EAEF0CF0F7EF0CF0000E176EF2
:1019D800000E166E49EF0DF01D4A1E2A1F4A202AD6
:1019E8001A06D8A01B061DC0F6FF1EC0F7FFF86A2E
:1019F8000800F5500009D8B404EF0DF006EF0DF01B
:101A080035EF0DF01FC0F6FF20C0F7FFF86A080099
:101A1800F5500009D8B413EF0DF015EF0DF035EFC0
:101A28000DF01A501B10D8B41CEF0DF01EEF0DF07E
:101A380035EF0DF01DC0F6FF1EC0F7FFF86A08006D
:101A4800F5CF1CF01FC0F6FF20C0F7FFF86A0800AA
:101A5800F5501C18D8B433EF0DF035EF0DF0F0EF5A
:101A68000CF01DC0F6FF1EC0F7FFF86A0800F5CF9E
:101A78001CF01FC0F6FF20C0F7FFF86A0800F550F9
:101A88001C5C166E176AD8A01706120083B24FEFB7
:101A98000DF052EF0DF0010E53EF0DF0000E186E21
:101AA800196A183A193AF00E191618500F0B19122C
:101AB800F00E181683B063EF0DF066EF0DF0010E0F
:101AC80067EF0DF0000E1A6E1B6AD8901A361B3697
:101AD800D8901A361B36D8901A361B3680B477EF52
:101AE8000DF07AEF0DF0010E7BEF0DF0000E1C6E7D
:101AF8001D6AD8901C361D36D8901C361D3680B20B
:101B080088EF0DF08BEF0DF0010E8CEF0DF0000E4D
:101B18001E6E1F6AD8901E361F3680B096EF0DF0E5
:101B280099EF0DF0010E9AEF0DF0000E206E216A6C
:101B38001E502010226E1F502110236E1C502210A0
:101B4800246E1D502310256E1A502410266E1B502B
:101B58002510276E18502610166E19502710176E6C
:101B680012001A501B10D8B4BCEF0DF0BEEF0DF0E8
:101B7800C7EF0DF01A501B10D8A4C5EF0DF0C7EF32
:101B88000DF0CCEF0DF01850F0EC16F019EF0EF048
:101B980020EE09F01A50D9261B50DA22DE50DE104A
:101BA800D8B4D9EF0DF0DBEF0DF0F6EF0DF020EE25
:101BB80009F01A50D9261B50DA2210EE03F01A50F9
:101BC800E1261B50E222DE50E65CE650800A206ED9
:101BD800DE50800A2058D8B0F4EF0DF0F6EF0DF083
:101BE80019EF0EF020EE03F01A50D9261B50DA2216
:101BF800DECF1CF0DDCF1DF01AC0D9FF1BC0DAFF05
:101C0800DECF1EF0DDCF1FF01C501E24D96E1D50F4
:101C18001F20DA6E18C0DFFF20EE03F01A50D92615
:101C28001B50DA22DE2A000EDD221200890E1A6EFF
:101C3800010E1B6ED8EC14F0480E1A6E000E1B6EC7
:101C4800D8EC14F0CD0E1A6E010E1B6ED8EC14F001
:101C5800E3EC11F0EFEC0FF0CD0E2E6E010E2F6EAF
:101C6800000E306E000E316E000E336E100E326EA6
:101C780094EC15F02EC0C0F02FC0C1F0890E000101
:101C8800BB6F010EBC6F1CEC12F0480E2E6E000EDE
:101C98002F6E000E306E000E316E000E336E100E79
:101CA800326E94EC15F02EC0C2F02FC0C3F00001C4
:101CB800C051C21907E1C151C319D8A466EF0EF08B
:101CC80068EF0EF072EF0EF0A00E1A6EFE0E1B6E8D
:101CD80029EC11F0020E416E7CEF0EF01F0E1A6E09
:101CE800FF0E1B6E29EC11F0000E3F6E000E416EC8
:101CF80012001AEC16F00B6EC5EF0EF0000E3A6EDD
:101D0800000E396EB10E056E010E066EFAEC14F077
:101D1800010E436E240E0B18D8A495EF0EF097EF22
:101D28000EF0DEEF0EF00B506EEC16F0020E436E66
:101D3800DEEF0EF03ABEAAEF0EF03A5009E1140EAB
:101D4800395CD8A0AAEF0EF0ACEF0EF0AEEF0EF0B3
:101D5800000E436E0B506EEC16F02A0E0B18D8A42A
:101D6800B8EF0EF0BAEF0EF0DEEF0EF0010E3F6E98
:101D7800000E6EEC16F0010E416E000E436EDEEFA3
:101D88000EF04350096E0A6A0A50000AD8B4CFEF21
:101D98000EF0DEEF0EF00950000AD8B482EF0EF014
:101DA800010AD8B48EEF0EF0030AD8B49EEF0EF0F5
:101DB800DEEF0EF012004B0E4724D96EDA6A010EE0
:101DC800DA22000EDF6EABA4ECEF0EF0EEEF0EF0B1
:101DD80002EF0FF04B0E4724D96EDA6A010EDA22B1
:101DE8000101DF8202D802EF0FF00500FA6EED5113
:101DF800FD6EEE51FE6EFF6AFA501200ABA207EFBD
:101E08000FF009EF0FF01DEF0FF04B0E4724D96EBE
:101E1800DA6A010EDA220101DF8402D81DEF0FF021
:101E28000500FA6EEB51FD6EEC51FE6EFF6AFA503A
:101E380012004B0E4724D96EDA6A010EDA22DF50FF
:101E4800D8B429EF0FF02BEF0FF03AEF0FF002D8CC
:101E580038EF0FF00500FA6E0101E951FD6EEA5105
:101E6800FE6EFF6AFA5012003CEF0FF0F1EC15F02D
:101E780012009D0E1A6E010E1B6ED8EC14F0C0C035
:101E8800BBF0C1C0BCF01CEC12F0EE0E1A6EFE0ED8
:101E98001B6E29EC11F0480E1A6E000E1B6E29EC11
:101EA80011F0C00E1A6EFF0E1B6E29EC11F0CE0E4B
:101EB8001A6EFF0E1B6E29EC11F0C0C01AF0C1C0DB
:101EC8001BF029EC11F0C00E1A6EFF0E1B6E29ECE8
:101ED80011F09D0E0001A26F010EA36FDA0EA46F20
:101EE800FF0EA56FC0C0A6F0C1C0A7F048C0A8F0FB
:101EF800A96B49C0AAF0AB6B000EAD6F2A0EAC6F90
:101F0800F2EC13F03F0E1A6EFE0E1B6E29EC11F068
:101F18009D0E1A6E010E1B6E29EC11F0C00E1A6E82
:101F2800FF0E1B6E29EC11F01200B9EC16F09BECB9
:101F380016F0FA0E166E1C0E176ED7EC16F0F28E0F
:101F4800F28CEBEC16F0E40E1A6EFF0E1B6E29EC09
:101F580011F0C2EC16F0B40E1A6EFF0E1B6E29ECCF
:101F680011F0150E0001C86F4B0EC76FBE0EE82E9C
:101F7800FED7C72FFCD7C82FFAD700F053EC16F0BE
:101F8800C20E1A6EFF0E1B6E29EC11F03F50D8B42A
:101F9800D0EF0FF0D2EF0FF0CAEF0FF04150020D63
:101FA800D40EF324D96E010EF420DA6EDECFC7F01A
:101FB800DDCFC8F002D8EBEF0FF00500FA6E000194
:101FC800C751FD6EC851FE6EFF6AFA501200CAEF83
:101FD8000FF051EF00F0000E246EB10E166E010ED8
:101FE800176E43EC14F01650FD0F256E1EEF10F01F
:101FF800920E1A6EFF0E1B6E29EC11F0B10E1A6EBE
:10200800010E1B6E29EC11F0C00E1A6EFF0E1B6E2E
:1020180029EC11F0B10E2524D96EDA6A010EDA2204
:10202800CD0E2424E16EE26A010EE222DFCFE7FF43
:10203800242A252AB10E166E010E176E43EC14F0F1
:10204800FF0E1624206EFF0E1720216E2550226EDB
:10205800236A2050225C21502358D8A036EF10F074
:1020680038EF10F0FCEF0FF0CD0E2424D96EDA6AA9
:10207800010EDA22000EDF6E12001F6EFDEC16F064
:102088001F50D1EC16F062EC16F00009D8B44FEFEF
:1020980010F051EF10F053EF10F042EF10F019501C
:1020A800D1EC16F062EC16F00009D8B45EEF10F02F
:1020B80060EF10F062EF10F042EF10F0F5EC16F060
:1020C8001F500109D1EC16F062EC16F00009D8B4E3
:1020D80070EF10F072EF10F074EF10F042EF10F0A4
:1020E800000EADEC15F01C6E1C501E6E1D6A1AC059
:1020F800D9FF1BC0DAFF1DC0DEFF1EC0DDFF010EC9
:10210800ADEC15F01C6E1C501AC0D9FF1BC0DAFFCD
:10211800DE26000EDD22F9EC16F0120035503610DE
:10212800D8A499EF10F09BEF10F0A1EF10F035C094
:1021380027F036C028F0A7EF10F0FF0E3524276EE1
:10214800FF0E3620286E28BEACEF10F0AEEF10F070
:10215800B0EF10F0B4EF10F0000E286E000E276EEE
:10216800000E266E000E256EC6EF10F0000E196EDA
:10217800200E186E21C01AF022C01BF0B5EC0DF02D
:10218800254A262A2750255C2650800A246E285086
:10219800800A2458D8A0D3EF10F0D5EF10F0BAEF8A
:1021A80010F023C018F0196A21C01AF022C01BF0E1
:1021B800B5EC0DF01200140E176E020E186E400EDC
:1021C80088EC12F01C0E176E000E186E400E88EC8C
:1021D80012F0100E196E200E1A6E000E1B6E400EB5
:1021E80068EC11F020B0FBEF10F0FDEF10F0EDEF10
:1021F80010F0140E176E000E186E400E88EC12F0D8
:10220800200E196EC50E1A6E010E1B6E400E41ECA3
:1022180010F0210E196EC70E1A6E010E1B6E400EBD
:1022280041EC10F0220E196EC90E1A6E010E1B6ECB
:10223800400E41EC10F0230E196ECB0E1A6E010EF3
:102248001B6E400E41EC10F012008D80000E1F6EC8
:10225800000E1E6E55EF11F006EC16F00009D8B40A
:1022680038EF11F03AEF11F030EF11F01E501A2448
:102278001C6E1F501B201D6E1CC0F6FF1DC0F7FFF3
:10228800000EF86E0F0EF76403D00800F55005D065
:10229800F6CFE1FFF7CFE2FFE75085EC16F01E4AD4
:1022A8001F2A1AC016F01BC017F043EC14F0165082
:1022B8001E5C17501F58D8A064EF11F066EF11F09C
:1022C80030EF11F08D9012001C6EFDEC16F01C50D2
:1022D800D1EC16F062EC16F00009D8B476EF11F0E4
:1022E80078EF11F07AEF11F069EF11F01950D1EC95
:1022F80016F062EC16F00009D8B485EF11F087EFFC
:1023080011F089EF11F069EF11F0F5EC16F01C509F
:102318000109D1EC16F062EC16F00009D8B497EF79
:1023280011F099EF11F09BEF11F069EF11F0010E28
:10233800ADEC15F01AC0D9FF1BC0DAFFDF6EF9EC5F
:1023480016F012002DBEABEF11F0ADEF11F0B3EFA8
:1023580011F02CC031F02DC032F0B7EF11F0000EA3
:10236800326E000E316E000E306E000E2F6EC9EF09
:1023780011F0000E196E200E186E28C01AF029C030
:102388001BF0B5EC0DF02F4A302A31502F5C30503D
:10239800800A2E6E3250800A2E58D8A0D6EF11F03F
:1023A800D8EF11F0BDEF11F02AC021F02BC022F0B8
:1023B80028C023F029C024F0B6EC14F01200000E57
:1023C8001E6E000E1F6EF9EF11F0B10E1F24D96EAC
:1023D800DA6A010EDA22890E1E24E16EE26A010E23
:1023E800E222DFCFE7FF1E2A1F2AB10E166E010E6A
:1023F800176E43EC14F0FD0E16241A6EFF0E17200C
:102408001B6E1F501C6E1D6A1A501C5C1B501D58F9
:10241800D8A011EF12F013EF12F0E9EF11F0890EC6
:102428001E24D96EDA6A010EDA22000EDF6E12005F
:10243800BBC0D9FFBCC0DAFFDF500001BD6F000E82
:10244800BF6F010EBE6F33EF12F0BE51BB25D96EC0
:10245800BF51BC21DA6EDF50BD1BBE4BBF2BBBC0CA
:1024680016F0BCC017F043EC14F016500001BE5D26
:102478001750BF59D8A043EF12F045EF12F029EFDB
:1024880012F0480EA26F000EA36FF20EA46FFF0E9B
:10249800A56FBDC0A6F0A76BF2EC13F01200000EFA
:1024A8001E6E000E1F6E000E206E000E216E16A00E
:1024B80060EF12F062EF12F06AEF12F01A501E2667
:1024C8001B501F221C5020221D502122D8901A3642
:1024D8001B361C361D36D890193218321732163270
:1024E8001650171018101910D8A47DEF12F07FEFAE
:1024F80012F05BEF12F01EC016F01FC017F020C0DC
:1025080018F021C019F01200196EFDEC16F01950E0
:10251800D1EC16F062EC16F00009D8B496EF12F080
:1025280098EF12F09AEF12F089EF12F01750D1ECF1
:1025380016F062EC16F00009D8B4A5EF12F0A7EF78
:1025480012F0A9EF12F089EF12F01850D1EC16F042
:1025580062EC16F00009D8B4B4EF12F0B6EF12F03E
:10256800B8EF12F089EF12F0F9EC16F01200010E34
:10257800226E200E1C101E6E000E1D101F6E9F0E68
:102588001E24206EFF0E1F20216E215009E11A0E15
:10259800205CD8A0D2EF12F0D4EF12F0E7EF12F0DF
:1025A800D00E1C241E6EFF0E1D201F6E1F5009E149
:1025B8000A0E1E5CD8A0E3EF12F0E5EF12F0E7EF89
:1025C80012F0000E226E22C01CF01D6A1200000ECE
:1025D800176E4204D8A4F3EF12F0F5EF12F00CEFE7
:1025E80013F0D00E0101B325676F686BFF0E6823E7
:1025F800172AB30E1724D96EDA6A010EDA22DF50D1
:10260800166ED00E1624656F666BFF0E6623172AAA
:102618001750020F3C6EB10E3C24D96EDA6A010ED7
:10262800DA22DF503D6E040E416E1200200EF66E67
:102638002D0EF76E000EF86E01EED4F010EE15F0C8
:102648000900F5CFEEFFE550E150FAE11C0EF66EF9
:102658002E0EF76E000EF86E0900F5CFCBF001EEE6
:1026680000F0D40EEE6AE806FDE10001CA6BC96B02
:1026780000EE35F0150EEE6AE806FDE14A904A9242
:10268800000199EF0FF09D9ABE0E166E1D0E176E83
:10269800D7EC16F0080EB86E900EAB6E240EAC6E2A
:1026A800CF0EAF6E000EB06E1A0E166E2E0E176E8F
:1026B800E1EC16F0020E166E2E0E176EDCEC16F01C
:1026C800080E166E2E0E176EE6EC16F0000E446E0F
:1026D800000E476E000E466E000E456E9D8A120073
:1026E800C7B479EF13F07BEF13F074EF13F0C5B0B4
:1026F80080EF13F082EF13F074EF13F0C5B287EF99
:1027080013F089EF13F074EF13F0C5B48EEF13F0E4
:1027180090EF13F074EF13F0C5B695EF13F097EF41
:1027280013F074EF13F0C5B89CEF13F09EEF13F09D
:1027380074EF13F012009EC033F09FC034F0B4EF72
:1027480013F09CC083F09DC084F0330E0001856FA8
:10275800000E866FA0C087F0A1C088F053EC00F08F
:1027680033C0F6FF34C0F7FFF86A0800F5500009D7
:10277800D8A4C1EF13F0C3EF13F0A5EF13F0000EC8
:1027880000019D6F000E9C6F1200D9EF13F0000E30
:10279800426EEFEF13F0010E426EEFEF13F0000EF2
:1027A8003F6E000E416EEFEF13F00101B251166E4D
:1027B800176A1750000AD8B4E4EF13F0D3EF13F0F8
:1027C8001650420AD8B4CBEF13F0170AD8B4CFEF9B
:1027D80013F0D3EF13F0030E416E1200A60E0001A2
:1027E800AE6F000EAF6FA2C0B0F0A3C0B1F0000E84
:1027F800B46F000EB36F000EBA6F000EB96FB00E53
:102808009C6F000E9D6FA4C09EF0A5C09FF0AE0EF9
:10281800A06F000EA16F9FEC13F00001B351A22529
:10282800D96EB451A321DA6E000EDF6E12001CC0FF
:1028380023F01DC024F01AC021F01BC022F035EF90
:1028480014F023C0D9FF24C0DAFFDF50206E234ADA
:10285800242A21C0D9FF22C0DAFF20C0DFFF214A85
:10286800222A1E06D8A01F061E2806E11F28D8A463
:1028780040EF14F042EF14F025EF14F0120016C0E8
:1028880018F017C019F04BEF14F0164A172A16C0A3
:10289800F6FF17C0F7FF000EF86E0F0EF76403D0AF
:1028A8000800F55005D0F6CFE1FFF7CFE2FFE7507B
:1028B8000009D8A462EF14F064EF14F049EF14F0A3
:1028C8001850165C166E19501758176E120001C072
:1028D80003F002C004F073EF14F0014A022A01C0A9
:1028E800F6FF02C0F7FF000EF86E0F0EF76403D074
:1028F8000800F55005D0F6CFE1FFF7CFE2FFE7502B
:102908000009D8A48AEF14F08CEF14F071EF14F0DA
:102918000350015C016E04500258026E1200010E51
:102928001A6E200E16181710D8B49DEF14F09FEFEA
:1029380014F0B2EF14F0F70E1624186EFF0E1720DD
:10294800196E195009E1050E185CD8A0AEEF14F005
:10295800B0EF14F0B2EF14F0000E1A6E1AC016F0B1
:10296800176A1200000E276E000E266EC7EF14F0CD
:1029780025C018F0196A23C01AF024C01BF0B5EC62
:102988000DF0264A272A26502124D96E27502220C6
:10299800DA6EDF50256E2550D8A4D5EF14F0D7EFA6
:1029A80014F0BCEF14F01200000E1D6E000E1C6E29
:1029B800E8EF14F01C501A24D96E1D501B20DA6E53
:1029C800000EDF6E1C4A1D2A1AC016F01BC017F035
:1029D80043EC14F016501C5C17501D58D8A0F7EFA4
:1029E80014F0F9EF14F0DEEF14F01200000E086E88
:1029F800000E076E0AEF15F007500524D96E08502F
:102A08000620DA6E000EDF6E074A082A05C001F0BC
:102A180006C002F06BEC14F00150075C0250085835
:102A2800D8A019EF15F01BEF15F000EF15F0120004
:102A3800000E8D6E000E8C6E000E896E000E8A6E72
:102A4800000E8B6E060E966E92689368BF0E946E9B
:102A58009568F80E0F013B6F240E3A6F3F0E396FE1
:102A6800060E3C6F280E386F000E616EF18E120054
:102A780029BE49EF15F0295006E12804D8B047EFE0
:102A880015F049EF15F057EF15F028C02AF029C0C6
:102A98002BF02A1E2B1E2A4A2B2A2AC028F02BC0CC
:102AA80029F05BEF15F028C028F029C029F01200A2
:102AB8009F0E1A241C6EFF0E1B201D6E1D5007E171
:102AC8001A0E1C5CD8B06BEF15F06DEF15F073EFB4
:102AD80015F05F0E1A141A6E1B6A77EF15F01AC0FC
:102AE8001AF01BC01BF01200200E1610186E000EF4
:102AF8001710196E9F0E18241A6EFF0E19201B6EE0
:102B08001B500AE11A0E1A5CD8A08DEF15F090EF51
:102B180015F0010E91EF15F0000E166E176A1200EF
:102B28002EC023F02FC024F030C025F031C026F08D
:102B380032C027F033C028F0010E296ECEEC02F027
:102B480023C02EF024C02FF025C030F026C031F06D
:102B58001200176E74EC13F00BEC17F0AFEC16F0D4
:102B68000009D8B4BAEF15F0BCEF15F0B2EF15F0C4
:102B7800C9CF18F009EC17F01750A5EC16F018504B
:102B880012009F0E1624186EFF0E1720196E19508A
:102B98000AE11A0E185CD8A0D4EF15F0D7EF15F09B
:102BA800010ED8EF15F0000E166E176A1200D00E3F
:102BB8001624186EFF0E1720196E19500AE10A0E16
:102BC800185CD8A0EAEF15F0EDEF15F0010EEEEF66
:102BD80015F0000E166E176A1200530E4724D96EB0
:102BE800DA6A010EDA22AECFDFFF472A070E476402
:102BF80000EF16F002EF16F004EF16F0000E476E25
:102C0800452A1200000E166E9EA80DEF16F00FEF63
:102C180016F018EF16F0ACAA14EF16F016EF16F02F
:102C280018EF16F0010E166E165012009EAA1FEF2E
:102C380016F021EF16F01AEF16F0000E446EABA254
:102C480028EF16F02AEF16F02CEF16F0AB98AB88A9
:102C5800AE50120016501802F3CF1AF0F4CF1BF042
:102C680016501902F3501B2617501802F3501B2652
:102C78001AC016F01BC017F0120067C116F068C121
:102C880017F0000E196E0A0E186E2EEC16F00101E0
:102C9800655116241C6E665117201D6E1200190E00
:102CA800176E0F0E186E400E88EC12F0140E176E89
:102CB800020E186E400E88EC12F0120074EC13F03D
:102CC800C5BC69EF16F06CEF16F0010E6DEF16F04B
:102CD800000E1200016EB10E3924D96E010E3A2091
:102CE800DA6E01C0DFFF394A3A2A12003F50D8B4E1
:102CF80080EF16F082EF16F07AEF16F0010E416EB3
:102D08001200166E16C0ADFFACA28DEF16F08FEF55
:102D180016F088EF16F01200F42C341C9227D625F2
:0D2D28003017400A286E756C6C2900FF0FF3
:102D3600000EC76E080EC66E000EC56E270EC86E54
:102D4600C68A1200166E16B002D0C59A01D0C58A80
:102D560074EC13F0C5881200C7B0B4EF16F0B7EFE5
:102D660016F0010EB8EF16F0000E120007EC17F081
:102D76001CEC15F0CAEC16F047EC13F01200140E1A
:102D8600176E800E186E400E88EC12F01200700E50
:102D9600D36E040ED26E000E9B6E1200166E74EC8D
:102DA60013F016C0C9FF120016C0EFF117C0F0F1FC
:102DB600120016C0EBF117C0ECF1120016C0EDF1CF
:102DC60017C0EEF1120016C0E9F117C0EAF11200C1
:102DD600000E416E000E436E1200176E175085EC02
:102DE60016F0120074EC13F0C582120074EC13F0A6
:102DF600C584120074EC13F0C5801200AB98AB8842
:102E06001200F1EC15F01200D09E1200C5961200C9
:072E1600C586120012000145
:10FE3E000041636B6E6F776C6564676D656E7420E1
:10FE4E006672616D6520746F2062652073656E74D5
:10FE5E003A200061636B206672616D652062656693
:10FE6E006F726520636F6D6D616E642066696C6C78
:10FE7E003A200061636B206672616D652061667465
:10FE8E00657220636F6D6D616E642066696C6C3A8D
:10FE9E0020004E6F204572726F7221204672616D86
:10FEAE00652069732076616C69642E0A0061646452
:10FEBE00726573732066726F6D206861726477610C
:10FECE0072652069733A00436F6D6D616E642063D5
:10FEDE006861726163746572206572726F720A0076
:10FEEE00526573756C74206F6620584F522063688C
:10FEFE0065636B73756D3A20004920616D207468DF
:10FF0E00652066696E616C206672616D653A200AC5
:10FF1E00004572726F72212049676E6F726520669E
:10FF2E0072616D652E0A006164647265737320667A
:10FF3E00726F6D206672616D653A20005265737541
:10FF4E006C74206F6620636831202020200052657B
:10FF5E0073756C74206F6620636832202020200039
:10FF6E00526573756C74206F662063683320202091
:10FF7E002000526573756C74206F662063683420A0
:10FF8E002020200052656365697665642066726183
:10FF9E006D653A20007265636569766564206672E8
:10FFAE00616D653A2000526573657420444F4E456D
:10FFBE0021200A00414443207265616479210A00C0
:10FFCE0061636B206672616D653A2000257325634F
:10FFDE0025632563000048656C6C6F210A0025308F
:10FFEE002E347800252E3278006C6C730025640058
:01FFFE000002
:020000040020DA
:08000000FFFFFFFFFFFFFFFF00
:020000040030CA
:0E000000FF381F3CFFBF81FF0FC00FE00F4015
:00000001FF
