:0400000051EF00F0CC
:100008004A82FACF0CF0FBCF0DF0E1CF0EF0E2CF31
:100018000FF0D9CF10F0DACF11F0F6CF12F0F7CFFA
:1000280013F0F8CF14F0F5CF15F0F2AC1EEF00F096
:1000380020EF00F03BEF00F09DAA25EF00F027EF3E
:1000480000F03BEF00F09EAA2CEF00F02EEF00F03E
:100058003BEF00F002D83BEF00F00500FA6E01011B
:10006800F151FD6EF251FE6EFF6AFA50120015C092
:10007800F5FF14C0F8FF13C0F7FF12C0F6FF11C058
:10008800DAFF10C0D9FF0FC0E2FF0EC0E1FF0DC0BC
:10009800FBFF0CC0FAFF4A92110093EF13F085C0E2
:1000A800D9FF86C0DAFFDECFF6FFDDCFF7FFF86AAB
:1000B8000800F550250AD8A464EF00F066EF00F0B8
:1000C800B8EF02F085C0D9FF86C0DAFFDE2A000E3D
:1000D800DD22000E366E000E356E35C039F03768F9
:1000E8003868000E00018F6F000E8E6FA7EF00F0CA
:1000F800398285C0D9FF86C0DAFFDE2A000EDD22EC
:10010800A7EF00F0000E8F6F010E8E6FA7EF00F0C3
:1001180085C0D9FF86C0DAFFDECFF6FFDDCFF7FF57
:10012800F86A0800F550896F8A6B8A51000AD8B4BA
:10013800A0EF00F086EF00F08951300AD8B47CEFC8
:1001480000F086EF00F08E518F11D8B4AEEF00F0BA
:10015800B0EF00F08CEF00F085C0D9FF86C0DAFF61
:10016800DECFF6FFDDCFF7FFF86A0800F5502E0A5C
:10017800D8A4C1EF00F0C3EF00F033EF01F0000E98
:10018800386E000E376E85C0D9FF86C0DAFFDE2ACA
:10019800000EDD2285C0D9FF86C0DAFFDECFF6FF6C
:1001A800DDCFF7FFF86A0800F5502A0AD8A4DFEF78
:1001B80000F0E1EF00F0FEEF00F085C0D9FF86C047
:1001C800DAFFDE2A000EDD2287C0D9FF88C0DAFFF9
:1001D800DFCF89F0020EDE26DFCF8AF0000EDD22A7
:1001E80089C0D9FF8AC0DAFFDECF37F0DDCF38F01B
:1001F80033EF01F085C0D9FF86C0DAFFDECF1CF0EF
:10020800DDCF1DF0DEEC0AF01CC037F01DC038F061
:1002180015EF01F085C0D9FF86C0DAFFDE2A000E8F
:10022800DD2285C0D9FF86C0DAFFDECFF6FFDDCF3D
:10023800F7FFF86A0800F5CF89F0D00E000189258C
:100248008A6F8B6BFF0E8B238B5109E10A0E8A5D37
:10025800D8A031EF01F033EF01F00EEF01F085C0C7
:10026800D9FF86C0DAFFDECFF6FFDDCFF7FFF86AE9
:100278000800F550630AD8A444EF01F046EF01F0F6
:1002880069EF01F085C0D9FF86C0DAFFDE2A000ECB
:10029800DD2287C0D9FF88C0DAFFDFCF89F0020EE0
:1002A800DE26DFCF8AF0000EDD2289C0D9FF8AC0A2
:1002B800DAFFDF508D6F83C021F084C022F08DC03B
:1002C80023F03AEC10F0CDEF02F085C0D9FF86C0DC
:1002D800DAFFDECF9AF0DDCF9BF09AC0F6FF9BC025
:1002E800F7FFF86A0800F550640AD8B47EEF01F009
:1002F80080EF01F08FEF01F09AC0F6FF9BC0F7FF87
:10030800F86A0800F550690AD8A48DEF01F08FEF5C
:1003180001F0D2EF01F087C0D9FF88C0DAFFDFCF44
:1003280089F0020EDE26DFCF8AF0000EDD2289C0BA
:10033800D9FF8AC0DAFFDECF92F0DDCF93F0000E4E
:1003480093BFFF0E946F956F966F976F986F996F25
:10035800010E9A25896F000E9B218A6F85C0D9FFEF
:1003680086C0DAFF89C0DEFF8AC0DDFF83C060F087
:1003780084C061F092C062F093C063F094C064F0EE
:1003880095C065F096C066F097C067F098C068F0B1
:1003980099C069F022EC07F0CDEF02F09AC0F6FFA1
:1003A8009BC0F7FFF86A0800F550780AD8A4DFEF79
:1003B80001F0E1EF01F03EEF02F087C0D9FF88C0FD
:1003C800DAFFDFCF89F0020EDE26DFCF8AF0000EDB
:1003D800DD2289C0D9FF8AC0DAFFDECF8BF0DDCFFE
:1003E8008CF08BC092F08CC093F0946B956B966BED
:1003F800976B986B996B010E9A25896F000E9B215C
:100408008A6F85C0D9FF86C0DAFF89C0DEFF8AC03F
:10041800DDFF27EF02F083C060F084C061F092C076
:1004280062F093C063F094C064F095C065F096C024
:1004380066F097C067F098C068F099C069F07FECE3
:1004480008F0CDEF02F09AC0F6FF9BC0F7FFF86AFC
:100458000800F550896F8A6B8A51000AD8B437EFC3
:1004680002F03EEF02F08951780AD8B40FEF02F09B
:100478003EEF02F085C0D9FF86C0DAFFDECFF6FF77
:10048800DDCFF7FFF86A0800F550730AD8B44FEFCC
:1004980002F051EF02F06CEF02F085C0D9FF86C080
:1004A800DAFFDECF16F0DDCF17F0F40E186EFF0E70
:1004B800196E000E1B6E030E1A6EC6EC0CF0165069
:1004C8001710D8A46AEF02F06CEF02F0AFEF02F059
:1004D80085C0D9FF86C0DAFFDECFF6FFDDCFF7FF94
:1004E800F86A0800F550730AD8B47DEF02F07FEF80
:1004F80002F086EF02F0000E0001916F030E906F7C
:100508008BEF02F0000E0001916F010E906F85C015
:10051800D9FF86C0DAFF9051DE269151DD2283C0D3
:1005280021F084C022F087C0D9FF88C0DAFFDFCF6E
:1005380089F0020EDE26DFCF8AF0000EDD2289C0A8
:10054800D9FF8AC0DAFFDECF23F0DDCF24F030EC0C
:100558000CF0CDEF02F085C0D9FF86C0DAFFDE2AA5
:10056800000EDD22CDEF02F085C0D9FF86C0DAFF8C
:10057800DECFF6FFDDCFF7FFF86A0800F550186EFA
:10058800196A83C01AF084C01BF011EC0EF0AFEFAB
:1005980002F01200000E0001646F000E6B6F000E77
:1005A8006C6F000E6D6F000E6E6F23C06FF024C06D
:1005B80070F028BEEBEF02F0285007E1250E275C0B
:1005C800D8B0E9EF02F0EBEF02F0F4EF02F0270405
:1005D8002810D8A4F2EF02F0F4EF02F0FBEF02F0DB
:1005E800000E0101506F160E4F6FF9EF04F06F51B6
:1005F8007011D8B402EF03F004EF03F0F9EF04F040
:100608006FC0D9FF70C0DAFFDF50D8A40EEF03F037
:1006180010EF03F012EF03F0F9EF04F06FC0D9FF09
:1006280070C0DAFFDF50716F22EF03F06F4B702B51
:100638006FC0D9FF70C0DAFFDF50716F200E7119DB
:10064800D8B429EF03F02BEF03F01AEF03F0F70EFD
:1006580071252A6E2B6AFF0E2B222B5009E1050EFD
:100668002A5CD8A03AEF03F03CEF03F01AEF03F04E
:10067800000E696F000E6A6F2D0E7119D8A447EF2E
:1006880003F049EF03F055EF03F0010E696F6F4B6C
:10069800702B6FC0D9FF70C0DAFFDF50716F60EF49
:1006A80003F02B0E7119D8A45CEF03F05EEF03F092
:1006B80060EF03F04BEF03F0300E7119D8A467EF29
:1006C80003F069EF03F0EEEF03F06F4B702B6FC090
:1006D800D9FF70C0DAFFDF50716F27502810D8B4E7
:1006E80078EF03F07AEF03F084EF03F0100E271889
:1006F8002810D8A482EF03F084EF03F0DFEF03F0B3
:10070800780E7119D8B48BEF03F08DEF03F096EFE4
:1007180003F0580E7119D8A494EF03F096EF03F084
:10072800DFEF03F0000E286E100E276E6F4B702B54
:100738006FC0D9FF70C0DAFFDF50716F71512A6E38
:100748002B6A200E2A12000E2B129F0E2A242C6EC2
:10075800FF0E2B202D6E2D5007E11A0E2C5CD8B001
:10076800B8EF03F0BAEF03F0C9EF03F071C01AF065
:100778001B6A7AEC15F0C90E1A26100E1A60C7EF1C
:1007880003F0C9EF03F0D7EF03F071C01CF01D6A46
:10079800DCEC12F01C501D10D8A4D5EF03F0D7EFF5
:1007A80003F0EEEF03F0010E0001646F6F07D8A0AD
:1007B8007007F9EF04F0010E646F27502810D8A4D1
:1007C800E8EF03F0EAEF03F0EEEF03F0000E286E17
:1007D800080E276E27502810D8A4F5EF03F0F7EF7E
:1007E80003F0FBEF03F0000E286E0A0E276E295067
:1007F800D8B401EF04F003EF04F020EF04F0000197
:100808006951D8A40AEF04F00CEF04F016EF04F0D5
:10081800FF0E656FFF0E666FFF0E676F7F0E686FC6
:1008280025EF04F0000E656F000E666F000E676F0F
:10083800800E686F25EF04F00001656966696769D5
:1008480068696BC060F06CC061F06DC062F06EC02A
:1008580063F071512A6E2B6A200E2A12000E2B1299
:100868009F0E2A242C6EFF0E2B202D6E2D5007E193
:100878001A0E2C5CD8B043EF04F045EF04F050EFAB
:1008880004F071C01AF01B6A7AEC15F01A50C90FFF
:100898000001716F63EF04F0D00E71252A6E2B6A88
:1008A800FF0E2B222B5007E10A0E2A5CD8B05FEF0F
:1008B80004F061EF04F0E1EF04F0300E715F715164
:1008C8002A6E2B6A27502A5C2B50800A2C6E2850DF
:1008D800800A2C58D8A073EF04F075EF04F077EF76
:1008E80004F0E1EF04F06A51D8A47DEF04F07FEF43
:1008F80004F0D5EF04F027C016F028C017F0000E5A
:1009080017BEFF0E186E196E6BC01AF06CC01BF084
:100918006DC01CF06EC01DF074EC12F00001715136
:1009280016246B6F000E17206C6F000E18206D6F69
:10093800000E19206E6F60516B5D61516C596251E8
:100948006D5963516E59D8A0ACEF04F0AEEF04F0C6
:10095800C5EF04F02950D8B4B4EF04F0B6EF04F0B2
:10096800D5EF04F06B51655D6C5166596D5167594F
:100978006E516859D8B0C3EF04F0C5EF04F0D5EF55
:1009880004F065C06BF066C06CF067C06DF068C0BD
:100998006EF0000E0101506F220E4F6F010E000124
:1009A8006A6F6F4B702B6FC0D9FF70C0DAFFDF50D2
:1009B800716F010E646F25EF04F06A51D8A4E7EF58
:1009C80004F0E9EF04F0F9EF04F06951D8B4EFEF5F
:1009D80004F0F1EF04F0F9EF04F06E1F6D1F6C1FC7
:1009E8006B6D000E6C236D236E2325502610D8B432
:1009F80000EF05F002EF05F017EF05F00001645174
:100A0800D8A409EF05F00BEF05F00FEF05F023C0B0
:100A18006FF024C070F025C0D9FF26C0DAFF6FC080
:100A2800DEFF70C0DDFF6BC023F06CC024F06DC02A
:100A380025F06EC026F01200000E0201486F280E45
:100A48004825D96EDA6A020EDA22000EDF6E482BCC
:100A58001D0E486532EF05F034EF05F023EF05F081
:100A6800000E496F000E496F4AEF05F0B30E020100
:100A78004925D96EDA6A010EDA22280E4925E16E77
:100A8800E26A020EE222DFCFE7FF492B3A5000016B
:100A9800C46FC56B010EC427000EC523020149515E
:100AA8000001C66FC76BC451C65DC751800AC86FC5
:100AB800C551800AC859D8A064EF05F066EF05F063
:100AC8003AEF05F04050D8B46CEF05F06EEF05F042
:100AD800A0EF05F087EC10F04250D8A476EF05F0AF
:100AE80078EF05F080EF05F0000E3D6E000E406EC9
:100AF80042C0CBF01FEF07F0280E02014925D96E3E
:100B0800DA6A020EDA226F0EDF6E492B280E4925AB
:100B1800D96EDA6A020EDA226B0EDF6E492B280EC6
:100B28004925D96EDA6A020EDA222A0EDF6E492BBF
:100B3800000E406E02EF07F03F50D8B4A6EF05F064
:100B4800A8EF05F0D1EF06F04250D8A4AEEF05F0BB
:100B5800B0EF05F0B6EF05F0000E3D6E000E3F6EEB
:100B68007CEF05F0000EA26F020EA36FE90EA46FD2
:100B7800FF0EA56FC7C1A6F0C8C1A7F010EC14F00E
:100B8800000E0201046F0A0E0001A26F020EA36F8D
:100B9800E90EA46FFF0EA56FC9C1A6F0CAC1A7F0E0
:100BA80010EC14F0000E02010E6F140E0001A26F7B
:100BB800020EA36FE90EA46FFF0EA56FCBC1A6F0BE
:100BC800CCC1A7F010EC14F0000E0201186F1E0E35
:100BD8000001A26F020EA36FE90EA46FFF0EA56FAE
:100BE800CDC1A6F0CEC1A7F010EC14F0000E0201A2
:100BF800226F730E1A6EFF0E1B6E11EC11F0000EB1
:100C08001A6E020E1B6E11EC11F0C70E1A6EFF0E53
:100C18001B6E11EC11F0850E1A6EFF0E1B6E11EC97
:100C280011F00A0E1A6E020E1B6E11EC11F0C70EAF
:100C38001A6EFF0E1B6E11EC11F0970E1A6EFF0E56
:100C48001B6E11EC11F0140E1A6E020E1B6E11ECD5
:100C580011F0C70E1A6EFF0E1B6E11EC11F0A90EE3
:100C68001A6EFF0E1B6E11EC11F01E0E1A6E020E9C
:100C78001B6E11EC11F0C70E1A6EFF0E1B6E11ECF5
:100C880011F0280E166E020E176E61EC14F0280E85
:100C980016241A6E020E17201B6E000E1C6E020E12
:100CA8001D6E000E166E020E176E61EC14F016C063
:100CB8001EF017C01FF039EC14F0280E166E020E45
:100CC800176E61EC14F0280E16241A6E020E172007
:100CD8001B6E0A0E1C6E020E1D6E0A0E166E020E9A
:100CE800176E61EC14F016C01EF017C01FF039EC37
:100CF80014F0280E166E020E176E61EC14F0280E12
:100D080016241A6E020E17201B6E140E1C6E020E8D
:100D18001D6E140E166E020E176E61EC14F016C0DE
:100D28001EF017C01FF039EC14F0280E166E020ED4
:100D3800176E61EC14F0280E16241A6E020E172096
:100D48001B6E1E0E1C6E020E1D6E1E0E166E020E01
:100D5800176E61EC14F016C01EF017C01FF039ECC6
:100D680014F0280E166E020E176E61EC14F0280EA1
:100D780016240201466F020E1720476F46C2A2F0E2
:100D880047C2A3F0F80E0001A46FFF0EA56F10EC88
:100D980014F0000E3F6E02EF07F03E50D8B4D7EFC4
:100DA80006F0D9EF06F002EF07F0CB51D8A4DFEF39
:100DB80006F0E1EF06F0EDEF06F0280E02014925F6
:100DC800D96EDA6A020EDA22790EDF6E492BF8EF55
:100DD80006F0280E02014925D96EDA6A020EDA22D7
:100DE8006E0EDF6EEAEF06F0280E4925D96EDA6A34
:100DF800020EDA222A0EDF6E000E3E6E280E000169
:100E0800C26F020EC36F38EC0FF0300E1A6EFF0E71
:100E18001B6E11EC11F09F0E1A6E010E1B6E11EC79
:100E280011F0C70E1A6EFF0E1B6E11EC11F0000EBA
:100E38003D6E7CEF05F0000E416E120062C078F046
:100E480063C079F064C07AF065C07BF066C07CF05E
:100E580067C07DF068C07EF069C07FF000017FBF89
:100E680038EF07F03BEF07F0010E3CEF07F0000EFC
:100E7800806F8051D8B443EF07F045EF07F055EF86
:100E880007F07F1F7E1F7D1F7C1F7B1F7A1F791F26
:100E9800786D000E79237A237B237C237D237E23A0
:100EA8007F2338BE5AEF07F05CEF07F05DEF07F0DD
:100EB800399238BE6AEF07F0385006E13704D8B0E7
:100EC80068EF07F06AEF07F070EF07F0000E756F34
:100ED800010E746F74EF07F037C074F038C075F006
:100EE80035C076F036C077F08051D8B47EEF07F081
:100EF80080EF07F097EF07F07607D8A077078051C3
:100F0800D8A489EF07F08BEF07F091EF07F0000EF8
:100F1800736F2B0E726F95EF07F0000E736F2D0E27
:100F2800726F72C080F0000E826F1F0E816F000E0C
:100F38000101766F1DEF08F08107D8A08207570ED0
:100F48008125D96E010E8221DA6E78C016F079C03B
:100F580017F07AC018F07BC019F07CC01AF07DC079
:100F68001BF07EC01CF07FC01DF00A0E1E6E000E26
:100F78001F6E000E206E000E216E000E226E000EF7
:100F8800236E000E246E000E256E2CEC0AF016C09F
:100F98006AF017C06BF018C06CF019C06DF01AC079
:100FA8006EF01BC06FF01CC070F01DC071F06AC0FD
:100FB80028F06BC029F05AEC15F02850300FDF6E7E
:100FC80000017407D8A075077607D8A0770778C0FE
:100FD80016F079C017F07AC018F07BC019F07CC001
:100FE8001AF07DC01BF07EC01CF07FC01DF00A0EF9
:100FF8001E6E000E1F6E000E206E000E216E000E7B
:10100800226E000E236E000E246E000E256E68EC14
:1010180009F016C078F017C079F018C07AF019C036
:101028007BF01AC07CF01BC07DF01CC07EF01DC098
:101038007FF0000182BF29EF08F0825108E18105A5
:10104800D8A029EF08F02BEF08F05BEF08F07851F3
:1010580079117A117B117C117D117E117F11D8A431
:1010680038EF08F03AEF08F0A0EF07F075BF47EF48
:1010780008F0755106E17405D8B045EF08F047EF60
:1010880008F0A0EF07F077BF52EF08F0775108E1BA
:101098007605D8A052EF08F054EF08F05BEF08F09F
:1010A80039B259EF08F05BEF08F0A0EF07F0805174
:1010B800D8B461EF08F063EF08F06EEF08F081072D
:1010C800D8A08207570E8125D96E010E8221DA6ECB
:1010D80080C0DFFF60C028F061C029F0570E81256D
:1010E8002A6E010E82212B6E76C02CF077C02DF06F
:1010F8008EEC11F0120038BE84EF08F086EF08F08D
:1011080087EF08F0399238BE94EF08F0385006E1BE
:101118003704D8B092EF08F094EF08F09BEF08F08E
:10112800000E0001756F010E746F9FEF08F037C055
:1011380074F038C075F035C076F036C077F062C00C
:1011480078F063C079F064C07AF065C07BF066C05F
:101158007CF067C07DF068C07EF069C07FF0000E4B
:101168000001816F1F0E806F000E0101766F18EF6E
:1011780009F08007D8A0810778510F0B826F090EFC
:101188008265C9EF08F0CBEF08F0D3EF08F0570EEF
:101198008225726F736B000E7323D9EF08F0300E3F
:1011A8008225726F736B000E732372C082F0570E24
:1011B8008025D96E010E8121DA6E82C0DFFF7407A7
:1011C800D8A075077607D8A0770778C06AF079C0E5
:1011D8006BF07AC06CF07BC06DF07CC06EF07DC0A7
:1011E8006FF07EC070F07FC071F0050E05EF09F05A
:1011F800D890713370336F336E336D336C336B3318
:101208006A33E82EFCEF08F06AC078F06BC079F01A
:101218006CC07AF06DC07BF06EC07CF06FC07DF062
:1012280070C07EF071C07FF0000181BF25EF09F02A
:10123800815109E1020E805DD8A025EF09F027EF62
:1012480009F057EF09F0785179117A117B117C1167
:101258007D117E117F11D8A434EF09F036EF09F023
:10126800BDEF08F075BF43EF09F0755106E174054D
:10127800D8B041EF09F043EF09F0BDEF08F077BFB0
:101288004EEF09F0775108E17605D8A04EEF09F046
:1012980050EF09F057EF09F039B255EF09F057EF61
:1012A80009F0BDEF08F060C028F061C029F0570EC2
:1012B80080252A6E010E81212B6E76C02CF077C016
:1012C8002DF08EEC11F01200000E276E25BE71EF86
:1012D80009F06FEF09F083EF09F0251E241E231E85
:1012E800221E211E201E1F1E1E6C000E1F222022E1
:1012F80021222222232224222522010E276E1DBE0E
:101308008AEF09F088EF09F09CEF09F01D1E1C1EFA
:101318001B1E1A1E191E181E171E166C000E1722E9
:10132800182219221A221B221C221D22010E271AFA
:1013380020EE28F0070EDE6AE806FDE21E501F10B8
:10134800201021102210231024102510D8B4AFEF3C
:1013580009F0B1EF09F003EF0AF0010E266EBFEFB6
:1013680009F0D8901E361F3620362136223623360D
:1013780024362536262A25AEC4EF09F0C6EF09F033
:10138800B5EF09F0D890283629362A362B362C3670
:101398002D362E362F361E50165C1F5017582050EB
:1013A80018582150195822501A5823501B582450A5
:1013B8001C5825501D58D8A0E4EF09F0E6EF09F0B5
:1013C800F7EF09F01E50165E1F50175A2050185A92
:1013D8002150195A22501A5A23501B5A24501C5A69
:1013E80025501D5A2880D8902532243223322232A3
:1013F800213220321F321E32262EC6EF09F0275026
:10140800D8B409EF0AF00BEF0AF01BEF0AF02F1E11
:101418002E1E2D1E2C1E2B1E2A1E291E286C000E69
:1014280029222A222B222C222D222E222F2228C0AA
:1014380016F029C017F02AC018F02BC019F02CC0DC
:101448001AF02DC01BF02EC01CF02FC01DF012008A
:10145800000E276E1DBE35EF0AF033EF0AF047EF96
:101468000AF01D1E1C1E1B1E1A1E191E181E171EF2
:10147800166C000E1722182219221A221B221C226F
:101488001D22010E276E25BE4EEF0AF04CEF0AF022
:101498005EEF0AF0251E241E231E221E211E201E7A
:1014A8001F1E1E6C000E1F22202221222222232210
:1014B800242225221E501F10201021102210231034
:1014C80024102510D8B46BEF0AF06DEF0AF0B5EFD1
:1014D8000AF0010E266E7BEF0AF0D8901E361F36F2
:1014E800203621362236233624362536262A25AEBE
:1014F80080EF0AF082EF0AF071EF0AF01E50165CD6
:101508001F501758205018582150195822501A584F
:1015180023501B5824501C5825501D58D8A097EF0D
:101528000AF099EF0AF0A9EF0AF01E50165E1F5054
:10153800175A2050185A2150195A22501A5A235013
:101548001B5A24501C5A25501D5AD8902532243233
:1015580023322232213220321F321E32262E82EFCF
:101568000AF02750D8B4BBEF0AF0BDEF0AF0CDEF70
:101578000AF01D1E1C1E1B1E1A1E191E181E171EE1
:10158800166C000E1722182219221A221B221C225E
:101598001D2216C016F017C017F018C018F019C091
:1015A80019F01AC01AF01BC01BF01CC01CF01DC09B
:1015B8001DF01200000E246E000E236E000E226E27
:1015C800000E216EEAEF0AF01C4A1D2A1CC0F6FF25
:1015D8001DC0F7FFF86A0800F550200AD8B4F7EFE5
:1015E8000AF0F9EF0AF0E8EF0AF01CC0F6FF1DC098
:1015F800F7FFF86A0800F5CF1EF0F70E1E241F6EDD
:10160800206AFF0E2022205009E1050E1F5CD8A099
:1016180010EF0BF012EF0BF0E8EF0AF01CEF0BF0F5
:10162800000E226E010E216E1C4A1D2A53EF0BF08C
:101638001CC0F6FF1DC0F7FFF86A0800F5501E6EC3
:101648001F6A1F50000AD8B42CEF0BF053EF0BF0B1
:101658001E502B0AD8B418EF0BF0060AD8B414EFB2
:101668000BF053EF0BF023C016F024C017F0000E58
:10167800196E0A0E186E4CEC16F01CC0F6FF1DC051
:10168800F7FFF86A0800F550165E000E175A300E7C
:101698001624236E000E1720246E18EF0BF01CC0C2
:1016A800F6FF1DC0F7FFF86A0800F5CF1EF0D00E50
:1016B8001E241F6E206AFF0E2022205009E10A0E08
:1016C8001F5CD8A06AEF0BF06CEF0BF037EF0BF054
:1016D80021502210D8A473EF0BF075EF0BF083EFB5
:1016E8000BF023C01EF024C01FF01E1E1F1E1E4A32
:1016F8001F2A1EC01CF01FC01DF087EF0BF023C06F
:101708001CF024C01DF012005FEC16F01C50000104
:10171800BF6FA6EC0DF016500001C06F5E0E1A6E7A
:10172800FF0E1B6E11EC11F0D40E0001A26F010E1A
:10173800A36FFB0EA46FFF0EA56FBFC0A6F0A76B2B
:1017480010EC14F0D40E1A6E010E1B6E11EC11F091
:10175800C70E1A6EFF0E1B6E11EC11F0E40E1A6E16
:10176800FE0E1B6E11EC11F0D20E0001A26F010EDD
:10177800A36FFB0EA46FFF0EA56FC0C0A6F0A76BEA
:1017880010EC14F0D20E1A6E010E1B6E11EC11F053
:10179800C70E1A6EFF0E1B6E11EC11F04250D8B432
:1017A800D8EF0BF0DAEF0BF002EF0CF04204D8A4FC
:1017B800E0EF0BF0E2EF0BF020EF0CF00001C0516E
:1017C800BF19D8A4EAEF0BF0ECEF0BF020EF0CF008
:1017D80002EF0CF0010E406E1CEF0CF0010E3F6E94
:1017E8001CEF0CF0010E3E6E1CEF0CF0FE0E1A6E94
:1017F800FE0E1B6E11EC11F020EF0CF03B500001B7
:10180800BD6FBE6BBE51000AD8B40DEF0CF0FAEFF5
:101818000BF0BD51670AD8B4F2EF0BF0150AD8B433
:10182800EEEF0BF0060AD8B4F6EF0BF0FAEF0BF078
:10183800050E416E2FEF0CF0000E3D6E000E0101FB
:10184800526F000E516FB30E1A6E010E1B6EF6EC3E
:1018580014F0000E416E120021EEE2F010EE60F07E
:10186800060EDBCFE3FFE806FCE223C06BF024C0E2
:101878006CF000016B516C11D8A445EF0CF047EFE8
:101888000CF04BEF0CF0600E6B6F000E6C6F6BC0C2
:1018980016F06CC017F061EC14F016C06DF017C0AC
:1018A8006EF037C06FF038C070F0000170BF5FEFA6
:1018B8000CF061EF0CF076EF0CF06D516F5D70512C
:1018C800800A256E6E51800A2558D8A06EEF0CF05C
:1018D80070EF0CF072EF0CF076EF0CF06FC06DF05B
:1018E80070C06EF06DC06FF06EC070F035C067F0FC
:1018F80036C068F08DEF0CF0000E196E200E186ED1
:1019080021C01AF022C01BF011EC0EF000016D4B43
:101918006E2B67516D5D6E51800A256E6851800A85
:101928002558D8A09AEF0CF09CEF0CF080EF0CF043
:10193800000E6A6F000E696FB6EF0CF06BC0D9FF2E
:101948006CC0DAFFDF50256E2550186E196A21C069
:101958001AF022C01BF011EC0EF000016B4B6C2B3F
:10196800694B6A2B6F51695D6A51800A256E705107
:10197800800A2558D8A0C3EF0CF0C5EF0CF0A2EFF1
:101988000CF0120016C01DF017C01EF018C01FF092
:1019980019C020F01A06D8A01B061A2806E11B2831
:1019A800D8A4D9EF0CF0DBEF0CF0E8EF0CF0000E48
:1019B800176E000E166E3AEF0DF01D4A1E2A1F4ACA
:1019C800202A1A06D8A01B061DC0F6FF1EC0F7FF66
:1019D800F86A0800F5500009D8B4F5EF0CF0F7EFF5
:1019E8000CF026EF0DF01FC0F6FF20C0F7FFF86AD5
:1019F8000800F5500009D8B404EF0DF006EF0DF01B
:101A080026EF0DF01A501B10D8B40DEF0DF00FEFA4
:101A18000DF026EF0DF01DC0F6FF1EC0F7FFF86AA7
:101A28000800F5CF1CF01FC0F6FF20C0F7FFF86ACA
:101A38000800F5501C18D8B424EF0DF026EF0DF06F
:101A4800E1EF0CF01DC0F6FF1EC0F7FFF86A0800B2
:101A5800F5CF1CF01FC0F6FF20C0F7FFF86A08009A
:101A6800F5501C5C166E176AD8A0170612008B0E6C
:101A78001A6E010E1B6EF6EC14F0480E1A6E000E6C
:101A88001B6EF6EC14F0CF0E1A6E010E1B6EF6EC00
:101A980014F0B30E1A6E010E1B6ECBEC11F0B30EE0
:101AA8001A6E010E1B6ED1EC10F0CF0E2E6E010EC9
:101AB8002F6E000E306E000E316E000E336E100E5B
:101AC800326EB2EC15F02EC0C2F02FC0C3F08B0EF0
:101AD8000001BD6F010EBE6F3DEC12F0480E2E6E78
:101AE800000E2F6E000E306E000E316E000E336E3B
:101AF800100E326EB2EC15F02EC0C4F02FC0C5F037
:101B08000001C251C41907E1C351C519D8A48FEF08
:101B18000DF091EF0DF09BEF0DF0C90E1A6EFE0E51
:101B28001B6E11EC11F0020E416EA5EF0DF0480E80
:101B38001A6EFF0E1B6E11EC11F0000E3D6E000EBA
:101B4800416E120083B2ABEF0DF0AEEF0DF0010E57
:101B5800AFEF0DF0000E186E196A183A193AF00E28
:101B6800191618500F0B1912F00E181683B0BFEF84
:101B78000DF0C2EF0DF0010EC3EF0DF0000E1A6E5E
:101B88001B6AD8901A361B36D8901A361B36D8904E
:101B98001A361B3680B4D3EF0DF0D6EF0DF0010ED8
:101BA800D7EF0DF0000E1C6E1D6AD8901C361D363E
:101BB800D8901C361D3680B2E4EF0DF0E7EF0DF03B
:101BC800010EE8EF0DF0000E1E6E1F6AD8901E364B
:101BD8001F3680B0F2EF0DF0F5EF0DF0010EF6EFC5
:101BE8000DF0000E206E216A1E502010226E1F502C
:101BF8002110236E1C502210246E1D502310256EB8
:101C08001A502410266E1B502510276E18502610C7
:101C1800166E19502710176E12001A501B10D8B4E0
:101C280018EF0EF01AEF0EF023EF0EF01A501B10FB
:101C3800D8A421EF0EF023EF0EF028EF0EF0185085
:101C48000FEC17F075EF0EF020EE09F01A50D926B8
:101C58001B50DA22DE50DE10D8B435EF0EF037EF25
:101C68000EF052EF0EF020EE09F01A50D9261B5054
:101C7800DA2210EE03F01A50E1261B50E222DE5061
:101C8800E65CE650800A206EDE50800A2058D8B004
:101C980050EF0EF052EF0EF075EF0EF020EE03F05D
:101CA8001A50D9261B50DA22DECF1CF0DDCF1DF0EA
:101CB8001AC0D9FF1BC0DAFFDECF1EF0DDCF1FF040
:101CC8001C501E24D96E1D501F20DA6E18C0DFFF6D
:101CD80020EE03F01A50D9261B50DA22DE2A000E15
:101CE800DD22120038EC16F00B6EC0EF0EF0000E7D
:101CF8000101526F000E516FB30E056E010E066E94
:101D080018EC15F0010E436E730E0B18D8A48FEF64
:101D18000EF091EF0EF0D9EF0EF00B5080EC16F0AC
:101D2800020E436ED9EF0EF0010152BFA5EF0EF07F
:101D3800525109E1140E515DD8A0A5EF0EF0A7EF9E
:101D48000EF0A9EF0EF0000E436E0B5080EC16F06B
:101D58002A0E0B18D8A4B3EF0EF0B5EF0EF0D9EF9A
:101D68000EF0010E3D6E000E80EC16F0010E416E75
:101D7800000E436ED9EF0EF04350096E0A6A0A50FE
:101D8800000AD8B4CAEF0EF0D9EF0EF00950000AD5
:101D9800D8B47BEF0EF0010AD8B488EF0EF0030A2E
:101DA800D8B498EF0EF0D9EF0EF01200370E472492
:101DB800D96EDA6A010EDA22000EDF6EABA4E7EF05
:101DC8000EF0E9EF0EF0FDEF0EF0370E4724D96E56
:101DD800DA6A010EDA220101DF8202D8FDEF0EF085
:101DE8000500FA6EEF51FD6EF051FE6EFF6AFA5073
:101DF8001200ABA202EF0FF004EF0FF018EF0FF094
:101E0800370E4724D96EDA6A010EDA220101DF841F
:101E180002D818EF0FF00500FA6EED51FD6EEE5185
:101E2800FE6EFF6AFA501200370E4724D96EDA6A3E
:101E3800010EDA22DF50D8B424EF0FF026EF0FF0AE
:101E480035EF0FF002D833EF0FF00500FA6E0101FD
:101E5800EB51FD6EEC51FE6EFF6AFA50120037EF3F
:101E68000FF00FEC16F01200770E1A6E010E1B6EB3
:101E7800F6EC14F09F0E1A6E010E1B6EF6EC14F0C1
:101E8800C2C01AF0C3C01BF004EC12F0770E0001B8
:101E9800BD6F010EBE6F3DEC12F0170E1A6EFF0EED
:101EA8001B6E11EC11F0480E1A6E000E1B6E11EC31
:101EB80011F0C70E1A6EFF0E1B6E11EC11F09F0E7B
:101EC8000001A26F010EA36FC90EA46FFF0EA56FCC
:101ED800000EA76F730EA66F770EA86F010EA96F7D
:101EE80048C0AAF0AB6B49C0ACF0AD6B000EAF6F49
:101EF8002A0EAE6F10EC14F0A70E1A6EFE0E1B6EB3
:101F080011EC11F09F0E1A6E010E1B6E11EC11F000
:101F1800C70E1A6EFF0E1B6E11EC11F01200D8ECF2
:101F280016F0BAEC16F0EC0E166E1C0E176EF6ECE8
:101F380016F0F28EF28C0AEC17F0E10E1A6EFF0E14
:101F48001B6E11EC11F0E1EC16F0BB0E1A6EFF0ED1
:101F58001B6E11EC11F0150E0001CA6F4B0EC96F04
:101F6800BE0EE82EFED7C92FFCD7CA2FFAD700F02D
:101F780071EC16F0D50E1A6EFF0E1B6E11EC11F0F7
:101F88003D50D8B4CAEF0FF0CCEF0FF0C4EF0FF00C
:101F98004150020DD60EF324D96E010EF420DA6EEC
:101FA800DECFC9F0DDCFCAF002D8E5EF0FF00500AB
:101FB800FA6E0001C951FD6ECA51FE6EFF6AFA50F1
:101FC8001200C4EF0FF051EF00F01F6E1CEC17F079
:101FD8001F50F0EC16F08DEC16F00009D8B4F7EFAE
:101FE8000FF0F9EF0FF0FBEF0FF0EAEF0FF01950D9
:101FF800F0EC16F08DEC16F00009D8B406EF10F0EE
:1020080008EF10F00AEF10F0EAEF0FF014EC17F0F9
:102018001F500109F0EC16F08DEC16F00009D8B449
:1020280018EF10F01AEF10F01CEF10F0EAEF0FF0B5
:10203800000ECBEC15F01C6E1C501E6E1D6A1AC0EB
:10204800D9FF1BC0DAFF1DC0DEFF1EC0DDFF010E79
:10205800CBEC15F01C6E1C501AC0D9FF1BC0DAFF60
:10206800DE26000EDD2218EC17F01200355036106F
:10207800D8A441EF10F043EF10F049EF10F035C04D
:1020880027F036C028F04FEF10F0FF0E3524276EEA
:10209800FF0E3620286E28BE54EF10F056EF10F0D1
:1020A80058EF10F05CEF10F0000E286E000E276E4F
:1020B800000E266E000E256E6EEF10F0000E196EE3
:1020C800200E186E21C01AF022C01BF011EC0EF081
:1020D800254A262A2750255C2650800A246E285037
:1020E800800A2458D8A07BEF10F07DEF10F062EF43
:1020F80010F023C018F0196A21C01AF022C01BF092
:1021080011EC0EF01200140E176E020E186E400E2F
:10211800A9EC12F01C0E176E000E186E400EA9ECFA
:1021280012F0100E196E200E1A6E000E1B6E400E65
:1021380050EC11F020B0A3EF10F0A5EF10F095EFE0
:1021480010F0140E176E000E186E400EA9EC12F067
:10215800200E196EC70E1A6E010E1B6E400EE9ECAA
:102168000FF0210E196EC90E1A6E010E1B6E400E6D
:10217800E9EC0FF0220E196ECB0E1A6E010E1B6ED3
:10218800400EE9EC0FF0230E196ECD0E1A6E010EFB
:102198001B6E400EE9EC0FF01200000E206E1AC004
:1021A80016F01BC017F061EC14F01650FD0F216EED
:1021B800EEEF10F021501A24D96E000E1B20DA6EB3
:1021C800CF0E2024E16EE26A010EE222DFCFE7FFA4
:1021D800202A212A1AC016F01BC017F061EC14F04F
:1021E800FF0E16241C6EFF0E17201D6E21501E6E4A
:1021F8001F6A1C501E5C1D501F58D8A006EF11F016
:1022080008EF11F0DEEF10F0CF0E2024D96EDA6A55
:10221800010EDA22000EDF6E12008D80000E1F6E96
:10222800000E1E6E3DEF11F024EC16F00009D8B434
:1022380020EF11F022EF11F018EF11F01E501A24C0
:102248001C6E1F501B201D6E1CC0F6FF1DC0F7FF23
:10225800000EF86E0F0EF76403D00800F55005D095
:10226800F6CFE1FFF7CFE2FFE750A4EC16F01E4AE5
:102278001F2A1AC016F01BC017F061EC14F0165094
:102288001E5C17501F58D8A04CEF11F04EEF11F0FC
:1022980018EF11F08D9012001C6E1CEC17F01C50FA
:1022A800F0EC16F08DEC16F00009D8B45EEF11F0E2
:1022B80060EF11F062EF11F051EF11F01950F0ECEE
:1022C80016F08DEC16F00009D8B46DEF11F06FEF31
:1022D80011F071EF11F051EF11F014EC17F01C50E0
:1022E8000109F0EC16F08DEC16F00009D8B47FEF78
:1022F80011F081EF11F083EF11F051EF11F0010EA1
:10230800CBEC15F01AC0D9FF1BC0DAFFDF6E18EC52
:1023180017F012002DBE93EF11F095EF11F09BEF1F
:1023280011F02CC031F02DC032F09FEF11F0000EEB
:10233800326E000E316E000E306E000E2F6EB1EF51
:1023480011F0000E196E200E186E28C01AF029C060
:102358001BF011EC0EF02F4A302A31502F5C305010
:10236800800A2E6E3250800A2E58D8A0BEEF11F087
:10237800C0EF11F0A5EF11F02AC021F02BC022F018
:1023880028C023F029C024F0D4EC14F01200000E69
:10239800206E000E216EE1EF11F021501A24D96E43
:1023A800000E1B20DA6E8B0E2024E16EE26A010E0D
:1023B800E222DFCFE7FF202A212A1AC016F01BC02D
:1023C80017F061EC14F0FD0E16241C6EFF0E17209A
:1023D8001D6E21501E6E1F6A1C501E5C1D501F581A
:1023E800D8A0F9EF11F0FBEF11F0D1EF11F08B0E3F
:1023F8002024D96EDA6A010EDA22000EDF6E12008E
:10240800000E206E000E216E1AEF12F021501A24D1
:10241800D96E000E1B20DA6E770E2024E16EE26A78
:10242800010EE222DFCFE7FF202A212A1AC016F088
:102438001BC017F061EC14F0FF0E16241C6EFF0E83
:1024480017201D6E21501E6E1F6A1C501E5C1D50E9
:102458001F58D8A032EF12F034EF12F00AEF12F042
:10246800770E2024D96EDA6A010EDA22000EDF6EAA
:102478001200BDC0D9FFBEC0DAFFDF500001BF6F38
:10248800000EC16F010EC06F54EF12F0C051BD2590
:10249800D96EC151BE21DA6EDF50BF1BC04BC12BB4
:1024A800BDC016F0BEC017F061EC14F01650000164
:1024B800C05D1750C159D8A064EF12F066EF12F052
:1024C8004AEF12F0480EA26F000EA36FEF0EA46F32
:1024D800FF0EA56FBFC0A6F0A76B10EC14F012009A
:1024E800000E1E6E000E1F6E000E206E000E216E76
:1024F80016A081EF12F083EF12F08BEF12F01A5052
:102508001E261B501F221C5020221D502122D8900D
:102518001A361B361C361D36D89019321832173227
:1025280016321650171018101910D8A49EEF12F072
:10253800A0EF12F07CEF12F01EC016F01FC017F0CB
:1025480020C018F021C019F01200196E1CEC17F009
:102558001950F0EC16F08DEC16F00009D8B4B7EF6E
:1025680012F0B9EF12F0BBEF12F0AAEF12F0175009
:10257800F0EC16F08DEC16F00009D8B4C6EF12F0A6
:10258800C8EF12F0CAEF12F0AAEF12F01850F0ECF0
:1025980016F08DEC16F00009D8B4D5EF12F0D7EF8D
:1025A80012F0D9EF12F0AAEF12F018EC17F012009F
:1025B800010E226E200E1C101E6E000E1D101F6EC6
:1025C8009F0E1E24206EFF0E1F20216E215009E150
:1025D8001A0E205CD8A0F3EF12F0F5EF12F008EF16
:1025E80013F0D00E1C241E6EFF0E1D201F6E1F50F0
:1025F80009E10A0E1E5CD8A004EF13F006EF13F0F1
:1026080008EF13F0000E226E22C01CF01D6A1200A3
:10261800000E176E4204D8A414EF13F016EF13F04F
:102628002DEF13F0D00E0101B525556F566BFF0E37
:102638005623172AB50E1724D96EDA6A010EDA2244
:10264800DF50166ED00E1624536F546BFF0E5423B2
:10265800172A1750020F3A6EB30E3A24D96EDA6A67
:10266800010EDA22DF503B6E040E416E12009D9A75
:10267800B40E166E1D0E176EF6EC16F0080EB86E38
:10268800900EAB6E240EAC6ECF0EAF6E000EB06E19
:10269800580E166E2E0E176E00EC17F0400E166EC2
:1026A8002E0E176EFBEC16F0460E166E2E0E176EDB
:1026B80005EC17F0000E446E000E476E000E466ED5
:1026C800000E456E9D8A1200C7B46DEF13F06FEFD0
:1026D80013F068EF13F0C5B074EF13F076EF13F052
:1026E80068EF13F0C5B27BEF13F07DEF13F068EFDE
:1026F80013F0C5B482EF13F084EF13F068EF13F012
:10270800C5B689EF13F08BEF13F068EF13F0C5B877
:1027180090EF13F092EF13F068EF13F012005E0ED3
:10272800F66E2D0EF76E000EF86E01EED6F010EE76
:1027380015F00900F5CFEEFFE550E150FAE15A0E29
:10274800F66E2E0EF76E000EF86E0900F5CFCBF080
:1027580001EE00F0D60EEE6AE806FDE100EE35F077
:10276800150EEE6AE806FDE14A904A92000193EFE1
:102778000FF09EC033F09FC034F0D2EF13F09CC02E
:1027880083F09DC084F0330E0001856F000E866FC4
:10279800A0C087F0A1C088F053EC00F033C0F6FF6A
:1027A80034C0F7FFF86A0800F5500009D8A4DFEF35
:1027B80013F0E1EF13F0C3EF13F0000E00019D6F6B
:1027C800000E9C6F1200F7EF13F0000E426E0DEF33
:1027D80014F0010E426E0DEF14F0000E3D6E000E67
:1027E800416E0DEF14F00101B451166E176A1750BF
:1027F800000AD8B402EF14F0F1EF13F01650620A91
:10280800D8B4E9EF13F0170AD8B4EDEF13F0F1EFED
:1028180013F0030E416E1200A60E0001B06F000EF9
:10282800B16FA2C0B2F0A3C0B3F0000EB66F000E35
:10283800B56F000EBC6F000EBB6FB20E9C6F000E22
:102848009D6FA4C09EF0A5C09FF0B00EA06F000EB3
:10285800A16FBDEC13F00001B551A225D96EB65198
:10286800A321DA6E000EDF6E12001CC023F01DC01B
:1028780024F01AC021F01BC022F053EF14F023C03B
:10288800D9FF24C0DAFFDF50206E234A242A21C052
:10289800D9FF22C0DAFF20C0DFFF214A222A1E0604
:1028A800D8A01F061E2806E11F28D8A45EEF14F042
:1028B80060EF14F043EF14F0120016C018F017C0C0
:1028C80019F069EF14F0164A172A16C0F6FF17C058
:1028D800F7FF000EF86E0F0EF76403D00800F550EE
:1028E80005D0F6CFE1FFF7CFE2FFE7500009D8A403
:1028F80080EF14F082EF14F067EF14F01850165CB4
:10290800166E19501758176E120001C003F002C056
:1029180004F091EF14F0014A022A01C0F6FF02C048
:10292800F7FF000EF86E0F0EF76403D00800F5509D
:1029380005D0F6CFE1FFF7CFE2FFE7500009D8A4B2
:10294800A8EF14F0AAEF14F08FEF14F00350015C15
:10295800016E04500258026E1200010E1A6E200E0B
:1029680016181710D8B4BBEF14F0BDEF14F0D0EF61
:1029780014F0F70E1624186EFF0E1720196E195052
:1029880009E1050E185CD8A0CCEF14F0CEEF14F0D6
:10299800D0EF14F0000E1A6E1AC016F0176A120063
:1029A800000E276E000E266EE5EF14F025C018F015
:1029B800196A23C01AF024C01BF011EC0EF0264A45
:1029C800272A26502124D96E27502220DA6EDF507C
:1029D800256E2550D8A4F3EF14F0F5EF14F0DAEFD4
:1029E80014F01200000E1D6E000E1C6E06EF15F09E
:1029F8001C501A24D96E1D501B20DA6E000EDF6E93
:102A08001C4A1D2A1AC016F01BC017F061EC14F0FE
:102A180016501C5C17501D58D8A015EF15F017EF6D
:102A280015F0FCEF14F01200000E086E000E076E91
:102A380028EF15F007500524D96E08500620DA6EE5
:102A4800000EDF6E074A082A05C001F006C002F032
:102A580089EC14F00150075C02500858D8A037EFF1
:102A680015F039EF15F01EEF15F01200000E8D6EFF
:102A7800000E8C6E000E896E000E8A6E000E8B6E34
:102A8800060E966E92689368BF0E946E9568F80E5F
:102A98000F013B6F240E3A6F3F0E396F060E3C6FE5
:102AA800280E386F000E616EF18E120029BE67EF96
:102AB80015F0295006E12804D8B065EF15F067EF46
:102AC80015F075EF15F028C02AF029C02BF02A1E42
:102AD8002B1E2A4A2B2A2AC028F02BC029F079EF6E
:102AE80015F028C028F029C029F012009F0E1A24DA
:102AF8001C6EFF0E1B201D6E1D5007E11A0E1C5C7C
:102B0800D8B089EF15F08BEF15F091EF15F05F0E47
:102B18001A141A6E1B6A95EF15F01AC01AF01BC02A
:102B28001BF01200200E1610186E000E1710196EEA
:102B38009F0E18241A6EFF0E19201B6E1B500AE1F7
:102B48001A0E1A5CD8A0ABEF15F0AEEF15F0010E17
:102B5800AFEF15F0000E166E176A12002EC023F0A4
:102B68002FC024F030C025F031C026F032C027F045
:102B780033C028F0010E296ECEEC02F023C02EF0EF
:102B880024C02FF025C030F026C031F01200176E97
:102B980068EC13F02AEC17F0CEEC16F00009D8B464
:102BA800D8EF15F0DAEF15F0D0EF15F0C9CF18F01F
:102BB80028EC17F01750C4EC16F0185012009F0EAE
:102BC8001624186EFF0E1720196E19500AE11A0EF6
:102BD800185CD8A0F2EF15F0F5EF15F0010EF6EF3E
:102BE80015F0000E166E176A1200D00E1624186E15
:102BF800FF0E1720196E19500AE10A0E185CD8A0AA
:102C080008EF16F00BEF16F0010E0CEF16F0000EA1
:102C1800166E176A12003F0E4724D96EDA6A010E43
:102C2800DA22AECFDFFF472A070E47641EEF16F001
:102C380020EF16F022EF16F0000E476E452A12001C
:102C4800000E166E9EA82BEF16F02DEF16F036EF3D
:102C580016F0ACAA32EF16F034EF16F036EF16F095
:102C6800010E166E165012009EAA3DEF16F03FEFA9
:102C780016F038EF16F0000E446EABA246EF16F0D1
:102C880048EF16F04AEF16F0AB98AB88AE5012003A
:102C980016501802F3CF1AF0F4CF1BF01650190291
:102CA800F3501B2617501802F3501B261AC016F0B3
:102CB8001BC017F0120055C116F056C117F0000ED0
:102CC800196E0A0E186E4CEC16F0010153511624B9
:102CD8001C6E545117201D6E1200190E176E0F0E20
:102CE800186E400EA9EC12F0140E176E020E186E34
:102CF800400EA9EC12F01200016EB30E010151252D
:102D0800D96E010E5221DA6E01C0DFFF514B522BF2
:102D1800120068EC13F0C5BC94EF16F097EF16F0AC
:102D2800010E98EF16F0000E12003D50D8B49FEF38
:102D380016F0A1EF16F099EF16F0010E416E120091
:102D4800166E16C0ADFFACA2ACEF16F0AEEF16F0E3
:102D5800A7EF16F01200322D761ACE271826101774
:0B2D6800400A286E756C6C2900FF0FFC
:102D7400000EC76E080EC66E000EC56E270EC86E16
:102D8400C68A1200166E16B002D0C59A01D0C58A42
:102D940068EC13F0C5881200C7B0D3EF16F0D6EF75
:102DA40016F0010ED7EF16F0000E120026EC17F005
:102DB4003AEC15F0E9EC16F03BEC13F01200140EAB
:102DC400176E800E186E400EA9EC12F01200700EF1
:102DD400D36E040ED26E000E9B6E1200166E68EC5B
:102DE40013F016C0C9FF120016C0F1F117C0F2F1BA
:102DF400120016C0EDF117C0EEF1120016C0EFF18B
:102E040017C0F0F1120016C0EBF117C0ECF112007C
:102E1400000E416E000E436E1200176E1750A4ECA4
:102E240016F0120068EC13F0C582120068EC13F07F
:102E3400C584120068EC13F0C5801200AB98AB880F
:102E440012000FEC16F01200D09E1200C59612006C
:072E5400C586120012000107
:10FEA6000041636B6E6F776C6564676D656E742079
:10FEB6006672616D6520746F2062652073656E746D
:10FEC6003A20004E6F204572726F72212046726191
:10FED6006D652069732076616C69642E0A00616421
:10FEE60064726573732066726F6D206861726477E1
:10FEF6006172652069733A00436F6D6D616E6420AF
:10FF0600636861726163746572206572726F720AEA
:10FF160000526573756C74206F6620584F522063CB
:10FF26006865636B73756D3A20004920616D2074B6
:10FF360068652066696E616C206672616D653A203F
:10FF46000A004572726F72212049676E6F726520D2
:10FF56006672616D652E0A00616464726573732052
:10FF660066726F6D206672616D653A200052657328
:10FF7600756C74206F662063683120202020005243
:10FF86006573756C74206F662063683220202020AC
:10FF960000526573756C74206F6620636833202089
:10FFA600202000526573756C74206F662063683478
:10FFB6002020202000526573657420444F4E452151
:10FFC600200A002563257325632563256300004108
:10FFD6004443207265616479210A0048656C6C6F40
:10FFE600210A0025302E347800252E3278006C6CDC
:09FFF60073002A000025640000DC
:020000040020DA
:08000000FFFFFFFFFFFFFFFF00
:020000040030CA
:0E000000FF381F3CFFBF81FF0FC00FE00F4015
:00000001FF
