:0400000089EF00F094
:100008004A82FACF0CF0FBCF0DF0E1CF0EF0E2CF31
:100018000FF0D9CF10F0DACF11F0F6CF12F0F7CFFA
:1000280013F0F8CF14F0F5CF15F0F2AA1EEF00F098
:1000380020EF00F02BEF00F0F2A425EF00F027EFFF
:1000480000F02BEF00F0E1EC1EF073EF00F0F2ACE3
:1000580030EF00F032EF00F073EF00F09DAA37EFB9
:1000680000F039EF00F04FEF00F09EAA3EEF00F0ED
:1000780040EF00F04FEF00F002D84DEF00F0050020
:10008800FA6E0101BF51FD6EC051FE6EFF6AFA5053
:10009800120073EF00F0A0A254EF00F056EF00F04A
:1000A80061EF00F0A1A25BEF00F05DEF00F061EFFF
:1000B80000F06DEC1EF073EF00F09DA066EF00F00D
:1000C80068EF00F073EF00F09EA06DEF00F06FEFA7
:1000D80000F073EF00F08BEC1EF073EF00F015C02A
:1000E800F5FF14C0F8FF13C0F7FF12C0F6FF11C0E8
:1000F800DAFF10C0D9FF0FC0E2FF0EC0E1FF0DC04C
:0E010800FBFF0CC0FAFF4A92110075EF1AF0CF
:101000000001000000496E76616C696420636861CC
:101010006E6E656C2E202F6E00257325632563256B
:101020006300002455252E326425630025302E34BC
:101030007800252E3258006C6C73004F4B004E4FD9
:10104000005953002573000A000086C0D9FF87C0ED
:10105000DAFFDECFF6FFDDCFF7FFF86A0800F550C4
:10106000250AD8A436EF08F038EF08F0A5EF0AF00B
:1010700086C0D9FF87C0DAFFDE2A000EDD22000E0F
:10108000366E000E356E35C03DF037683868000E9C
:101090000001906F000E8F6F79EF08F03D8286C0DF
:1010A000D9FF87C0DAFFDE2A000EDD2279EF08F0D3
:1010B000000E906F010E8F6F79EF08F086C0D9FF98
:1010C00087C0DAFFDECFF6FFDDCFF7FFF86A080052
:1010D000F5508A6F8B6B8B51000AD8B472EF08F011
:1010E00058EF08F08A51300AD8B44EEF08F058EFA4
:1010F00008F08F519011D8B480EF08F082EF08F01B
:101100005EEF08F086C0D9FF87C0DAFFDECFF6FFBA
:10111000DDCFF7FFF86A0800F5502E0AD8A493EF48
:1011200008F095EF08F005EF09F0000E386E000E9C
:10113000376E86C0D9FF87C0DAFFDE2A000EDD22B7
:1011400086C0D9FF87C0DAFFDECFF6FFDDCFF7FF1D
:10115000F86A0800F5502A0AD8A4B1EF08F0B3EFF6
:1011600008F0D0EF08F086C0D9FF87C0DAFFDE2A8A
:10117000000EDD2288C0D9FF89C0DAFFDFCF8AF0F8
:10118000020EDE26DFCF8BF0000EDD228AC0D9FFF3
:101190008BC0DAFFDECF37F0DDCF38F005EF09F096
:1011A00086C0D9FF87C0DAFFDECF1CF0DDCF1DF08F
:1011B000A2EC12F01CC037F01DC038F0E7EF08F0C9
:1011C00086C0D9FF87C0DAFFDE2A000EDD2286C086
:1011D000D9FF87C0DAFFDECFF6FFDDCFF7FFF86A71
:1011E0000800F5CF8AF0D00E00018A258B6F8C6B3A
:1011F000FF0E8C238C5109E10A0E8B5DD8A003EF02
:1012000009F005EF09F0E0EF08F086C0D9FF87C0CC
:10121000DAFFDECFF6FFDDCFF7FFF86A0800F55002
:10122000630AD8A416EF09F018EF09F03BEF09F0B4
:1012300086C0D9FF87C0DAFFDE2A000EDD2288C013
:10124000D9FF89C0DAFFDFCF8AF0020EDE26DFCFBA
:101250008BF0000EDD228AC0D9FF8BC0DAFFDF5091
:101260008E6F84C021F085C022F08EC023F0CFECB9
:1012700017F0BAEF0AF086C0D9FF87C0DAFFDECFD9
:101280009BF0DDCF9CF09BC0F6FF9CC0F7FFF86A97
:101290000800F550640AD8B450EF09F052EF09F095
:1012A00061EF09F09BC0F6FF9CC0F7FFF86A0800E9
:1012B000F550690AD8A45FEF09F061EF09F0A4EFD7
:1012C00009F088C0D9FF89C0DAFFDFCF8AF0020EAB
:1012D000DE26DFCF8BF0000EDD228AC0D9FF8BC067
:1012E000DAFFDECF93F0DDCF94F0000E94BFFF0E57
:1012F000956F966F976F986F996F9A6F010E9B25F8
:101300008A6F000E9C218B6F86C0D9FF87C0DAFFE1
:101310008AC0DEFF8BC0DDFF84C060F085C061F055
:1013200093C062F094C063F095C064F096C065F01D
:1013300097C066F098C067F099C068F09AC069F0ED
:10134000B5EC0EF0BAEF0AF09BC0F6FF9CC0F7FFB9
:10135000F86A0800F550780AD8B4B1EF09F0B3EF95
:1013600009F0C2EF09F09BC0F6FF9CC0F7FFF86AD6
:101370000800F550580AD8A4C0EF09F0C2EF09F0F0
:101380002BEF0AF088C0D9FF89C0DAFFDFCF8AF0DF
:10139000020EDE26DFCF8BF0000EDD228AC0D9FFE1
:1013A0008BC0DAFFDECF8CF0DDCF8DF08CC093F0F8
:1013B0008DC094F0956B966B976B986B996B9A6B4D
:1013C000010E9B258A6F000E9C218B6F86C0D9FF72
:1013D00087C0DAFF8AC0DEFF8BC0DDFF10EF0AF0A6
:1013E00084C060F085C061F093C062F094C063F087
:1013F00095C064F096C065F097C066F098C067F03D
:1014000099C068F09AC069F09BC0F6FF9CC0F7FFD6
:10141000F86A0800F5CF6AF012EC10F0BAEF0AF0A3
:101420009BC0F6FF9CC0F7FFF86A0800F5508A6F72
:101430008B6B8B51000AD8B420EF0AF02BEF0AF027
:101440008A51580AD8B4F0EF09F0200AD8B4F0EF66
:1014500009F02BEF0AF086C0D9FF87C0DAFFDECF94
:10146000F6FFDDCFF7FFF86A0800F550730AD8B42D
:101470003CEF0AF03EEF0AF059EF0AF086C0D9FFC0
:1014800087C0DAFFDECF16F0DDCF17F0370E186E0B
:10149000100E196E000E1B6E030E1A6EEEEC13F09A
:1014A00016501710D8A457EF0AF059EF0AF09CEF26
:1014B0000AF086C0D9FF87C0DAFFDECFF6FFDDCFA6
:1014C000F7FFF86A0800F550730AD8B46AEF0AF01B
:1014D0006CEF0AF073EF0AF0000E0001926F030E3A
:1014E000916F78EF0AF0000E0001926F010E916F7C
:1014F00086C0D9FF87C0DAFF9151DE269251DD22E6
:1015000084C021F085C022F088C0D9FF89C0DAFFED
:10151000DFCF8AF0020EDE26DFCF8BF0000EDD2259
:101520008AC0D9FF8BC0DAFFDECF23F0DDCF24F0F5
:101530004CEC13F0BAEF0AF086C0D9FF87C0DAFF8F
:10154000DE2A000EDD22BAEF0AF086C0D9FF87C07E
:10155000DAFFDECFF6FFDDCFF7FFF86A0800F550BF
:10156000186E196A84C01AF085C01BF09CEC15F047
:101570009CEF0AF01200000E0001646F000E6B6F0A
:10158000000E6C6F000E6D6F000E6E6F23C06FF05B
:1015900024C070F028BED8EF0AF0285007E1250ECD
:1015A000275CD8B0D6EF0AF0D8EF0AF0E1EF0AF0E6
:1015B00027042810D8A4DFEF0AF0E1EF0AF0E8EFE3
:1015C0000AF0000E0101256F160E246FE6EF0CF0F5
:1015D0006F517011D8B4EFEF0AF0F1EF0AF0E6EFB7
:1015E0000CF06FC0D9FF70C0DAFFDF50D8A4FBEF5A
:1015F0000AF0FDEF0AF0FFEF0AF0E6EF0CF06FC023
:10160000D9FF70C0DAFFDF50716F0FEF0BF06F4B37
:10161000702B6FC0D9FF70C0DAFFDF50716F200EE2
:101620007119D8B416EF0BF018EF0BF007EF0BF0B1
:10163000F70E71252A6E2B6AFF0E2B222B5009E123
:10164000050E2A5CD8A027EF0BF029EF0BF007EF6F
:101650000BF0000E696F000E6A6F2D0E7119D8A481
:1016600034EF0BF036EF0BF042EF0BF0010E696F29
:101670006F4B702B6FC0D9FF70C0DAFFDF50716FF6
:101680004DEF0BF02B0E7119D8A449EF0BF04BEF77
:101690000BF04DEF0BF038EF0BF0300E7119D8A4B2
:1016A00054EF0BF056EF0BF0DBEF0BF06F4B702BA2
:1016B0006FC0D9FF70C0DAFFDF50716F275028105C
:1016C000D8B465EF0BF067EF0BF071EF0BF0100E75
:1016D00027182810D8A46FEF0BF071EF0BF0CCEFA8
:1016E0000BF0780E7119D8B478EF0BF07AEF0BF09D
:1016F00083EF0BF0580E7119D8A481EF0BF083EF34
:101700000BF0CCEF0BF0000E286E100E276E6F4B17
:10171000702B6FC0D9FF70C0DAFFDF50716F71514D
:101720002A6E2B6A200E2A12000E2B129F0E2A24DC
:101730002C6EFF0E2B202D6E2D5007E11A0E2C5C07
:10174000D8B0A5EF0BF0A7EF0BF0B6EF0BF071C020
:101750001AF01B6AA9EC1EF0C90E1A26100E1A60A8
:10176000B4EF0BF0B6EF0BF0C4EF0BF071C01CF050
:101770001D6AD7EC1AF01C501D10D8A4C2EF0BF054
:10178000C4EF0BF0DBEF0BF0010E0001646F6F078D
:10179000D8A07007E6EF0CF0010E646F27502810F8
:1017A000D8A4D5EF0BF0D7EF0BF0DBEF0BF0000E6A
:1017B000286E080E276E27502810D8A4E2EF0BF0F1
:1017C000E4EF0BF0E8EF0BF0000E286E0A0E276E28
:1017D0002950D8B4EEEF0BF0F0EF0BF00DEF0CF05A
:1017E00000016951D8A4F7EF0BF0F9EF0BF003EF0C
:1017F0000CF0FF0E656FFF0E666FFF0E676F7F0EBA
:10180000686F12EF0CF0000E656F000E666F000E31
:10181000676F800E686F12EF0CF0000165696669F2
:10182000676968696BC060F06CC061F06DC062F0A0
:101830006EC063F071512A6E2B6A200E2A12000EC0
:101840002B129F0E2A242C6EFF0E2B202D6E2D5056
:1018500007E11A0E2C5CD8B030EF0CF032EF0CF030
:101860003DEF0CF071C01AF01B6AA9EC1EF01A5083
:10187000C90F0001716F50EF0CF0D00E71252A6E68
:101880002B6AFF0E2B222B5007E10A0E2A5CD8B0E0
:101890004CEF0CF04EEF0CF0CEEF0CF0300E715F11
:1018A00071512A6E2B6A27502A5C2B50800A2C6EAD
:1018B0002850800A2C58D8A060EF0CF062EF0CF092
:1018C00064EF0CF0CEEF0CF06A51D8A46AEF0CF084
:1018D0006CEF0CF0C2EF0CF027C016F028C017F028
:1018E000000E17BEFF0E186E196E6BC01AF06CC09A
:1018F0001BF06DC01CF06EC01DF00CEC1AF0000166
:10190000715116246B6F000E17206C6F000E18209B
:101910006D6F000E19206E6F60516B5D61516C59D7
:1019200062516D5963516E59D8A099EF0CF09BEF3D
:101930000CF0B2EF0CF02950D8B4A1EF0CF0A3EFEB
:101940000CF0C2EF0CF06B51655D6C5166596D5136
:1019500067596E516859D8B0B0EF0CF0B2EF0CF087
:10196000C2EF0CF065C06BF066C06CF067C06DF044
:1019700068C06EF0000E0101256F220E246F010E6B
:1019800000016A6F6F4B702B6FC0D9FF70C0DAFF18
:10199000DF50716F010E646F12EF0CF06A51D8A422
:1019A000D4EF0CF0D6EF0CF0E6EF0CF06951D8B4A0
:1019B000DCEF0CF0DEEF0CF0E6EF0CF06E1F6D1FAD
:1019C0006C1F6B6D000E6C236D236E23255026104B
:1019D000D8B4EDEF0CF0EFEF0CF004EF0DF00001D8
:1019E0006451D8A4F6EF0CF0F8EF0CF0FCEF0CF01B
:1019F00023C06FF024C070F025C0D9FF26C0DAFFE5
:101A00006FC0DEFF70C0DDFF6BC023F06CC024F040
:101A10006DC025F06EC026F01200000E0201466F68
:101A2000000E4625D96EDA6A020EDA22000EDF6E4B
:101A3000462B1D0E46651FEF0DF021EF0DF010EF48
:101A40000DF0000E0001A36F020EA46F230EA56F10
:101A5000100EA66F3EC0A7F0A86B41C0A9F0AA6BFC
:101A60006FEC1CF00001CA51D8B439EF0DF03BEF18
:101A70000DF07DEF0DF03AEC21F00001C751D8B424
:101A800044EF0DF046EF0DF03DEF0DF038EC21F096
:101A9000000E0001C76F16EC21F021EC17F0445046
:101AA000D8A455EF0DF057EF0DF060EF0DF0000EDC
:101AB000426E000E0001CA6F44C0CDF0B2EF0EF0CE
:101AC000000E166E020E176EC0EC1CF0000E1624EF
:101AD0000201476F020E1720486F47C2A3F048C2A9
:101AE000A4F03B0E0001A56F100EA66F6FEC1CF06A
:101AF000000E0001CA6F9CEF0EF0C951D8B483EFFD
:101B00000DF085EF0DF04FEF0EF04450D8A48BEFA1
:101B10000DF08DEF0DF093EF0DF0000E426E000E04
:101B2000C96F5CEF0DF01E0EA36F020EA46F2C0E9A
:101B3000A56F100EA66F8DC1A7F08EC1A8F06FEC37
:101B40001CF0000E0201226F280E0001A36F020E8E
:101B5000A46F2C0EA56F100EA66F8FC1A7F090C1B9
:101B6000A8F06FEC1CF0000E02012C6F320E000189
:101B7000A36F020EA46F2C0EA56F100EA66F91C15D
:101B8000A7F092C1A8F06FEC1CF0000E0201366FB6
:101B90003C0E0001A36F020EA46F2C0EA56F100E59
:101BA000A66F93C1A7F094C1A8F06FEC1CF0000ED3
:101BB0000201406F000E166E020E176EC0EC1CF094
:101BC000000E16241A6E020E17201B6E1E0E1C6EBF
:101BD000020E1D6E1E0E166E020E176EC0EC1CF06D
:101BE00016C01EF017C01FF098EC1CF0000E166E09
:101BF000020E176EC0EC1CF0000E16241A6E020EB8
:101C000017201B6E280E1C6E020E1D6E280E166EFF
:101C1000020E176EC0EC1CF016C01EF017C01FF0AD
:101C200098EC1CF0000E166E020E176EC0EC1CF045
:101C3000000E16241A6E020E17201B6E320E1C6E3A
:101C4000020E1D6E320E166E020E176EC0EC1CF0E8
:101C500016C01EF017C01FF098EC1CF0000E166E98
:101C6000020E176EC0EC1CF0000E16241A6E020E47
:101C700017201B6E3C0E1C6E020E1D6E3C0E166E67
:101C8000020E176EC0EC1CF016C01EF017C01FF03D
:101C900098EC1CF0000E0001C96F9CEF0EF0C851CB
:101CA000D8B455EF0EF057EF0EF09CEF0EF0CD517B
:101CB000D8A45DEF0EF05FEF0EF07DEF0EF0000E9A
:101CC000166E020E176EC0EC1CF0000E16240201F8
:101CD000476F020E1720486F47C2A3F048C2A4F016
:101CE000440E0001A56F100EA66F410EA76F100ED7
:101CF000A86F6FEC1CF099EF0EF0000E166E020E3E
:101D0000176EC0EC1CF0000E16240201476F020E85
:101D10001720486F47C2A3F048C2A4F0440E000148
:101D2000A56F100EA66F3E0EA76F100EA86F6FEC7A
:101D30001CF0000E0001C86F000EC16F020EC26FD2
:101D400010EC1DF0650E1A6E010E1B6E63EC18F0A0
:101D5000470E1A6E100E1B6E63EC18F0000E426EEA
:101D60005CEF0DF0000E436E120062C078F063C0AD
:101D700079F064C07AF065C07BF066C07CF067C023
:101D80007DF068C07EF069C07FF000017FBFCBEFBF
:101D90000EF0CEEF0EF0010ECFEF0EF0000E806FC2
:101DA0008051D8B4D6EF0EF0D8EF0EF0E8EF0EF079
:101DB0007F1F7E1F7D1F7C1F7B1F7A1F791F786D01
:101DC000000E79237A237B237C237D237E237F23AC
:101DD00038BEEDEF0EF0EFEF0EF0F0EF0EF03D92AB
:101DE00038BEFDEF0EF0385006E13704D8B0FBEFF7
:101DF0000EF0FDEF0EF003EF0FF0000E756F010E09
:101E0000746F07EF0FF037C074F038C075F035C04D
:101E100076F036C077F08051D8B411EF0FF013EFA1
:101E20000FF02AEF0FF07607D8A077078051D8A4DB
:101E30001CEF0FF01EEF0FF024EF0FF0000E736F8A
:101E40002B0E726F28EF0FF0000E736F2D0E726F56
:101E500072C080F0000E826F1F0E816F000E0101B4
:101E6000506FB0EF0FF08107D8A08207310E8125A7
:101E7000D96E010E8221DA6E78C016F079C017F0A3
:101E80007AC018F07BC019F07CC01AF07DC01BF03E
:101E90007EC01CF07FC01DF00A0E1E6E000E1F6E6D
:101EA000000E206E000E216E000E226E000E236EBC
:101EB000000E246E000E256EF0EC11F016C06AF0D4
:101EC00017C06BF018C06CF019C06DF01AC06EF03E
:101ED0001BC06FF01CC070F01DC071F06AC028F00C
:101EE0006BC029F04DEC1EF02850300FDF6E000162
:101EF0007407D8A075077607D8A0770778C016F0C2
:101F000079C017F07AC018F07BC019F07CC01AF0C5
:101F10007DC01BF07EC01CF07FC01DF00A0E1E6E3F
:101F2000000E1F6E000E206E000E216E000E226E3F
:101F3000000E236E000E246E000E256E2CEC11F0A8
:101F400016C078F017C079F018C07AF019C07BF08D
:101F50001AC07CF01BC07DF01CC07EF01DC07FF05D
:101F6000000182BFBCEF0FF0825108E18105D8A0CB
:101F7000BCEF0FF0BEEF0FF0EEEF0FF078517911DC
:101F80007A117B117C117D117E117F11D8A4CBEFCA
:101F90000FF0CDEF0FF033EF0FF075BFDAEF0FF06A
:101FA000755106E17405D8B0D8EF0FF0DAEF0FF0F5
:101FB00033EF0FF077BFE5EF0FF0775108E17605CB
:101FC000D8A0E5EF0FF0E7EF0FF0EEEF0FF03DB226
:101FD000ECEF0FF0EEEF0FF033EF0FF08051D8B4CD
:101FE000F4EF0FF0F6EF0FF001EF10F08107D8A03B
:101FF0008207310E8125D96E010E8221DA6E80C0F2
:10200000DFFF60C028F061C029F0310E81252A6E03
:10201000010E82212B6E76C02CF077C02DF027ECBC
:1020200019F0120038BE17EF10F019EF10F01AEF88
:1020300010F03D9238BE27EF10F0385006E137041B
:10204000D8B025EF10F027EF10F02EEF10F0000EB3
:102050000001766F010E756F32EF10F037C075F02A
:1020600038C076F035C077F036C078F062C079F0CD
:1020700063C07AF064C07BF065C07CF066C07DF020
:1020800067C07EF068C07FF069C080F0000E00017C
:10209000826F1F0E816F000E0101506FDCEF10F098
:1020A0008107D8A0820779510F0B836F090E8365D2
:1020B0005CEF10F05EEF10F066EF10F0570E832526
:1020C000736F746B000E74236CEF10F0300E832569
:1020D000736F746B000E742373C083F0BF0E6A2598
:1020E0006B6F6C6BFF0E6C236C5107E11A0E6B5D0E
:1020F000D8B07DEF10F07FEF10F09FEF10F083511C
:102100006B6F6C6B200E6B13000E6C139F0E6B25A8
:102110006D6FFF0E6C216E6F6E5107E11A0E6D5DD3
:10212000D8B095EF10F097EF10F09FEF10F083C04C
:102130001AF01B6AA9EC1EF01A500001836F310ED1
:102140008125D96E010E8221DA6E83C0DFFF75070B
:10215000D8A076077707D8A0780779C06BF07AC047
:102160006CF07BC06DF07CC06EF07DC06FF07EC007
:1021700070F07FC071F080C072F0050EC9EF10F0F2
:10218000D8907233713370336F336E336D336C3379
:102190006B33E82EC0EF10F06BC079F06CC07AF0B2
:1021A0006DC07BF06EC07CF06FC07DF070C07EF0C3
:1021B00071C07FF072C080F0000182BFE9EF10F0C3
:1021C000825109E1020E815DD8A0E9EF10F0EBEF3A
:1021D00010F01BEF11F079517A117B117C117D11F8
:1021E0007E117F118011D8A4F8EF10F0FAEF10F0F3
:1021F00050EF10F076BF07EF11F0765106E175054C
:10220000D8B005EF11F007EF11F050EF10F078BFE4
:1022100012EF11F0785108E17705D8A012EF11F014
:1022200014EF11F01BEF11F03DB219EF11F01BEF9D
:1022300011F050EF10F060C028F061C029F0310EAD
:1022400081252A6E010E82212B6E77C02CF078C07A
:102250002DF027EC19F01200000E276E25BE35EF89
:1022600011F033EF11F047EF11F0251E241E231E4D
:10227000221E211E201E1F1E1E6C000E1F22202249
:1022800021222222232224222522010E276E1DBE76
:102290004EEF11F04CEF11F060EF11F01D1E1C1EFF
:1022A0001B1E1A1E191E181E171E166C000E172252
:1022B000182219221A221B221C221D22010E271A63
:1022C00020EE28F0070EDE6AE806FDE21E501F1021
:1022D000201021102210231024102510D8B473EFE1
:1022E00011F075EF11F0C7EF11F0010E266E83EFBC
:1022F00011F0D8901E361F3620362136223623366E
:1023000024362536262A25AE88EF11F08AEF11F003
:1023100079EF11F0D890283629362A362B362C360C
:102320002D362E362F361E50165C1F501758205053
:1023300018582150195822501A5823501B5824500D
:102340001C5825501D58D8A0A8EF11F0AAEF11F085
:10235000BBEF11F01E50165E1F50175A2050185A2E
:102360002150195A22501A5A23501B5A24501C5AD1
:1023700025501D5A2880D89025322432233222320B
:10238000213220321F321E32262E8AEF11F02750C2
:10239000D8B4CDEF11F0CFEF11F0DFEF11F02F1E19
:1023A0002E1E2D1E2C1E2B1E2A1E291E286C000ED2
:1023B00029222A222B222C222D222E222F2228C013
:1023C00016F029C017F02AC018F02BC019F02CC045
:1023D0001AF02DC01BF02EC01CF02FC01DF01200F3
:1023E000000E276E1DBEF9EF11F0F7EF11F00BEFA5
:1023F00012F01D1E1C1E1B1E1A1E191E181E171E53
:10240000166C000E1722182219221A221B221C22D7
:102410001D22010E276E25BE12EF12F010EF12F0F2
:1024200022EF12F0251E241E231E221E211E201E16
:102430001F1E1E6C000E1F22202221222222232278
:10244000242225221E501F1020102110221023109C
:1024500024102510D8B42FEF12F031EF12F079EFDD
:1024600012F0010E266E3FEF12F0D8901E361F3686
:10247000203621362236233624362536262A25AE26
:1024800044EF12F046EF12F035EF12F01E50165CDA
:102490001F501758205018582150195822501A58B8
:1024A00023501B5824501C5825501D58D8A05BEFB2
:1024B00012F05DEF12F06DEF12F01E50165E1F501D
:1024C000175A2050185A2150195A22501A5A23507C
:1024D0001B5A24501C5A25501D5AD890253224329C
:1024E00023322232213220321F321E32262E46EF74
:1024F00012F02750D8B47FEF12F081EF12F091EF75
:1025000012F01D1E1C1E1B1E1A1E191E181E171E41
:10251000166C000E1722182219221A221B221C22C6
:102520001D2216C016F017C017F018C018F019C0F9
:1025300019F01AC01AF01BC01BF01CC01CF01DC003
:102540001DF01200000E246E000E236E000E226E8F
:10255000000E216EAEEF12F01C4A1D2A1CC0F6FFC1
:102560001DC0F7FFF86A0800F550200AD8B4BBEF89
:1025700012F0BDEF12F0ACEF12F01CC0F6FF1DC060
:10258000F7FFF86A0800F5CF1EF0F70E1E241F6E45
:10259000206AFF0E2022205009E1050E1F5CD8A002
:1025A000D4EF12F0D6EF12F0ACEF12F0E0EF12F031
:1025B000000E226E010E216E1C4A1D2A17EF13F029
:1025C0001CC0F6FF1DC0F7FFF86A0800F5501E6E2C
:1025D0001F6A1F50000AD8B4F0EF12F017EF13F083
:1025E0001E502B0AD8B4DCEF12F0060AD8B4D8EF8C
:1025F00012F017EF13F023C016F024C017F0000EEE
:10260000196E0A0E186E31EC20F01CC0F6FF1DC0CA
:10261000F7FFF86A0800F550165E000E175A300EE4
:102620001624236E000E1720246EDCEF12F01CC05F
:10263000F6FF1DC0F7FFF86A0800F5CF1EF0D00EB8
:102640001E241F6E206AFF0E2022205009E10A0E70
:102650001F5CD8A02EEF13F030EF13F0FBEF12F059
:1026600021502210D8A437EF13F039EF13F047EFC1
:1026700013F023C01EF024C01FF01E1E1F1E1E4A92
:102680001F2A1EC01CF01FC01DF04BEF13F023C00B
:102690001CF024C01DF0120021EEA6F010EE60F038
:1026A000060EDBCFE3FFE806FCE223C06BF024C09C
:1026B0006CF000016B516C11D8A461EF13F063EF63
:1026C00013F067EF13F0600E6B6F000E6C6F6BC052
:1026D00016F06CC017F0C0EC1CF016C06DF017C0FF
:1026E0006EF037C06FF038C070F0000170BF7BEF44
:1026F00013F07DEF13F092EF13F06D516F5D705199
:10270000800A256E6E51800A2558D8A08AEF13F0F2
:102710008CEF13F08EEF13F092EF13F06FC06DF0AB
:1027200070C06EF06DC06FF06EC070F035C067F0B5
:1027300036C068F0A9EF13F0000E196E200E186E67
:1027400021C01AF022C01BF09CEC15F000016D4B6B
:102750006E2B67516D5D6E51800A256E6851800A3F
:102760002558D8A0B6EF13F0B8EF13F09CEF13F094
:10277000000E6A6F000E696FDEEF13F06BC0F6FF9C
:102780006CC0F7FF000EF86E0F0EF76403D0080060
:10279000F55005D0F6CFE1FFF7CFE2FFE750256E09
:1027A0002550186E196A21C01AF022C01BF09CEC4B
:1027B00015F000016B4B6C2B694B6A2B6F51695DF7
:1027C0006A51800A256E7051800A2558D8A0EBEF17
:1027D00013F0EDEF13F0BEEF13F0120016C01DF072
:1027E00017C01EF018C01FF019C020F01A06D8A09C
:1027F0001B061A2806E11B28D8A401EF14F003EFEA
:1028000014F010EF14F0000E176E000E166E62EF4B
:1028100014F01D4A1E2A1F4A202A1A06D8A01B0699
:102820001DC0F6FF1EC0F7FFF86A0800F55000094A
:10283000D8B41DEF14F01FEF14F04EEF14F01FC0CA
:10284000F6FF20C0F7FFF86A0800F5500009D8B479
:102850002CEF14F02EEF14F04EEF14F01A501B1062
:10286000D8B435EF14F037EF14F04EEF14F01DC06C
:10287000F6FF1EC0F7FFF86A0800F5CF1CF01FC076
:10288000F6FF20C0F7FFF86A0800F5501C18D8B40E
:102890004CEF14F04EEF14F009EF14F01DC0F6FFEA
:1028A0001EC0F7FFF86A0800F5CF1CF01FC0F6FF46
:1028B00020C0F7FFF86A0800F5501C5C166E176A16
:1028C000D8A01706120080B868EF14F06BEF14F070
:1028D000010E6CEF14F0000E186E196A183A193ACE
:1028E000F00E191618500F0B1912F00E181680B6AC
:1028F0007CEF14F07FEF14F0010E80EF14F0000E67
:102900001A6E1B6AD8901A361B36D8901A361B36A8
:10291000D8901A361B3680B490EF14F093EF14F071
:10292000010E94EF14F0000E1C6E1D6AD8901C3638
:102930001D36D8901C361D3680B2A1EF14F0A4EFDE
:1029400014F0010EA5EF14F0000E1E6E1F6AD89051
:102950001E361F3680B0AFEF14F0B2EF14F0010E48
:10296000B3EF14F0000E206E216A1E502010226E6C
:102970001F502110236E1C502210246E1D50231056
:10298000256E1A502410266E1B502510276E1850E5
:102990002610166E19502710176E1200400E176E73
:1029A000200E5BEC1DF0260E196E000E1A6E200E26
:1029B000A6EC1AF026C022F027C023F00C0E246EDD
:1029C000D89023322232242EE0EF14F02250070B4D
:1029D000256E17EF15F0FF0E261401018D6F0F0EF7
:1029E00027148E6F34EF15F0FF0E261401018F6F40
:1029F0000F0E2714906F34EF15F0FF0E261401010F
:102A0000916F0F0E2714926F34EF15F0FF0E2614FE
:102A10000101936F0F0E2714946F34EF15F0050E1C
:102A20001A6E100E1B6E63EC18F034EF15F0255083
:102A3000226E236A2350000AD8B421EF15F00FEF5D
:102A400015F02250000AD8B4EBEF14F0010AD8B404
:102A5000F4EF14F0030AD8B4FDEF14F0010AD8B46F
:102A600006EF15F00FEF15F012008C9442EC21F0F8
:102A7000E0EC1FF00B6E82EF15F0000E0101276FE6
:102A8000000E266F790E056E010E066E0AEC1EF022
:102A9000010E456E240E0B18D8A451EF15F053EF1C
:102AA00015F09BEF15F00B5065EC20F0020E456E13
:102AB0009BEF15F0010127BF67EF15F0275109E1E2
:102AC000140E265DD8A067EF15F069EF15F06BEFD7
:102AD00015F0000E456E0B5065EC20F02A0E0B1819
:102AE000D8A475EF15F077EF15F09BEF15F0010EF8
:102AF000426E000E65EC20F0010E436E000E456E36
:102B00009BEF15F04550096E0A6A0A50000AD8B4C6
:102B10008CEF15F09BEF15F00950000AD8B43DEF8B
:102B200015F0010AD8B44AEF15F0030AD8B45AEFE9
:102B300015F09BEF15F012001A501B10D8B4A3EF3C
:102B400015F0A5EF15F0AEEF15F01A501B10D8A434
:102B5000ACEF15F0AEEF15F0B3EF15F018501BEC1D
:102B600021F000EF16F020EE09F01A50D9261B5084
:102B7000DA22DE50DE10D8B4C0EF15F0C2EF15F047
:102B8000DDEF15F020EE09F01A50D9261B50DA229D
:102B900010EE03F01A50E1261B50E222DE50E65CF4
:102BA000E650800A206EDE50800A2058D8B0DBEF55
:102BB00015F0DDEF15F000EF16F020EE03F01A50DF
:102BC000D9261B50DA22DECF1CF0DDCF1DF01AC053
:102BD000D9FF1BC0DAFFDECF1EF0DDCF1FF01C5087
:102BE0001E24D96E1D501F20DA6E18C0DFFF20EEA4
:102BF00003F01A50D9261B50DA22DE2A000EDD22FD
:102C00001200790E1A6E010E1B6E63EC18F0470E5F
:102C10001A6E100E1B6E63EC18F0510E1A6E010E38
:102C20001B6EE8EC1DF0980E1A6E010E1B6EE8ECA0
:102C30001DF0950E1A6E010E1B6EE8EC1DF064EC93
:102C400019F0E7EC18F0950E2E6E010E2F6E000EA7
:102C5000306E000E316E000E336E100E326E18ECB8
:102C60001FF02EC0C1F02FC0C2F0510E0001BC6F8A
:102C7000010EBD6FD5EC19F0980E2E6E010E2F6E61
:102C8000000E306E000E316E000E336E100E326E7E
:102C900018EC1FF02EC0C3F02FC0C4F00001C151CA
:102CA000C31907E1C251C419D8A459EF16F05BEF5C
:102CB00016F05FEF16F0020E436E63EF16F0000E93
:102CC000426E000E436E120044EC20F01C503F6E2A
:102CD00063EC14F016503E6E4450D8B472EF16F008
:102CE00074EF16F096EF16F04404D8A47AEF16F0BD
:102CF0007CEF16F0B3EF16F03E503F18D8A483EFE8
:102D000016F085EF16F0B3EF16F096EF16F0010E01
:102D10000001CA6FAFEF16F0010E0001C96FAFEFEF
:102D200016F0010E0001C86FAFEF16F04150286E8B
:102D3000296A2950000AD8B4A0EF16F0B3EF16F0B4
:102D40002850430AD8B491EF16F0040AD8B48CEF97
:102D500016F0150AD8B487EF16F0B3EF16F0050E8B
:102D6000436EC2EF16F0000E426E000E0101276F97
:102D7000000E266F790E1A6E010E1B6EE8EC1DF028
:102D8000000E436E1200140E4724D96EDA6A010E4B
:102D9000DA22000EDF6EABA4D0EF16F0D2EF16F001
:102DA000E6EF16F0140E4724D96EDA6A010EDA2225
:102DB0000101DF8202D8E6EF16F00500FA6EBD5180
:102DC000FD6EBE51FE6EFF6AFA501200ABA2EBEF31
:102DD00016F0EDEF16F001EF17F0140E4724D96E40
:102DE000DA6A010EDA220101DF8402D801EF17F05E
:102DF0000500FA6EBB51FD6EBC51FE6EFF6AFA50C3
:102E00001200140E4724D96EDA6A010EDA22DF505E
:102E1000D8B40DEF17F00FEF17F01EEF17F002D830
:102E20001CEF17F00500FA6E0101B951FD6EBA51A1
:102E3000FE6EFF6AFA50120020EF17F08BEC1FF0C5
:102E40001200010E36EC1BF0060EE82EFED700D065
:102E5000000E1C6E000E1B6E36EC1DF0060EE82EEA
:102E6000FED700D0000E36EC1BF0000E216E000ED7
:102E7000206ECEEC14F0010E36EC1BF0000E1C6E32
:102E8000010E1B6E36EC1DF0060EE82EFED700D0AC
:102E9000000E36EC1BF0000E216E010E206ECEEC03
:102EA00014F0010E36EC1BF0000E1C6E020E1B6EB1
:102EB00036EC1DF0060EE82EFED700D0000E36ECE4
:102EC0001BF0000E216E020E206ECEEC14F0010EEF
:102ED00036EC1BF0000E1C6E030E1B6E36EC1DF064
:102EE000060EE82EFED700D0000E36EC1BF0000ECA
:102EF000216E030E206ECEEC14F012001F6E28EC33
:102F000021F01F50DCEC20F072EC20F00009D8B466
:102F10008CEF17F08EEF17F090EF17F07FEF17F0B0
:102F20001950DCEC20F072EC20F00009D8B49BEFD3
:102F300017F09DEF17F09FEF17F07FEF17F024ECDD
:102F400021F01F500109DCEC20F072EC20F00009A8
:102F5000D8B4ADEF17F0AFEF17F0B1EF17F07FEF88
:102F600017F0000E31EC1FF01C6E1C501E6E1D6A17
:102F70001AC0D9FF1BC0DAFF1DC0DEFF1EC0DDFF77
:102F8000010E31EC1FF01C6E1C501AC0D9FF1BC083
:102F9000DAFFDE26000EDD2220EC21F01200355093
:102FA0003610D8A4D6EF17F0D8EF17F0DEEF17F0F1
:102FB00035C027F036C028F0E4EF17F0FF0E3524B7
:102FC000276EFF0E3620286E28BEE9EF17F0EBEFD4
:102FD00017F0EDEF17F0F1EF17F0000E286E000E6E
:102FE000276E000E266E000E256E03EF18F0000E01
:102FF000196E200E186E21C01AF022C01BF09CEC36
:1030000015F0254A262A2750255C2650800A246E72
:103010002850800A2458D8A010EF18F012EF18F0AA
:10302000F7EF17F023C018F0196A21C01AF022C078
:103030001BF09CEC15F0120056EC20F09FEC20F0F9
:103040006A0E166E2A0E176EFDEC20F0580E166EE4
:10305000420E176EF8EC20F0D00E166E410E176E71
:10306000F3EC20F0C40E166E410E176EEEEC20F05D
:10307000F28EF28C11EC21F0CBEC1FF04250D8B460
:1030800044EF18F046EF18F03EEF18F04350020DF1
:103090009A0EF324D96E010EF420DA6EDECFC5F05D
:1030A000DDCFC6F002D85FEF18F00500FA6E000120
:1030B000C551FD6EC651FE6EFF6AFA5012003EEF1A
:1030C00018F089EF00F08C963CEC21F08B8A000E12
:1030D0001F6E000E1E6E92EF18F0F5EC1FF0000947
:1030E000D8B475EF18F077EF18F06DEF18F01E50A8
:1030F0001A241C6E1F501B201D6E1CC0F6FF1DC025
:10310000F7FF000EF86E0F0EF76403D00800F550BD
:1031100005D0F6CFE1FFF7CFE2FFE75089EC20F0D2
:103120001E4A1F2A1AC016F01BC017F0C0EC1CF074
:1031300016501E5C17501F58D8A0A1EF18F0A3EF2F
:1031400018F06DEF18F08B9A12001A6E28EC21F02F
:103150001A50DCEC20F072EC20F00009D8B4B3EF88
:1031600018F0B5EF18F0B7EF18F0A6EF18F01750F9
:10317000DCEC20F072EC20F00009D8B4C2EF18F0BB
:10318000C4EF18F0C6EF18F0A6EF18F01950DCECF9
:1031900020F072EC20F00009D8B4D1EF18F0D3EF92
:1031A00018F0D5EF18F0A6EF18F01850DCEC20F06E
:1031B00072EC20F00009D8B4E0EF18F0E2EF18F05C
:1031C000E4EF18F0A6EF18F020EC21F01200000E4A
:1031D0001E6E790E166E010E176EC0EC1CF01650A6
:1031E000FD0F1F6E04EF19F0790E1F24D96EDA6AF5
:1031F000010EDA22950E1E24E16EE26A010EE22231
:10320000DFCFE7FF1E2A1F2A790E166E010E176EFA
:10321000C0EC1CF0FF0E16241A6EFF0E17201B6E5A
:103220001F501C6E1D6A1A501C5C1B501D58D8A0E4
:103230001CEF19F01EEF19F0F4EF18F0950E1E2494
:10324000D96EDA6A010EDA22000EDF6E12002DBE90
:103250002CEF19F02EEF19F034EF19F02CC031F0EB
:103260002DC032F038EF19F0000E326E000E316EC4
:10327000000E306E000E2F6E4AEF19F0000E196E20
:10328000200E186E28C01AF029C01BF09CEC15F017
:103290002F4A302A31502F5C3050800A2E6E325027
:1032A000800A2E58D8A057EF19F059EF19F03EEFC9
:1032B00019F02AC021F02BC022F028C023F029C029
:1032C00024F0C6EC1DF01200000E1E6E000E1F6EE4
:1032D0007AEF19F0790E1F24D96EDA6A010EDA221C
:1032E000510E1E24E16EE26A010EE222DFCFE7FFFB
:1032F0001E2A1F2A790E166E010E176EC0EC1CF0E6
:10330000FD0E16241A6EFF0E17201B6E1F501C6E2A
:103310001D6A1A501C5C1B501D58D8A092EF19F062
:1033200094EF19F06AEF19F0510E1E24D96EDA6A83
:10333000010EDA22000EDF6E1200730E196E3BC012
:103340001AF03CC01BF0200E7EEC17F03C50396E9A
:103350003BC03AF020502110D8A4B1EF19F0B3EFE0
:1033600019F0B6EF19F03A9AC0EF19F020042110C5
:10337000D8A4BDEF19F0BFEF19F0C0EF19F03A8AE9
:103380003A5039C022F0236A22C023F0226A221068
:103390003B6E23503C6E030E176E3BC018F03CC0D2
:1033A00019F0200EA5EC18F01200BCC0D9FFBDC06A
:1033B000DAFFDF500001BE6F000EC06F010EBF6F5D
:1033C000ECEF19F0BF51BC25D96EC051BD21DA6EAA
:1033D000DF50BE1BBF4BC02BBCC016F0BDC017F0EA
:1033E000C0EC1CF016500001BF5D1750C059D8A0AA
:1033F000FCEF19F0FEEF19F0E2EF19F0980EA36F51
:10340000010EA46F320EA56F100EA66FBEC0A7F0FE
:10341000A86B6FEC1CF01200000E1E6E000E1F6EEB
:10342000000E206E000E216E16A019EF1AF01BEF91
:103430001AF023EF1AF01A501E261B501F221C50A0
:1034400020221D502122D8901A361B361C361D36DC
:10345000D890193218321732163216501710181029
:103460001910D8A436EF1AF038EF1AF014EF1AF04A
:103470001EC016F01FC017F020C018F021C019F0B0
:1034800012001A6E28EC21F01A50DCEC20F072ECDD
:1034900020F00009D8B44FEF1AF051EF1AF053EFB3
:1034A0001AF042EF1AF01750DCEC20F072EC20F02A
:1034B0000009D8B45EEF1AF060EF1AF062EF1AF06C
:1034C00042EF1AF01950DCEC20F072EC20F0000909
:1034D000D8B46DEF1AF06FEF1AF071EF1AF042EFF7
:1034E0001AF01850DCEC20F01200280EF66E410E97
:1034F000F76E000EF86E01EE9AF010EE15F009006E
:10350000F5CFEEFFE550E150FAE1980EF66E420E6F
:10351000F76E000EF86E0900F5CFCDF001EE00F069
:103520009A0EEE6AE806FDE10001CC6BCB6BCA6B2C
:10353000C96BC86BC76B00EE35F0130EEE6AE80678
:10354000FDE14A904A9200011CEF18F01E6E28EC33
:1035500021F01E500109DCEC20F072EC20F0000993
:10356000D8B4B5EF1AF0B7EF1AF0B9EF1AF0A7EF29
:103570001AF0000E31EC1FF01B6E1B501D6E1C6A02
:1035800019C0D9FF1AC0DAFF1CC0DEFF1DC0DDFF65
:10359000010E31EC1FF01B6E1B5019C0D9FF1AC071
:1035A000DAFFDE26000EDD2220EC21F01200010EF3
:1035B000226E200E1C101E6E000E1D101F6E9F0E20
:1035C0001E24206EFF0E1F20216E215009E11A0ECD
:1035D000205CD8A0EEEF1AF0F0EF1AF003EF1BF02A
:1035E000D00E1C241E6EFF0E1D201F6E1F5009E101
:1035F0000A0E1E5CD8A0FFEF1AF001EF1BF003EFDC
:103600001BF0000E226E22C01CF01D6A1200000E7C
:10361000176E4404D8A40FEF1BF011EF1BF028EF36
:103620001BF0D00E01017B252A6F2B6BFF0E2B2385
:10363000172A7B0E1724D96EDA6A010EDA22DF50C0
:10364000166ED00E1624286F296BFF0E2923172A19
:103650001750020F406E790E4024D96EDA6A010EBF
:10366000DA22DF50416E040E436E1200226E730E9A
:10367000196E3BC01AF03CC01BF0200E7EEC17F018
:103680003C50396E3BC03AF02250D8B44AEF1BF0A0
:103690004CEF1BF04FEF1BF03A8E50EF1BF03A9EB1
:1036A0003A5039C020F0216A20C021F0206A201051
:1036B0003B6E21503C6E030E176E3BC018F03CC0B1
:1036C00019F0200EA5EC18F01200226E7B0E196E78
:1036D0003BC01AF03CC01BF0200E7EEC17F03C50B3
:1036E000396E3BC03AF02250D8B479EF1BF07BEF33
:1036F0001BF07EEF1BF039827FEF1BF039923A50BE
:1037000039C020F0216A20C021F0206A20103B6ED1
:1037100021503C6E0B0E176E3BC018F03CC019F0E8
:10372000200EA5EC18F01200226E730E196E3BC02D
:103730001AF03CC01BF0200E7EEC17F03C50396EA6
:103740003BC03AF02250D8B4A8EF1BF0AAEF1BF010
:10375000ADEF1BF03980AEEF1BF039903A5039C015
:1037600020F0216A20C021F0206A20103B6E2150F9
:103770003C6E030E176E3BC018F03CC019F0200ED3
:10378000A5EC18F012009D9A860E166E2D0E176E7F
:10379000FDEC20F0080EB86E900EAB6E240EAC6EF1
:1037A000CF0EAF6E000EB06E960E166E420E176EF6
:1037B00007EC21F0600E166E420E176E02EC21F03F
:1037C000660E166E420E176E0CEC21F0000E000114
:1037D000CB6F000E476E000E466E000ECC6F9D8ABA
:1037E00012006DB4F6EF1BF0F8EF1BF0F1EF1BF0D9
:1037F0006BB0FDEF1BF0FFEF1BF0F1EF1BF06BB2B6
:1038000004EF1CF006EF1CF0F1EF1BF06BB40BEFB4
:103810001CF00DEF1CF0F1EF1BF06BB612EF1CF07B
:1038200014EF1CF0F1EF1BF06BB819EF1CF01BEF5D
:103830001CF0F1EF1BF012009FC033F0A0C034F079
:1038400031EF1CF09DC084F09EC085F0330E000166
:10385000866F000E876FA1C088F0A2C089F025ECAA
:1038600008F033C0F6FF34C0F7FFF86A0800F550DF
:103870000009D8A43EEF1CF040EF1CF022EF1CF032
:10388000000E00019E6F000E9D6F120056EF1CF09F
:10389000000E446E6CEF1CF0010E446E6CEF1CF0D9
:1038A000000E426E000E436E6CEF1CF001017A5167
:1038B000166E176A1750000AD8B461EF1CF050EF6B
:1038C0001CF01650420AD8B448EF1CF0170AD8B4BE
:1038D0004CEF1CF050EF1CF0030E436E1200A70ECD
:1038E0000001AF6F000EB06FA3C0B1F0A4C0B2F082
:1038F000000EB56F000EB46F000EBB6F000EBA6FF6
:10390000B10E9D6F000E9E6FA5C09FF0A6C0A0F0E7
:10391000AF0EA16F000EA26F1CEC1CF00001B451A1
:10392000A325D96EB551A421DA6E000EDF6E120008
:103930001CC023F01DC024F01AC021F01BC022F0CF
:10394000B2EF1CF023C0D9FF24C0DAFFDF50206E95
:10395000234A242A21C0D9FF22C0DAFF20C0DFFF7A
:10396000214A222A1E06D8A01F061E2806E11F286B
:10397000D8A4BDEF1CF0BFEF1CF0A2EF1CF01200AA
:1039800016C018F017C019F0C8EF1CF0164A172A15
:1039900016C0F6FF17C0F7FF000EF86E0F0EF764A3
:1039A00003D00800F55005D0F6CFE1FFF7CFE2FFD6
:1039B000E7500009D8A4DFEF1CF0E1EF1CF0C6EFE0
:1039C0001CF01850165C166E19501758176E12001E
:1039D00001C003F002C004F0F0EF1CF0014A022A1B
:1039E00001C0F6FF02C0F7FF000EF86E0F0EF7647D
:1039F00003D00800F55005D0F6CFE1FFF7CFE2FF86
:103A0000E7500009D8A407EF1DF009EF1DF0EEEF15
:103A10001CF00350015C016E04500258026E12004B
:103A2000650E1A6E010E1B6EE8EC1DF0C1C0BCF0F5
:103A3000C2C0BDF0D5EC19F0650E0001A36F010EF8
:103A4000A46F190EA56F100EA66FC1C0A7F0C2C05B
:103A5000A8F098C1A9F0AA6B99C1ABF0AC6B000EAD
:103A6000AE6F2A0EAD6F6FEC1CF01200000E396EB7
:103A70001BC01DF0010E1E6E1D2A41EF1DF0D890D7
:103A80001E361D2E3FEF1DF01E503A6E3A5039C0C3
:103A90001DF01E6A1DC01EF01D6A1D103B6E1E50DB
:103AA0003C6E020E176E3BC018F03CC019F0200EA1
:103AB000A5EC18F01200186E28EC21F01850DCEC80
:103AC00020F072EC20F00009D8B469EF1DF06BEF24
:103AD0001DF06DEF1DF05CEF1DF01750DCEC20F0D9
:103AE00072EC20F00009D8B478EF1DF07AEF1DF0E9
:103AF0007CEF1DF05CEF1DF020EC21F01200740E45
:103B0000196E3BC01AF03CC01BF0200E7EEC17F083
:103B10003C50396E3BC03AF00F0E3A123A5039C061
:103B200020F0216A20C021F0206A20103B6E215035
:103B30003C6E040E176E3BC018F03CC019F0200E0E
:103B4000A5EC18F01200010E1A6E200E16181710B0
:103B5000D8B4ADEF1DF0AFEF1DF0C2EF1DF0F70EC2
:103B60001624186EFF0E1720196E195009E1050E64
:103B7000185CD8A0BEEF1DF0C0EF1DF0C2EF1DF025
:103B8000000E1A6E1AC016F0176A1200000E276E89
:103B9000000E266ED7EF1DF025C018F0196A23C05D
:103BA0001AF024C01BF09CEC15F0264A272A265058
:103BB0002124D96E27502220DA6EDF50256E255041
:103BC000D8A4E5EF1DF0E7EF1DF0CCEF1DF01200DB
:103BD000000E1D6E000E1C6EF8EF1DF01C501A2416
:103BE000D96E1D501B20DA6E000EDF6E1C4A1D2A96
:103BF0001AC016F01BC017F0C0EC1CF016501C5C6D
:103C000017501D58D8A007EF1EF009EF1EF0EEEF79
:103C10001DF01200000E086E000E076E1AEF1EF067
:103C200007500524D96E08500620DA6E000EDF6EAC
:103C3000074A082A05C001F006C002F0E8EC1CF0B3
:103C40000150075C02500858D8A029EF1EF02BEF56
:103C50001EF010EF1EF01200000E8D6E0C0E8C6E1A
:103C6000000E896E000E8A6E000E8B6E070E966E29
:103C7000926893689F0E946EF30E956EF00E0F018E
:103C80003B6F1C0E3A6F3F0E396F060E3C6F200ED5
:103C9000386F000E616EF18E120029BE5AEF1EF0D1
:103CA000295006E12804D8B058EF1EF05AEF1EF054
:103CB00068EF1EF028C02AF029C02BF02A1E2B1E08
:103CC0002A4A2B2A2AC028F02BC029F06CEF1EF0BC
:103CD00028C028F029C029F01200A192B1C101F03A
:103CE000B2C102F009EC20F00101AF51B011D8B41B
:103CF0007CEF1EF07EEF1EF08AEF1EF002D88AEFF6
:103D00001EF00500FA6EAF51FD6EB051FE6EFF6AF7
:103D1000FA50120012009E90B5C101F0B6C102F037
:103D20001DEC20F00101B351B411D8B49AEF1EF08C
:103D30009CEF1EF0A8EF1EF002D8A8EF1EF00500C1
:103D4000FA6EB351FD6EB451FE6EFF6AFA50120066
:103D500012009F0E1A241C6EFF0E1B201D6E1D509C
:103D600007E11A0E1C5CD8B0B8EF1EF0BAEF1EF0D7
:103D7000C0EF1EF05F0E1A141A6E1B6AC4EF1EF01D
:103D80001AC01AF01BC01BF01200200E1610186E7D
:103D9000000E1710196E9F0E18241A6EFF0E1920B0
:103DA0001B6E1B500AE11A0E1A5CD8A0DAEF1EF047
:103DB000DDEF1EF0010EDEEF1EF0000E166E176A2C
:103DC0001200F2944950D76E48C0D6FF0101B75196
:103DD000B811D8B4EEEF1EF0F0EF1EF0FCEF1EF0BD
:103DE00002D8FCEF1EF00500FA6EB751FD6EB85117
:103DF000FE6EFF6AFA5012001200D59C6D0ED76E4F
:103E0000830ED66ED650D7CF18F0196A18C019F0A5
:103E1000186A1810486E1950496EF294F28A940E7E
:103E2000166E420E176EF8EC20F0930ED56E12004F
:103E30002EC023F02FC024F030C025F031C026F072
:103E400032C027F033C028F0010E296EBBEC0AF017
:103E500023C02EF024C02FF025C030F026C031F052
:103E60001200176EF1EC1BF040EC21F0B3EC20F0E7
:103E70000009D8B43EEF1FF040EF1FF036EF1FF0FF
:103E80006FCF18F03EEC21F01750A9EC20F018503D
:103E900012009F0E1624186EFF0E1720196E19506F
:103EA0000AE11A0E185CD8A058EF1FF05BEF1FF064
:103EB000010E5CEF1FF0000E166E176A1200BF0EA7
:103EC0001624186EFF0E1720196E19500AE11A0EEB
:103ED000185CD8A06EEF1FF071EF1FF0010E72EFAB
:103EE0001FF0000E166E176A1200D00E1624186E00
:103EF000FF0E1720196E19500AE10A0E185CD8A09F
:103F000084EF1FF087EF1FF0010E88EF1FF0000E07
:103F1000166E176A12001C0E4724D96EDA6A010E5B
:103F2000DA22AECFDFFF472A070E47649AEF1FF071
:103F30009CEF1FF09EEF1FF0000E476E0001CC2B90
:103F40001200000EB46E3C0EB36EB00EB26EB2CF65
:103F5000B1F1B3CFB2F1A192A082900E166E420ED3
:103F6000176EEEEC20F0310EB16E1200000ECC6E2A
:103F70003C0ECF6EB00ECE6ECECFB5F1CFCFB6F138
:103F80009E909D80920E166E420E176EF3EC20F0FE
:103F9000310ECD6E1200BDEC20F0C80E00D0E82E20
:103FA000FDD7000E65EC1BF0000E216E000E206E9A
:103FB0009DEC19F0000E94EC1BF07FEC1DF012004C
:103FC0009EAAE5EF1FF0E7EF1FF0E0EF1FF0000EF5
:103FD0000001CB6FABA2EFEF1FF0F1EF1FF0F3EF9B
:103FE0001FF0AB98AB88AE501200000E166E9EA864
:103FF000FCEF1FF0FEEF1FF007EF20F0ACAA03EF7D
:1040000020F005EF20F007EF20F0010E166E16509D
:104010001200B1A40EEF20F010EF20F018EF20F006
:10402000B1900250B36E01C0B2FFB1801CEF20F01E
:104030000250B36E01C0B2FF1200CDA422EF20F0F7
:1040400024EF20F02CEF20F0CD900250CF6E01C075
:10405000CEFFCD8030EF20F00250CF6E01C0CEFFFA
:10406000120016501802F3CF1AF0F4CF1BF01650BE
:104070001902F3501B2617501802F3501B261AC0C2
:1040800016F01BC017F012002AC116F02BC117F052
:10409000000E196E0A0E186E31EC20F00101285145
:1040A00016241C6E295117201D6E120036EC21F0CB
:1040B0002CEC1EF0C7EC20F0A1EC1FF0B6EC1FF0CA
:1040C000FDEC1EF0C3EC1BF01200016E790E010135
:1040D0002625D96E010E2721DA6E01C0DFFF264B9F
:1040E000272B1200F1EC1BF06BBC79EF20F07CEF7A
:1040F00020F0010E7DEF20F0000E12004250D8B4E7
:1041000084EF20F086EF20F07EEF20F0010E436E6A
:104110001200166E16C0ADFFACA291EF20F093EF27
:1041200020F08CEF20F01200FC40022C8C380E3670
:0D413000C82C1A1A286E756C6C2900FF0F40
:10413E00000E6D6E080E6C6E000E6B6E270E6E6EA0
:10414E006C8A1200166E16B002D06B9A01D06B8A72
:10415E00F1EC1BF06B8812006DB0B8EF20F0BBEFE6
:10416E0020F0010EBCEF20F0000E12000F0E176EA5
:10417E000D0E196EAC0E186E200E41EC1AF01200D8
:10418E00700ED36E040ED26E000E9B6E1200B1C175
:10419E0001F0B2C102F009EC20F01200B5C101F03D
:1041AE00B6C102F01DEC20F01200166EF1EC1BF001
:1041BE0016C06FFF12008C8444EC21F0CEEC20F080
:1041CE0012008C8646EC21F0D5EC20F0120016C0C1
:1041DE00AFF117C0B0F1120016C0B3F117C0B4F1B1
:1041EE00120016C0B7F117C0B8F1120016C0BFF119
:1041FE0017C0C0F1120016C0BBF117C0BCF11200FF
:10420E0016C0BDF117C0BEF1120016C0B9F117C02D
:10421E00BAF11200000E436E000E456E12004950A8
:10422E00D76E48C0D6FF1200176E175089EC20F0DB
:10423E001200F1EC1BF06B841200F1EC1BF06B82A0
:10424E001200F1EC1BF06B801200010E0001C76F23
:10425E001200AB98AB8812008BEC1FF01200D09EB0
:10426E001200D59E1200D58E1200CD8012006B96D4
:10427E0012006B861200B1801200B1901200CD9028
:0B428E001200120012001200120001CA
:020000040020DA
:08000000FFFFFFFFFFFFFFFF00
:020000040030CA
:0E000000FF381F00FFBF81FF0FC00FE00F4051
:00000001FF
