:0400000089EF00F094
:100008004A82FACF0CF0FBCF0DF0E1CF0EF0E2CF31
:100018000FF0D9CF10F0DACF11F0F6CF12F0F7CFFA
:1000280013F0F8CF14F0F5CF15F0F2AA1EEF00F098
:1000380020EF00F02BEF00F0F2A425EF00F027EFFF
:1000480000F02BEF00F00AEC1DF073EF00F0F2ACBB
:1000580030EF00F032EF00F073EF00F09DAA37EFB9
:1000680000F039EF00F04FEF00F09EAA3EEF00F0ED
:1000780040EF00F04FEF00F002D84DEF00F0050020
:10008800FA6E0101BF51FD6EC051FE6EFF6AFA5053
:10009800120073EF00F0A0A254EF00F056EF00F04A
:1000A80061EF00F0A1A25BEF00F05DEF00F061EFFF
:1000B80000F096EC1CF073EF00F09DA066EF00F0E6
:1000C80068EF00F073EF00F09EA06DEF00F06FEFA7
:1000D80000F073EF00F0B4EC1CF073EF00F015C003
:1000E800F5FF14C0F8FF13C0F7FF12C0F6FF11C0E8
:1000F800DAFF10C0D9FF0FC0E2FF0EC0E1FF0DC04C
:0E010800FBFF0CC0FAFF4A921100C9EF19F07C
:101000000001000000496E76616C696420636861CC
:101010006E6E656C2E202F6E00257325632563256B
:101020006300002455252E326425630025302E34BC
:101030007800252E3258006C6C73004F4B004E4FD9
:10104000005953002573000A000086C0D9FF87C0ED
:10105000DAFFDECFF6FFDDCFF7FFF86A0800F550C4
:10106000250AD8A436EF08F038EF08F0A5EF0AF00B
:1010700086C0D9FF87C0DAFFDE2A000EDD22000E0F
:10108000366E000E356E35C03DF037683868000E9C
:101090000001906F000E8F6F79EF08F03D8286C0DF
:1010A000D9FF87C0DAFFDE2A000EDD2279EF08F0D3
:1010B000000E906F010E8F6F79EF08F086C0D9FF98
:1010C00087C0DAFFDECFF6FFDDCFF7FFF86A080052
:1010D000F5508A6F8B6B8B51000AD8B472EF08F011
:1010E00058EF08F08A51300AD8B44EEF08F058EFA4
:1010F00008F08F519011D8B480EF08F082EF08F01B
:101100005EEF08F086C0D9FF87C0DAFFDECFF6FFBA
:10111000DDCFF7FFF86A0800F5502E0AD8A493EF48
:1011200008F095EF08F005EF09F0000E386E000E9C
:10113000376E86C0D9FF87C0DAFFDE2A000EDD22B7
:1011400086C0D9FF87C0DAFFDECFF6FFDDCFF7FF1D
:10115000F86A0800F5502A0AD8A4B1EF08F0B3EFF6
:1011600008F0D0EF08F086C0D9FF87C0DAFFDE2A8A
:10117000000EDD2288C0D9FF89C0DAFFDFCF8AF0F8
:10118000020EDE26DFCF8BF0000EDD228AC0D9FFF3
:101190008BC0DAFFDECF37F0DDCF38F005EF09F096
:1011A00086C0D9FF87C0DAFFDECF1CF0DDCF1DF08F
:1011B000A2EC12F01CC037F01DC038F0E7EF08F0C9
:1011C00086C0D9FF87C0DAFFDE2A000EDD2286C086
:1011D000D9FF87C0DAFFDECFF6FFDDCFF7FFF86A71
:1011E0000800F5CF8AF0D00E00018A258B6F8C6B3A
:1011F000FF0E8C238C5109E10A0E8B5DD8A003EF02
:1012000009F005EF09F0E0EF08F086C0D9FF87C0CC
:10121000DAFFDECFF6FFDDCFF7FFF86A0800F55002
:10122000630AD8A416EF09F018EF09F03BEF09F0B4
:1012300086C0D9FF87C0DAFFDE2A000EDD2288C013
:10124000D9FF89C0DAFFDFCF8AF0020EDE26DFCFBA
:101250008BF0000EDD228AC0D9FF8BC0DAFFDF5091
:101260008E6F84C021F085C022F08EC023F05DEC2B
:1012700017F0BAEF0AF086C0D9FF87C0DAFFDECFD9
:101280009BF0DDCF9CF09BC0F6FF9CC0F7FFF86A97
:101290000800F550640AD8B450EF09F052EF09F095
:1012A00061EF09F09BC0F6FF9CC0F7FFF86A0800E9
:1012B000F550690AD8A45FEF09F061EF09F0A4EFD7
:1012C00009F088C0D9FF89C0DAFFDFCF8AF0020EAB
:1012D000DE26DFCF8BF0000EDD228AC0D9FF8BC067
:1012E000DAFFDECF93F0DDCF94F0000E94BFFF0E57
:1012F000956F966F976F986F996F9A6F010E9B25F8
:101300008A6F000E9C218B6F86C0D9FF87C0DAFFE1
:101310008AC0DEFF8BC0DDFF84C060F085C061F055
:1013200093C062F094C063F095C064F096C065F01D
:1013300097C066F098C067F099C068F09AC069F0ED
:10134000B5EC0EF0BAEF0AF09BC0F6FF9CC0F7FFB9
:10135000F86A0800F550780AD8B4B1EF09F0B3EF95
:1013600009F0C2EF09F09BC0F6FF9CC0F7FFF86AD6
:101370000800F550580AD8A4C0EF09F0C2EF09F0F0
:101380002BEF0AF088C0D9FF89C0DAFFDFCF8AF0DF
:10139000020EDE26DFCF8BF0000EDD228AC0D9FFE1
:1013A0008BC0DAFFDECF8CF0DDCF8DF08CC093F0F8
:1013B0008DC094F0956B966B976B986B996B9A6B4D
:1013C000010E9B258A6F000E9C218B6F86C0D9FF72
:1013D00087C0DAFF8AC0DEFF8BC0DDFF10EF0AF0A6
:1013E00084C060F085C061F093C062F094C063F087
:1013F00095C064F096C065F097C066F098C067F03D
:1014000099C068F09AC069F09BC0F6FF9CC0F7FFD6
:10141000F86A0800F5CF6AF012EC10F0BAEF0AF0A3
:101420009BC0F6FF9CC0F7FFF86A0800F5508A6F72
:101430008B6B8B51000AD8B420EF0AF02BEF0AF027
:101440008A51580AD8B4F0EF09F0200AD8B4F0EF66
:1014500009F02BEF0AF086C0D9FF87C0DAFFDECF94
:10146000F6FFDDCFF7FFF86A0800F550730AD8B42D
:101470003CEF0AF03EEF0AF059EF0AF086C0D9FFC0
:1014800087C0DAFFDECF16F0DDCF17F0370E186E0B
:10149000100E196E000E1B6E030E1A6EEEEC13F09A
:1014A00016501710D8A457EF0AF059EF0AF09CEF26
:1014B0000AF086C0D9FF87C0DAFFDECFF6FFDDCFA6
:1014C000F7FFF86A0800F550730AD8B46AEF0AF01B
:1014D0006CEF0AF073EF0AF0000E0001926F030E3A
:1014E000916F78EF0AF0000E0001926F010E916F7C
:1014F00086C0D9FF87C0DAFF9151DE269251DD22E6
:1015000084C021F085C022F088C0D9FF89C0DAFFED
:10151000DFCF8AF0020EDE26DFCF8BF0000EDD2259
:101520008AC0D9FF8BC0DAFFDECF23F0DDCF24F0F5
:101530004CEC13F0BAEF0AF086C0D9FF87C0DAFF8F
:10154000DE2A000EDD22BAEF0AF086C0D9FF87C07E
:10155000DAFFDECFF6FFDDCFF7FFF86A0800F550BF
:10156000186E196A84C01AF085C01BF035EC15F0AE
:101570009CEF0AF01200000E0001646F000E6B6F0A
:10158000000E6C6F000E6D6F000E6E6F23C06FF05B
:1015900024C070F028BED8EF0AF0285007E1250ECD
:1015A000275CD8B0D6EF0AF0D8EF0AF0E1EF0AF0E6
:1015B00027042810D8A4DFEF0AF0E1EF0AF0E8EFE3
:1015C0000AF0000E0101256F160E246FE6EF0CF0F5
:1015D0006F517011D8B4EFEF0AF0F1EF0AF0E6EFB7
:1015E0000CF06FC0D9FF70C0DAFFDF50D8A4FBEF5A
:1015F0000AF0FDEF0AF0FFEF0AF0E6EF0CF06FC023
:10160000D9FF70C0DAFFDF50716F0FEF0BF06F4B37
:10161000702B6FC0D9FF70C0DAFFDF50716F200EE2
:101620007119D8B416EF0BF018EF0BF007EF0BF0B1
:10163000F70E71252A6E2B6AFF0E2B222B5009E123
:10164000050E2A5CD8A027EF0BF029EF0BF007EF6F
:101650000BF0000E696F000E6A6F2D0E7119D8A481
:1016600034EF0BF036EF0BF042EF0BF0010E696F29
:101670006F4B702B6FC0D9FF70C0DAFFDF50716FF6
:101680004DEF0BF02B0E7119D8A449EF0BF04BEF77
:101690000BF04DEF0BF038EF0BF0300E7119D8A4B2
:1016A00054EF0BF056EF0BF0DBEF0BF06F4B702BA2
:1016B0006FC0D9FF70C0DAFFDF50716F275028105C
:1016C000D8B465EF0BF067EF0BF071EF0BF0100E75
:1016D00027182810D8A46FEF0BF071EF0BF0CCEFA8
:1016E0000BF0780E7119D8B478EF0BF07AEF0BF09D
:1016F00083EF0BF0580E7119D8A481EF0BF083EF34
:101700000BF0CCEF0BF0000E286E100E276E6F4B17
:10171000702B6FC0D9FF70C0DAFFDF50716F71514D
:101720002A6E2B6A200E2A12000E2B129F0E2A24DC
:101730002C6EFF0E2B202D6E2D5007E11A0E2C5C07
:10174000D8B0A5EF0BF0A7EF0BF0B6EF0BF071C020
:101750001AF01B6AD2EC1CF0C90E1A26100E1A6081
:10176000B4EF0BF0B6EF0BF0C4EF0BF071C01CF050
:101770001D6AFAEC19F01C501D10D8A4C2EF0BF032
:10178000C4EF0BF0DBEF0BF0010E0001646F6F078D
:10179000D8A07007E6EF0CF0010E646F27502810F8
:1017A000D8A4D5EF0BF0D7EF0BF0DBEF0BF0000E6A
:1017B000286E080E276E27502810D8A4E2EF0BF0F1
:1017C000E4EF0BF0E8EF0BF0000E286E0A0E276E28
:1017D0002950D8B4EEEF0BF0F0EF0BF00DEF0CF05A
:1017E00000016951D8A4F7EF0BF0F9EF0BF003EF0C
:1017F0000CF0FF0E656FFF0E666FFF0E676F7F0EBA
:10180000686F12EF0CF0000E656F000E666F000E31
:10181000676F800E686F12EF0CF0000165696669F2
:10182000676968696BC060F06CC061F06DC062F0A0
:101830006EC063F071512A6E2B6A200E2A12000EC0
:101840002B129F0E2A242C6EFF0E2B202D6E2D5056
:1018500007E11A0E2C5CD8B030EF0CF032EF0CF030
:101860003DEF0CF071C01AF01B6AD2EC1CF01A505C
:10187000C90F0001716F50EF0CF0D00E71252A6E68
:101880002B6AFF0E2B222B5007E10A0E2A5CD8B0E0
:101890004CEF0CF04EEF0CF0CEEF0CF0300E715F11
:1018A00071512A6E2B6A27502A5C2B50800A2C6EAD
:1018B0002850800A2C58D8A060EF0CF062EF0CF092
:1018C00064EF0CF0CEEF0CF06A51D8A46AEF0CF084
:1018D0006CEF0CF0C2EF0CF027C016F028C017F028
:1018E000000E17BEFF0E186E196E6BC01AF06CC09A
:1018F0001BF06DC01CF06EC01DF061EC19F0000112
:10190000715116246B6F000E17206C6F000E18209B
:101910006D6F000E19206E6F60516B5D61516C59D7
:1019200062516D5963516E59D8A099EF0CF09BEF3D
:101930000CF0B2EF0CF02950D8B4A1EF0CF0A3EFEB
:101940000CF0C2EF0CF06B51655D6C5166596D5136
:1019500067596E516859D8B0B0EF0CF0B2EF0CF087
:10196000C2EF0CF065C06BF066C06CF067C06DF044
:1019700068C06EF0000E0101256F220E246F010E6B
:1019800000016A6F6F4B702B6FC0D9FF70C0DAFF18
:10199000DF50716F010E646F12EF0CF06A51D8A422
:1019A000D4EF0CF0D6EF0CF0E6EF0CF06951D8B4A0
:1019B000DCEF0CF0DEEF0CF0E6EF0CF06E1F6D1FAD
:1019C0006C1F6B6D000E6C236D236E23255026104B
:1019D000D8B4EDEF0CF0EFEF0CF004EF0DF00001D8
:1019E0006451D8A4F6EF0CF0F8EF0CF0FCEF0CF01B
:1019F00023C06FF024C070F025C0D9FF26C0DAFFE5
:101A00006FC0DEFF70C0DDFF6BC023F06CC024F040
:101A10006DC025F06EC026F01200000E0201466F68
:101A2000000E4625D96EDA6A020EDA22000EDF6E4B
:101A3000462B1D0E46651FEF0DF021EF0DF010EF48
:101A40000DF0000E0001A36F020EA46F230EA56F10
:101A5000100EA66F3EC0A7F0A86B41C0A9F0AA6BFC
:101A600005EC1BF00001CA51D8B439EF0DF03BEF83
:101A70000DF07DEF0DF064EC1FF00001C751D8B4FC
:101A800044EF0DF046EF0DF03DEF0DF062EC1FF06E
:101A9000000E0001C76F3EEC1FF0AAEC17F0445097
:101AA000D8A455EF0DF057EF0DF060EF0DF0000EDC
:101AB000426E000E0001CA6F44C0CDF0B2EF0EF0CE
:101AC000000E166E020E176E56EC1BF0000E16245A
:101AD0000201476F020E1720486F47C2A3F048C2A9
:101AE000A4F03B0E0001A56F100EA66F05EC1BF0D5
:101AF000000E0001CA6F9CEF0EF0C951D8B483EFFD
:101B00000DF085EF0DF04FEF0EF04450D8A48BEFA1
:101B10000DF08DEF0DF093EF0DF0000E426E000E04
:101B2000C96F5CEF0DF01E0EA36F020EA46F2C0E9A
:101B3000A56F100EA66F8DC1A7F08EC1A8F005ECA1
:101B40001BF0000E0201226F280E0001A36F020E8F
:101B5000A46F2C0EA56F100EA66F8FC1A7F090C1B9
:101B6000A8F005EC1BF0000E02012C6F320E0001F4
:101B7000A36F020EA46F2C0EA56F100EA66F91C15D
:101B8000A7F092C1A8F005EC1BF0000E0201366F21
:101B90003C0E0001A36F020EA46F2C0EA56F100E59
:101BA000A66F93C1A7F094C1A8F005EC1BF0000E3E
:101BB0000201406F000E166E020E176E56EC1BF0FF
:101BC000000E16241A6E020E17201B6E1E0E1C6EBF
:101BD000020E1D6E1E0E166E020E176E56EC1BF0D8
:101BE00016C01EF017C01FF02EEC1BF0000E166E74
:101BF000020E176E56EC1BF0000E16241A6E020E23
:101C000017201B6E280E1C6E020E1D6E280E166EFF
:101C1000020E176E56EC1BF016C01EF017C01FF018
:101C20002EEC1BF0000E166E020E176E56EC1BF01B
:101C3000000E16241A6E020E17201B6E320E1C6E3A
:101C4000020E1D6E320E166E020E176E56EC1BF053
:101C500016C01EF017C01FF02EEC1BF0000E166E03
:101C6000020E176E56EC1BF0000E16241A6E020EB2
:101C700017201B6E3C0E1C6E020E1D6E3C0E166E67
:101C8000020E176E56EC1BF016C01EF017C01FF0A8
:101C90002EEC1BF0000E0001C96F9CEF0EF0C85136
:101CA000D8B455EF0EF057EF0EF09CEF0EF0CD517B
:101CB000D8A45DEF0EF05FEF0EF07DEF0EF0000E9A
:101CC000166E020E176E56EC1BF0000E1624020163
:101CD000476F020E1720486F47C2A3F048C2A4F016
:101CE000440E0001A56F100EA66F410EA76F100ED7
:101CF000A86F05EC1BF099EF0EF0000E166E020EA9
:101D0000176E56EC1BF0000E16240201476F020EF0
:101D10001720486F47C2A3F048C2A4F0440E000148
:101D2000A56F100EA66F3E0EA76F100EA86F05ECE4
:101D30001BF0000E0001C86F000EC16F020EC26FD3
:101D4000A6EC1BF0650E1A6E010E1B6EF4EC17F07C
:101D5000470E1A6E100E1B6EF4EC17F0000E426E5A
:101D60005CEF0DF0000E436E120062C078F063C0AD
:101D700079F064C07AF065C07BF066C07CF067C023
:101D80007DF068C07EF069C07FF000017FBFCBEFBF
:101D90000EF0CEEF0EF0010ECFEF0EF0000E806FC2
:101DA0008051D8B4D6EF0EF0D8EF0EF0E8EF0EF079
:101DB0007F1F7E1F7D1F7C1F7B1F7A1F791F786D01
:101DC000000E79237A237B237C237D237E237F23AC
:101DD00038BEEDEF0EF0EFEF0EF0F0EF0EF03D92AB
:101DE00038BEFDEF0EF0385006E13704D8B0FBEFF7
:101DF0000EF0FDEF0EF003EF0FF0000E756F010E09
:101E0000746F07EF0FF037C074F038C075F035C04D
:101E100076F036C077F08051D8B411EF0FF013EFA1
:101E20000FF02AEF0FF07607D8A077078051D8A4DB
:101E30001CEF0FF01EEF0FF024EF0FF0000E736F8A
:101E40002B0E726F28EF0FF0000E736F2D0E726F56
:101E500072C080F0000E826F1F0E816F000E0101B4
:101E6000506FB0EF0FF08107D8A08207310E8125A7
:101E7000D96E010E8221DA6E78C016F079C017F0A3
:101E80007AC018F07BC019F07CC01AF07DC01BF03E
:101E90007EC01CF07FC01DF00A0E1E6E000E1F6E6D
:101EA000000E206E000E216E000E226E000E236EBC
:101EB000000E246E000E256EF0EC11F016C06AF0D4
:101EC00017C06BF018C06CF019C06DF01AC06EF03E
:101ED0001BC06FF01CC070F01DC071F06AC028F00C
:101EE0006BC029F076EC1CF02850300FDF6E00013B
:101EF0007407D8A075077607D8A0770778C016F0C2
:101F000079C017F07AC018F07BC019F07CC01AF0C5
:101F10007DC01BF07EC01CF07FC01DF00A0E1E6E3F
:101F2000000E1F6E000E206E000E216E000E226E3F
:101F3000000E236E000E246E000E256E2CEC11F0A8
:101F400016C078F017C079F018C07AF019C07BF08D
:101F50001AC07CF01BC07DF01CC07EF01DC07FF05D
:101F6000000182BFBCEF0FF0825108E18105D8A0CB
:101F7000BCEF0FF0BEEF0FF0EEEF0FF078517911DC
:101F80007A117B117C117D117E117F11D8A4CBEFCA
:101F90000FF0CDEF0FF033EF0FF075BFDAEF0FF06A
:101FA000755106E17405D8B0D8EF0FF0DAEF0FF0F5
:101FB00033EF0FF077BFE5EF0FF0775108E17605CB
:101FC000D8A0E5EF0FF0E7EF0FF0EEEF0FF03DB226
:101FD000ECEF0FF0EEEF0FF033EF0FF08051D8B4CD
:101FE000F4EF0FF0F6EF0FF001EF10F08107D8A03B
:101FF0008207310E8125D96E010E8221DA6E80C0F2
:10200000DFFF60C028F061C029F0310E81252A6E03
:10201000010E82212B6E76C02CF077C02DF0B4EC2F
:1020200018F0120038BE17EF10F019EF10F01AEF89
:1020300010F03D9238BE27EF10F0385006E137041B
:10204000D8B025EF10F027EF10F02EEF10F0000EB3
:102050000001766F010E756F32EF10F037C075F02A
:1020600038C076F035C077F036C078F062C079F0CD
:1020700063C07AF064C07BF065C07CF066C07DF020
:1020800067C07EF068C07FF069C080F0000E00017C
:10209000826F1F0E816F000E0101506FDCEF10F098
:1020A0008107D8A0820779510F0B836F090E8365D2
:1020B0005CEF10F05EEF10F066EF10F0570E832526
:1020C000736F746B000E74236CEF10F0300E832569
:1020D000736F746B000E742373C083F0BF0E6A2598
:1020E0006B6F6C6BFF0E6C236C5107E11A0E6B5D0E
:1020F000D8B07DEF10F07FEF10F09FEF10F083511C
:102100006B6F6C6B200E6B13000E6C139F0E6B25A8
:102110006D6FFF0E6C216E6F6E5107E11A0E6D5DD3
:10212000D8B095EF10F097EF10F09FEF10F083C04C
:102130001AF01B6AD2EC1CF01A500001836F310EAA
:102140008125D96E010E8221DA6E83C0DFFF75070B
:10215000D8A076077707D8A0780779C06BF07AC047
:102160006CF07BC06DF07CC06EF07DC06FF07EC007
:1021700070F07FC071F080C072F0050EC9EF10F0F2
:10218000D8907233713370336F336E336D336C3379
:102190006B33E82EC0EF10F06BC079F06CC07AF0B2
:1021A0006DC07BF06EC07CF06FC07DF070C07EF0C3
:1021B00071C07FF072C080F0000182BFE9EF10F0C3
:1021C000825109E1020E815DD8A0E9EF10F0EBEF3A
:1021D00010F01BEF11F079517A117B117C117D11F8
:1021E0007E117F118011D8A4F8EF10F0FAEF10F0F3
:1021F00050EF10F076BF07EF11F0765106E175054C
:10220000D8B005EF11F007EF11F050EF10F078BFE4
:1022100012EF11F0785108E17705D8A012EF11F014
:1022200014EF11F01BEF11F03DB219EF11F01BEF9D
:1022300011F050EF10F060C028F061C029F0310EAD
:1022400081252A6E010E82212B6E77C02CF078C07A
:102250002DF0B4EC18F01200000E276E25BE35EFFD
:1022600011F033EF11F047EF11F0251E241E231E4D
:10227000221E211E201E1F1E1E6C000E1F22202249
:1022800021222222232224222522010E276E1DBE76
:102290004EEF11F04CEF11F060EF11F01D1E1C1EFF
:1022A0001B1E1A1E191E181E171E166C000E172252
:1022B000182219221A221B221C221D22010E271A63
:1022C00020EE28F0070EDE6AE806FDE21E501F1021
:1022D000201021102210231024102510D8B473EFE1
:1022E00011F075EF11F0C7EF11F0010E266E83EFBC
:1022F00011F0D8901E361F3620362136223623366E
:1023000024362536262A25AE88EF11F08AEF11F003
:1023100079EF11F0D890283629362A362B362C360C
:102320002D362E362F361E50165C1F501758205053
:1023300018582150195822501A5823501B5824500D
:102340001C5825501D58D8A0A8EF11F0AAEF11F085
:10235000BBEF11F01E50165E1F50175A2050185A2E
:102360002150195A22501A5A23501B5A24501C5AD1
:1023700025501D5A2880D89025322432233222320B
:10238000213220321F321E32262E8AEF11F02750C2
:10239000D8B4CDEF11F0CFEF11F0DFEF11F02F1E19
:1023A0002E1E2D1E2C1E2B1E2A1E291E286C000ED2
:1023B00029222A222B222C222D222E222F2228C013
:1023C00016F029C017F02AC018F02BC019F02CC045
:1023D0001AF02DC01BF02EC01CF02FC01DF01200F3
:1023E000000E276E1DBEF9EF11F0F7EF11F00BEFA5
:1023F00012F01D1E1C1E1B1E1A1E191E181E171E53
:10240000166C000E1722182219221A221B221C22D7
:102410001D22010E276E25BE12EF12F010EF12F0F2
:1024200022EF12F0251E241E231E221E211E201E16
:102430001F1E1E6C000E1F22202221222222232278
:10244000242225221E501F1020102110221023109C
:1024500024102510D8B42FEF12F031EF12F079EFDD
:1024600012F0010E266E3FEF12F0D8901E361F3686
:10247000203621362236233624362536262A25AE26
:1024800044EF12F046EF12F035EF12F01E50165CDA
:102490001F501758205018582150195822501A58B8
:1024A00023501B5824501C5825501D58D8A05BEFB2
:1024B00012F05DEF12F06DEF12F01E50165E1F501D
:1024C000175A2050185A2150195A22501A5A23507C
:1024D0001B5A24501C5A25501D5AD890253224329C
:1024E00023322232213220321F321E32262E46EF74
:1024F00012F02750D8B47FEF12F081EF12F091EF75
:1025000012F01D1E1C1E1B1E1A1E191E181E171E41
:10251000166C000E1722182219221A221B221C22C6
:102520001D2216C016F017C017F018C018F019C0F9
:1025300019F01AC01AF01BC01BF01CC01CF01DC003
:102540001DF01200000E246E000E236E000E226E8F
:10255000000E216EAEEF12F01C4A1D2A1CC0F6FFC1
:102560001DC0F7FFF86A0800F550200AD8B4BBEF89
:1025700012F0BDEF12F0ACEF12F01CC0F6FF1DC060
:10258000F7FFF86A0800F5CF1EF0F70E1E241F6E45
:10259000206AFF0E2022205009E1050E1F5CD8A002
:1025A000D4EF12F0D6EF12F0ACEF12F0E0EF12F031
:1025B000000E226E010E216E1C4A1D2A17EF13F029
:1025C0001CC0F6FF1DC0F7FFF86A0800F5501E6E2C
:1025D0001F6A1F50000AD8B4F0EF12F017EF13F083
:1025E0001E502B0AD8B4DCEF12F0060AD8B4D8EF8C
:1025F00012F017EF13F023C016F024C017F0000EEE
:10260000196E0A0E186E5BEC1EF01CC0F6FF1DC0A2
:10261000F7FFF86A0800F550165E000E175A300EE4
:102620001624236E000E1720246EDCEF12F01CC05F
:10263000F6FF1DC0F7FFF86A0800F5CF1EF0D00EB8
:102640001E241F6E206AFF0E2022205009E10A0E70
:102650001F5CD8A02EEF13F030EF13F0FBEF12F059
:1026600021502210D8A437EF13F039EF13F047EFC1
:1026700013F023C01EF024C01FF01E1E1F1E1E4A92
:102680001F2A1EC01CF01FC01DF04BEF13F023C00B
:102690001CF024C01DF0120021EEA6F010EE60F038
:1026A000060EDBCFE3FFE806FCE223C06BF024C09C
:1026B0006CF000016B516C11D8A461EF13F063EF63
:1026C00013F067EF13F0600E6B6F000E6C6F6BC052
:1026D00016F06CC017F056EC1BF016C06DF017C06A
:1026E0006EF037C06FF038C070F0000170BF7BEF44
:1026F00013F07DEF13F092EF13F06D516F5D705199
:10270000800A256E6E51800A2558D8A08AEF13F0F2
:102710008CEF13F08EEF13F092EF13F06FC06DF0AB
:1027200070C06EF06DC06FF06EC070F035C067F0B5
:1027300036C068F0A9EF13F0000E196E200E186E67
:1027400021C01AF022C01BF035EC15F000016D4BD2
:102750006E2B67516D5D6E51800A256E6851800A3F
:102760002558D8A0B6EF13F0B8EF13F09CEF13F094
:10277000000E6A6F000E696FDEEF13F06BC0F6FF9C
:102780006CC0F7FF000EF86E0F0EF76403D0080060
:10279000F55005D0F6CFE1FFF7CFE2FFE750256E09
:1027A0002550186E196A21C01AF022C01BF035ECB2
:1027B00015F000016B4B6C2B694B6A2B6F51695DF7
:1027C0006A51800A256E7051800A2558D8A0EBEF17
:1027D00013F0EDEF13F0BEEF13F0120016C01DF072
:1027E00017C01EF018C01FF019C020F01A06D8A09C
:1027F0001B061A2806E11B28D8A401EF14F003EFEA
:1028000014F010EF14F0000E176E000E166E62EF4B
:1028100014F01D4A1E2A1F4A202A1A06D8A01B0699
:102820001DC0F6FF1EC0F7FFF86A0800F55000094A
:10283000D8B41DEF14F01FEF14F04EEF14F01FC0CA
:10284000F6FF20C0F7FFF86A0800F5500009D8B479
:102850002CEF14F02EEF14F04EEF14F01A501B1062
:10286000D8B435EF14F037EF14F04EEF14F01DC06C
:10287000F6FF1EC0F7FFF86A0800F5CF1CF01FC076
:10288000F6FF20C0F7FFF86A0800F5501C18D8B40E
:102890004CEF14F04EEF14F009EF14F01DC0F6FFEA
:1028A0001EC0F7FFF86A0800F5CF1CF01FC0F6FF46
:1028B00020C0F7FFF86A0800F5501C5C166E176A16
:1028C000D8A01706120080B868EF14F06BEF14F070
:1028D000010E6CEF14F0000E186E196A183A193ACE
:1028E000F00E191618500F0B1912F00E181680B6AC
:1028F0007CEF14F07FEF14F0010E80EF14F0000E67
:102900001A6E1B6AD8901A361B36D8901A361B36A8
:10291000D8901A361B3680B490EF14F093EF14F071
:10292000010E94EF14F0000E1C6E1D6AD8901C3638
:102930001D36D8901C361D3680B2A1EF14F0A4EFDE
:1029400014F0010EA5EF14F0000E1E6E1F6AD89051
:102950001E361F3680B0AFEF14F0B2EF14F0010E48
:10296000B3EF14F0000E206E216A1E502010226E6C
:102970001F502110236E1C502210246E1D50231056
:10298000256E1A502410266E1B502510276E1850E5
:102990002610166E19502710176E12008C946AECD0
:1029A0001FF00AEC1EF00B6E1BEF15F0000E01017C
:1029B000276F000E266F790E056E010E066E33EC42
:1029C0001CF0010E456E240E0B18D8A4EAEF14F08B
:1029D000ECEF14F034EF15F00B508FEC1EF0020EFC
:1029E000456E34EF15F0010127BF00EF15F02751B8
:1029F00009E1140E265DD8A000EF15F002EF15F0E6
:102A000004EF15F0000E456E0B508FEC1EF02A0EF1
:102A10000B18D8A40EEF15F010EF15F034EF15F0E9
:102A2000010E426E000E8FEC1EF0010E436E000E82
:102A3000456E34EF15F04550096E0A6A0A50000AD7
:102A4000D8B425EF15F034EF15F00950000AD8B4CA
:102A5000D6EF14F0010AD8B4E3EF14F0030AD8B4A7
:102A6000F3EF14F034EF15F012001A501B10D8B425
:102A70003CEF15F03EEF15F047EF15F01A501B1024
:102A8000D8A445EF15F047EF15F04CEF15F01850AE
:102A900043EC1FF099EF15F020EE09F01A50D926FB
:102AA0001B50DA22DE50DE10D8B459EF15F05BEF80
:102AB00015F076EF15F020EE09F01A50D9261B50CC
:102AC000DA2210EE03F01A50E1261B50E222DE500B
:102AD000E65CE650800A206EDE50800A2058D8B0AE
:102AE00074EF15F076EF15F099EF15F020EE03F086
:102AF0001A50D9261B50DA22DECF1CF0DDCF1DF094
:102B00001AC0D9FF1BC0DAFFDECF1EF0DDCF1FF0E9
:102B10001C501E24D96E1D501F20DA6E18C0DFFF16
:102B200020EE03F01A50D9261B50DA22DE2A000EBE
:102B3000DD221200790E1A6E010E1B6EF4EC17F0F6
:102B4000470E1A6E100E1B6EF4EC17F0510E1A6E33
:102B5000010E1B6E11EC1CF0980E1A6E010E1B6E0E
:102B600011EC1CF0950E1A6E010E1B6E11EC1CF090
:102B7000F1EC18F036EC18F0950E2E6E010E2F6E5B
:102B8000000E306E000E316E000E336E100E326E7F
:102B900041EC1DF02EC0C1F02FC0C2F0510E00015B
:102BA000BC6F010EBD6F2AEC19F0980E2E6E010E4F
:102BB0002F6E000E306E000E316E000E336E100E52
:102BC000326E41EC1DF02EC0C3F02FC0C4F00001E6
:102BD000C151C31907E1C251C419D8A4F2EF15F0CD
:102BE000F4EF15F0F8EF15F0020E436EFCEF15F060
:102BF000000E426E000E436E12006EEC1EF01C5072
:102C00003F6E63EC14F016503E6E4450D8B40BEF98
:102C100016F00DEF16F02FEF16F04404D8A413EFC2
:102C200016F015EF16F04CEF16F03E503F18D8A4F2
:102C30001CEF16F01EEF16F04CEF16F02FEF16F00B
:102C4000010E0001CA6F48EF16F0010E0001C96FB6
:102C500048EF16F0010E0001C86F48EF16F0415022
:102C6000286E296A2950000AD8B439EF16F04CEFC3
:102C700016F02850430AD8B42AEF16F0040AD8B444
:102C800025EF16F0150AD8B420EF16F04CEF16F029
:102C9000050E436E5BEF16F0000E426E000E010152
:102CA000276F000E266F790E1A6E010E1B6E11EC47
:102CB0001CF0000E436E1200140E4724D96EDA6A1F
:102CC000010EDA22000EDF6EABA469EF16F06BEF97
:102CD00016F07FEF16F0140E4724D96EDA6A010E53
:102CE000DA220101DF8202D87FEF16F00500FA6ECA
:102CF000BD51FD6EBE51FE6EFF6AFA501200ABA2CE
:102D000084EF16F086EF16F09AEF16F0140E4724B3
:102D1000D96EDA6A010EDA220101DF8402D89AEF55
:102D200016F00500FA6EBB51FD6EBC51FE6EFF6AD7
:102D3000FA501200140E4724D96EDA6A010EDA2214
:102D4000DF50D8B4A6EF16F0A8EF16F0B7EF16F0E4
:102D500002D8B5EF16F00500FA6E0101B951FD6E0B
:102D6000BA51FE6EFF6AFA501200B9EF16F0CAECC3
:102D70001DF0120080EC1EF0C9EC1EF09C0E166EC9
:102D8000290E176E25EC1FF0A80E166E3E0E176E5C
:102D900020EC1FF0200E166E3E0E176E1BEC1FF07F
:102DA000140E166E3E0E176E16EC1FF0F28EF28C9D
:102DB00039EC1FF0E7EC1EF0060E0001C56F300E77
:102DC000E82EFED7C52FFCD700F0B4EC1DF0425022
:102DD000D8B4EDEF16F0EFEF16F0E7EF16F0435032
:102DE000020D9A0EF324D96E010EF420DA6EDECFB6
:102DF000C5F0DDCFC6F002D808EF17F00500FA6E77
:102E00000001C551FD6EC651FE6EFF6AFA501200F8
:102E1000E7EF16F089EF00F01F6E50EC1FF01F5027
:102E200004EC1FF09CEC1EF00009D8B41AEF17F068
:102E30001CEF17F01EEF17F00DEF17F0195004EC10
:102E40001FF09CEC1EF00009D8B429EF17F02BEF0F
:102E500017F02DEF17F00DEF17F048EC1FF01F5093
:102E6000010904EC1FF09CEC1EF00009D8B43BEF04
:102E700017F03DEF17F03FEF17F00DEF17F0000ED2
:102E80005AEC1DF01C6E1C501E6E1D6A1AC0D9FF34
:102E90001BC0DAFF1DC0DEFF1EC0DDFF010E5AECB5
:102EA0001DF01C6E1C501AC0D9FF1BC0DAFFDE26B5
:102EB000000EDD224CEC1FF0120035503610D8A465
:102EC00064EF17F066EF17F06CEF17F035C027F0DE
:102ED00036C028F072EF17F0FF0E3524276EFF0E74
:102EE0003620286E28BE77EF17F079EF17F07BEFCA
:102EF00017F07FEF17F0000E286E000E276E000E01
:102F0000266E000E256E91EF17F0000E196E200E42
:102F1000186E21C01AF022C01BF035EC15F0254ABE
:102F2000262A2750255C2650800A246E2850800AC5
:102F30002458D8A09EEF17F0A0EF17F085EF17F0F8
:102F400023C018F0196A21C01AF022C01BF035EC1A
:102F500015F01200140E176E020E186E400E96EC4D
:102F600019F01C0E176E010E186E400E96EC19F03B
:102F7000100E196E200E1A6E000E1B6E400E76ECAF
:102F800018F020B0C6EF17F0C8EF17F0B8EF17F041
:102F9000140E176E000E186E400E96EC19F0200EEF
:102FA000196E8D0E1A6E010E1B6E400E0CEC17F092
:102FB000210E196E8F0E1A6E010E1B6E400E0CEC58
:102FC00017F0220E196E910E1A6E010E1B6E400E36
:102FD0000CEC17F0230E196E930E1A6E010E1B6E79
:102FE000400E0CEC17F012008C9660EC1FF08B8AF0
:102FF000000E1F6E000E1E6E23EF18F01FEC1EF069
:103000000009D8B406EF18F008EF18F0FEEF17F03B
:103010001E501A241C6E1F501B201D6E1CC0F6FF74
:103020001DC0F7FF000EF86E0F0EF76403D0080006
:10303000F55005D0F6CFE1FFF7CFE2FFE750B3EC54
:103040001EF01E4A1F2A1AC016F01BC017F056ECBD
:103050001BF016501E5C17501F58D8A032EF18F006
:1030600034EF18F0FEEF17F08B9A1200000E1E6E70
:10307000790E166E010E176E56EC1BF01650FD0FF2
:103080001F6E53EF18F0790E1F24D96EDA6A010E05
:10309000DA22950E1E24E16EE26A010EE222DFCFF3
:1030A000E7FF1E2A1F2A790E166E010E176E56ECC8
:1030B0001BF0FF0E16241A6EFF0E17201B6E1F50FA
:1030C0001C6E1D6A1A501C5C1B501D58D8A06BEF5B
:1030D00018F06DEF18F043EF18F0950E1E24D96E1E
:1030E000DA6A010EDA22000EDF6E12001C6E50EC5E
:1030F0001FF01C5004EC1FF09CEC1EF00009D8B42B
:1031000084EF18F086EF18F088EF18F077EF18F0DA
:10311000195004EC1FF09CEC1EF00009D8B493EF9A
:1031200018F095EF18F097EF18F077EF18F048ECDB
:103130001FF01C50010904EC1FF09CEC1EF000096C
:10314000D8B4A5EF18F0A7EF18F0A9EF18F077EFB3
:1031500018F0010E5AEC1DF01AC0D9FF1BC0DAFF9F
:10316000DF6E4CEC1FF012002DBEB9EF18F0BBEF74
:1031700018F0C1EF18F02CC031F02DC032F0C5EFBF
:1031800018F0000E326E000E316E000E306E000E22
:103190002F6ED7EF18F0000E196E200E186E28C093
:1031A0001AF029C01BF035EC15F02F4A302A3150A7
:1031B0002F5C3050800A2E6E3250800A2E58D8A0D4
:1031C000E4EF18F0E6EF18F0CBEF18F02AC021F08A
:1031D0002BC022F028C023F029C024F0EFEC1BF014
:1031E0001200000E1E6E000E1F6E07EF19F0790E12
:1031F0001F24D96EDA6A010EDA22510E1E24E16E06
:10320000E26A010EE222DFCFE7FF1E2A1F2A790EB3
:10321000166E010E176E56EC1BF0FD0E16241A6E7C
:10322000FF0E17201B6E1F501C6E1D6A1A501C5C6F
:103230001B501D58D8A01FEF19F021EF19F0F7EF20
:1032400018F0510E1E24D96EDA6A010EDA22000E31
:10325000DF6E1200BCC0D9FFBDC0DAFFDF50000135
:10326000BE6F000EC06F010EBF6F41EF19F0BF516E
:10327000BC25D96EC051BD21DA6EDF50BE1BBF4BDD
:10328000C02BBCC016F0BDC017F056EC1BF016509A
:103290000001BF5D1750C059D8A051EF19F053EF8E
:1032A00019F037EF19F0980EA36F010EA46F320ECC
:1032B000A56F100EA66FBEC0A7F0A86B05EC1BF0A3
:1032C0001200000E1E6E000E1F6E000E206E000E0D
:1032D000216E16A06EEF19F070EF19F078EF19F06B
:1032E0001A501E261B501F221C5020221D50212226
:1032F000D8901A361B361C361D36D8901932183223
:10330000173216321650171018101910D8A48BEF58
:1033100019F08DEF19F069EF19F01EC016F01FC0FB
:1033200017F020C018F021C019F01200196E50ECEF
:103330001FF0195004EC1FF09CEC1EF00009D8B4EB
:10334000A4EF19F0A6EF19F0A8EF19F097EF19F014
:10335000175004EC1FF09CEC1EF00009D8B4B3EF3A
:1033600019F0B5EF19F0B7EF19F097EF19F0185001
:1033700004EC1FF09CEC1EF00009D8B4C2EF19F069
:10338000C4EF19F0C6EF19F097EF19F04CEC1FF0ED
:1033900012007C0EF66E3D0EF76E000EF86E01EE1A
:1033A0009AF010EE15F00900F5CFEEFFE550E15070
:1033B000FAE1E80EF66E3E0EF76E000EF86E0900AA
:1033C000F5CFCDF001EE00F09A0EEE6AE806FDE1D1
:1033D0000001CC6BCB6BCA6BC96BC86BC76B00EEC3
:1033E00035F0130EEE6AE806FDE14A904A920001BC
:1033F000BAEF16F0010E226E200E1C101E6E000E8B
:103400001D101F6E9F0E1E24206EFF0E1F20216EAA
:10341000215009E11A0E205CD8A011EF1AF013EF29
:103420001AF026EF1AF0D00E1C241E6EFF0E1D207F
:103430001F6E1F5009E10A0E1E5CD8A022EF1AF081
:1034400024EF1AF026EF1AF0000E226E22C01CF0B4
:103450001D6A1200000E176E4404D8A432EF1AF051
:1034600034EF1AF04BEF1AF0D00E01017B252A6FD2
:103470002B6BFF0E2B23172A7B0E1724D96EDA6ACB
:10348000010EDA22DF50166ED00E1624286F296B3B
:10349000FF0E2923172A1750020F406E790E402481
:1034A000D96EDA6A010EDA22DF50416E040E436EE5
:1034B00012009D9AB80E166E2C0E176E25EC1FF09A
:1034C000080EB86E900EAB6E240EAC6ECF0EAF6EC3
:1034D000000EB06EE60E166E3E0E176E2FEC1FF04D
:1034E000B00E166E3E0E176E2AEC1FF0B60E166E5C
:1034F0003E0E176E34EC1FF0000E0001CB6F000E75
:10350000476E000E466E000ECC6F9D8A12006DB4A1
:103510008CEF1AF08EEF1AF087EF1AF06BB093EF82
:103520001AF095EF1AF087EF1AF06BB29AEF1AF0D3
:103530009CEF1AF087EF1AF06BB4A1EF1AF0A3EF2B
:103540001AF087EF1AF06BB6A8EF1AF0AAEF1AF08C
:1035500087EF1AF06BB8AFEF1AF0B1EF1AF087EF00
:103560001AF012009FC033F0A0C034F0C7EF1AF079
:103570009DC084F09EC085F0330E0001866F000E62
:10358000876FA1C088F0A2C089F025EC08F033C095
:10359000F6FF34C0F7FFF86A0800F5500009D8A418
:1035A000D4EF1AF0D6EF1AF0B8EF1AF0000E0001BF
:1035B0009E6F000E9D6F1200ECEF1AF0000E446E2D
:1035C00002EF1BF0010E446E02EF1BF0000E426E84
:1035D000000E436E02EF1BF001017A51166E176A5E
:1035E0001750000AD8B4F7EF1AF0E6EF1AF01650A9
:1035F000420AD8B4DEEF1AF0170AD8B4E2EF1AF094
:10360000E6EF1AF0030E436E1200A70E0001AF6F33
:10361000000EB06FA3C0B1F0A4C0B2F0000EB56F41
:10362000000EB46F000EBB6F000EBA6FB10E9D6F2F
:10363000000E9E6FA5C09FF0A6C0A0F0AF0EA16FB8
:10364000000EA26FB2EC1AF00001B451A325D96E9E
:10365000B551A421DA6E000EDF6E12001CC023F0FB
:103660001DC024F01AC021F01BC022F048EF1BF04F
:1036700023C0D9FF24C0DAFFDF50206E234A242A5A
:1036800021C0D9FF22C0DAFF20C0DFFF214A222A51
:103690001E06D8A01F061E2806E11F28D8A453EF37
:1036A0001BF055EF1BF038EF1BF0120016C018F09E
:1036B00017C019F05EEF1BF0164A172A16C0F6FF66
:1036C00017C0F7FF000EF86E0F0EF76403D0080066
:1036D000F55005D0F6CFE1FFF7CFE2FFE750000944
:1036E000D8A475EF1BF077EF1BF05CEF1BF01850C0
:1036F000165C166E19501758176E120001C003F0B1
:1037000002C004F086EF1BF0014A022A01C0F6FF56
:1037100002C0F7FF000EF86E0F0EF76403D008002A
:10372000F55005D0F6CFE1FFF7CFE2FFE7500009F3
:10373000D8A49DEF1BF09FEF1BF084EF1BF003500C
:10374000015C016E04500258026E1200650E1A6E82
:10375000010E1B6E11EC1CF0C1C0BCF0C2C0BDF06C
:103760002AEC19F0650E0001A36F010EA46F190E6B
:10377000A56F100EA66FC1C0A7F0C2C0A8F098C177
:10378000A9F0AA6B99C1ABF0AC6B000EAE6F2A0E1C
:10379000AD6F05EC1BF01200010E1A6E200E16180C
:1037A0001710D8B4D6EF1BF0D8EF1BF0EBEF1BF0DF
:1037B000F70E1624186EFF0E1720196E195009E126
:1037C000050E185CD8A0E7EF1BF0E9EF1BF0EBEF5C
:1037D0001BF0000E1A6E1AC016F0176A1200000EC7
:1037E000276E000E266E00EF1CF025C018F0196A37
:1037F00023C01AF024C01BF035EC15F0264A272A06
:1038000026502124D96E27502220DA6EDF50256EF3
:103810002550D8A40EEF1CF010EF1CF0F5EF1BF0B4
:103820001200000E1D6E000E1C6E21EF1CF01C50CD
:103830001A24D96E1D501B20DA6E000EDF6E1C4A52
:103840001D2A1AC016F01BC017F056EC1BF01650BC
:103850001C5C17501D58D8A030EF1CF032EF1CF044
:1038600017EF1CF01200000E086E000E076E43EFFB
:103870001CF007500524D96E08500620DA6E000EA1
:10388000DF6E074A082A05C001F006C002F07EEC90
:103890001BF00150075C02500858D8A052EF1CF0F2
:1038A00054EF1CF039EF1CF01200000E8D6E0C0E60
:1038B0008C6E000E896E000E8A6E000E8B6E070EE7
:1038C000966E926893689F0E946EF30E956EF00E4E
:1038D0000F013B6F1C0E3A6F3F0E396F060E3C6FA7
:1038E000200E386F000E616EF18E120029BE83EF3C
:1038F0001CF0295006E12804D8B081EF1CF083EFBA
:103900001CF091EF1CF028C02AF029C02BF02A1ED1
:103910002B1E2A4A2B2A2AC028F02BC029F095EF0B
:103920001CF028C028F029C029F01200A192B1C1D2
:1039300001F0B2C102F033EC1EF00101AF51B01141
:10394000D8B4A5EF1CF0A7EF1CF0B3EF1CF002D821
:10395000B3EF1CF00500FA6EAF51FD6EB051FE6E74
:10396000FF6AFA50120012009E90B5C101F0B6C174
:1039700002F047EC1EF00101B351B411D8B4C3EF0B
:103980001CF0C5EF1CF0D1EF1CF002D8D1EF1CF0F9
:103990000500FA6EB351FD6EB451FE6EFF6AFA5027
:1039A000120012009F0E1A241C6EFF0E1B201D6EAB
:1039B0001D5007E11A0E1C5CD8B0E1EF1CF0E3EFDC
:1039C0001CF0E9EF1CF05F0E1A141A6E1B6AEDEF83
:1039D0001CF01AC01AF01BC01BF01200200E1610AB
:1039E000186E000E1710196E9F0E18241A6EFF0E17
:1039F00019201B6E1B500AE11A0E1A5CD8A003EFA7
:103A00001DF006EF1DF0010E07EF1DF0000E166E03
:103A1000176A1200F2944950D76E48C0D6FF0101D0
:103A2000B751B811D8B417EF1DF019EF1DF025EFFD
:103A30001DF002D825EF1DF00500FA6EB751FD6E9E
:103A4000B851FE6EFF6AFA5012001200D59C6D0E3E
:103A5000D76E830ED66ED650D7CF18F0196A18C01D
:103A600019F0186A1810486E1950496EF294F28ACB
:103A7000E40E166E3E0E176E20EC1FF0930ED56E00
:103A800012002EC023F02FC024F030C025F031C02A
:103A900026F032C027F033C028F0010E296EBBECAF
:103AA0000AF023C02EF024C02FF025C030F026C02D
:103AB00031F01200176E87EC1AF068EC1FF0DDECA5
:103AC0001EF00009D8B467EF1DF069EF1DF05FEF3D
:103AD0001DF06FCF18F066EC1FF01750D3EC1EF0FE
:103AE000185012009F0E1624186EFF0E1720196E24
:103AF00019500AE11A0E185CD8A081EF1DF084EF6E
:103B00001DF0010E85EF1DF0000E166E176A1200F3
:103B1000BF0E1624186EFF0E1720196E19500AE1F9
:103B20001A0E185CD8A097EF1DF09AEF1DF0010E49
:103B30009BEF1DF0000E166E176A1200D00E1624B1
:103B4000186EFF0E1720196E19500AE10A0E185C44
:103B5000D8A0ADEF1DF0B0EF1DF0010EB1EF1DF0DC
:103B6000000E166E176A1200190E176E0F0E186EE1
:103B7000400E96EC19F0140E176E020E186E400EE1
:103B800096EC19F0660E176E020E186E400E96EC4B
:103B900019F012001C0E4724D96EDA6A010EDA22DF
:103BA000AECFDFFF472A070E4764D9EF1DF0DBEFEA
:103BB0001DF0DDEF1DF0000E476E0001CC2B120052
:103BC000000EB46E3C0EB36EB00EB26EB2CFB1F159
:103BD000B3CFB2F1A192A082E00E166E3E0E176E28
:103BE00016EC1FF0310EB16E1200000ECC6E3C0EC2
:103BF000CF6EB00ECE6ECECFB5F1CFCFB6F19E90D8
:103C00009D80E20E166E3E0E176E1BEC1FF0310EFD
:103C1000CD6E12009EAA0FEF1EF011EF1EF00AEFFC
:103C20001EF0000E0001CB6FABA219EF1EF01BEFD0
:103C30001EF01DEF1EF0AB98AB88AE501200000EC8
:103C4000166E9EA826EF1EF028EF1EF031EF1EF034
:103C5000ACAA2DEF1EF02FEF1EF031EF1EF0010E7B
:103C6000166E16501200B1A438EF1EF03AEF1EF097
:103C700042EF1EF0B1900250B36E01C0B2FFB180AE
:103C800046EF1EF00250B36E01C0B2FF1200CDA489
:103C90004CEF1EF04EEF1EF056EF1EF0CD9002508E
:103CA000CF6E01C0CEFFCD805AEF1EF00250CF6E16
:103CB00001C0CEFF120016501802F3CF1AF0F4CF55
:103CC0001BF016501902F3501B2617501802F35020
:103CD0001B261AC016F01BC017F012002AC116F0DE
:103CE0002BC117F0000E196E0A0E186E5BEC1EF059
:103CF0000101285116241C6E295117201D6E120037
:103D00005EEC1FF055EC1CF0EFEC1EF0E0EC1DF04B
:103D1000F5EC1DF026EC1DF059EC1AF01200016EC6
:103D2000790E01012625D96E010E2721DA6E01C018
:103D3000DFFF264B272B120087EC1AF06BBCA3EF9A
:103D40001EF0A6EF1EF0010EA7EF1EF0000E1200EF
:103D50004250D8B4AEEF1EF0B0EF1EF0A8EF1EF048
:103D6000010E436E1200166E16C0ADFFACA2BBEF83
:103D70001EF0BDEF1EF0B6EF1EF01200503D342BCA
:103D8000B8355434FA2B1A1A286E756C6C2900FF5A
:013D90000F23
:103D9200000E6D6E080E6C6E000E6B6E270E6E6E50
:103DA2006C8A1200166E16B002D06B9A01D06B8A22
:103DB20087EC1AF06B8812006DB0E2EF1EF0E5EFAF
:103DC2001EF0010EE6EF1EF0000E1200140E176E2A
:103DD200800E186E400E96EC19F01200700ED36E23
:103DE200040ED26E000E9B6E1200B1C101F0B2C180
:103DF20002F033EC1EF01200B5C101F0B6C102F0C0
:103E020047EC1EF01200166E87EC1AF016C06FFF18
:103E120012008C846CEC1FF0F6EC1EF012008C8603
:103E22006EEC1FF0FDEC1EF0120016C0AFF117C0D1
:103E3200B0F1120016C0B3F117C0B4F1120016C0EF
:103E4200B7F117C0B8F1120016C0BFF117C0C0F128
:103E5200120016C0BBF117C0BCF1120016C0BDF1B2
:103E620017C0BEF1120016C0B9F117C0BAF11200A4
:103E7200000E436E000E456E12004950D76E48C0C8
:103E8200D6FF1200176E1750B3EC1EF0120087EC2B
:103E92001AF06B82120087EC1AF06B84120087EC26
:103EA2001AF06B801200010E0001C76F1200AB986E
:103EB200AB881200CAEC1DF01200D09E1200CD8019
:103EC2001200D59E1200D58E12006B9612006B86E0
:103ED2001200B1801200B1901200CD9012001200B7
:073EE20012001200120001A2
:020000040020DA
:08000000FFFFFFFFFFFFFFFF00
:020000040030CA
:0E000000FF381F00FFBF81FF0FC00FE00F4051
:00000001FF
